:020000040800F2
:10000000A8D401209D010008BDF90008ADBC00087E
:1000100005F3000801160008B9D40108000000002B
:1000200000000000000000000000000099750108B9
:10003000CF2E0008000000008309000829170108DE
:10004000B7010008B7010008B7010008B7010008B0
:10005000B7010008B7010008B7010008B7010008A0
:10006000B7010008B7010008B7010008B701000890
:10007000B7010008B7010008B7010008B701000880
:10008000B7010008B7010008B7010008B701000870
:10009000B7010008B7010008B7010008B701000860
:1000A000B7010008B7010008B7010008B701000850
:1000B000B7010008B7010008B7010008B701000840
:1000C000B7010008B7010008B7010008B701000830
:1000D00055740108B7010008B7010008B70100080E
:1000E0005D380008C1500108B7010008B7010008D9
:1000F000B7010008B7010008B7010008B701000800
:10010000B70100088D5B0108B7010008B7010008BE
:10011000B7010008B7010008B7010008B7010008DF
:10012000B70100080D290008B701000839290008A7
:10013000B7010008B7010008B7010008B7010008BF
:10014000B7010008B7010008B7010008B7010008AF
:10015000B7010008B7010008B7010008B70100089F
:10016000B7010008B7010008B7010008B70100088F
:10017000B701000855370108B7010008B7010008AA
:10018000B7010008B7010008DFF80CD000F09EFBB3
:100190000048004785DF0208A8D4012006488047B0
:1001A00006480047FEE7FEE7FEE7FEE7FEE7FEE75C
:1001B000FEE7FEE7FEE7FEE7D977010889010008C0
:1001C00072B6704762B67047EFF3108072B6704730
:1001D00080F31088704730BF704720BF7047B0FA77
:1001E00080F0704790FAA0F0B0FA80F0704790FA73
:1001F000A0F070472DE9F05F0546002092469B462F
:1002000088460646814640241BE02846414647462C
:10021000224600F020F852465B46801A994110D3DE
:1002200010461946224600F035FA2D1A67EB0108F0
:100230004F4622460120002100F02CFA17EB00095E
:100240004E41201EA4F10104DFDC484631462A4617
:100250004346BDE8F09F202A04DB203A21FA02F051
:100260000021704721FA02F3D040C2F120029140F0
:1002700008431946704710B5431A934209D28318B0
:10028000881803E010F8011D03F8011D521EF9D271
:1002900010BD40EA01039B0703D009E008C9121F03
:1002A00008C0042AFAD203E011F8013B00F8013B30
:1002B000521EF9D210BDD2B201E000F8012B491E46
:1002C000FBD270470022F6E710B5044608461146F7
:1002D00002462046FFF7EFFF204610BD30B50EE086
:1002E00003460A4601E05B1C521C1C781578AC42A0
:1002F00001D1002CF7D115F0FF0F04D0401C02787B
:10030000002AEDD1002030BD10B5044604E00B7882
:1003100000F8013B03B1491C521EF8D2204610BD23
:10032000CAB20178914203D009B1401CF9E700201C
:1003300070470146002000E0401C0A5C002AFBD107
:10034000704710B5002200E0521C835C8C5CA34215
:1003500001D1002BF8D1D8B2E1B2401A10BD30B5AE
:1003600004460020034600E05B1C934203D2E05C9D
:10037000CD5C401BF8D030BD034611F8012B00F8CE
:10038000012B002AF9D11846704730B505460020E8
:10039000034600E05B1C934205D2EC5CC85C201A6B
:1003A00001D1002CF6D130BD0246C9B200E0401C9C
:1003B0000378002BFBD102E003788B4203D0401E70
:1003C0009042F9D2002070472DE9FE4F074681EA9E
:1003D0000300C00F0E46019021F0004123F00044BD
:1003E000B81AA14105D23846314617461E460B467B
:1003F000024623F00040104304D13846314603B092
:10040000BDE8F08F350DC5F30A00C3F30A51029021
:10041000401A0090402868DAC3F3130040F4801BB0
:100420000198924620B10023D2EB030A63EB0B0B39
:1004300000985946C0F14002504600F02BF9804622
:100440000C4650465946009A00F033F9C0197141E4
:10045000EF1785EA11533B4340D0019A52B3009AFB
:10046000012A11DC0022801A4FF0004361EB055194
:1004700003EA05538018CDE9002341F58011424677
:10048000234600F035F9BAE72E050025401B61EB45
:100490000601401941F58012001852412818A6F5AE
:1004A000001343EB020140EAD470294318EB08081B
:1004B000644113E064084FEA38084FF0000244EA50
:1004C000C0744FEA0553801A61EB0301801841F5AF
:1004D000801149084FEA30008018594142462346AE
:1004E00003B0BDE8F04F00F0F6B8019801224000DB
:1004F0000023D0EB020263EBE07301984FEAE07453
:10050000381A66EB0401EBE783F000435CE781F007
:10051000004159E72DE9FE4F81EA030421F000452F
:1005200004F0004423F000414FF0000A009450EA28
:10053000050302D052EA010304D10020014603B0B2
:10054000BDE8F08FC1F30A53C5F30A541C44A0FB65
:1005500002B3C5F3130545F4801CC1F3130141F444
:1005600080180CFB023300FB083EA4F2F334810A2E
:10057000930A41EA8C5143EA88530194A1FB034753
:100580004FEA9C2505FB03734FEA982601FB0637CB
:100590003D05260545EA1435BBEB06016EEB050368
:1005A000850E920E45EA8C1542EA8812A5FB0206DA
:1005B000261E67EB00070C0D44EA0334A41947EB31
:1005C0001350C1F313064FF0000319464FEA0333EB
:1005D00043EA165343EA0403019CE5FB0201A4F13C
:1005E0000C040294009C4FEA0632CDE900A400F00E
:1005F0007FF8A4E70EB540F2334102910021CDE926
:1006000000110A460B4600F073F803B000BDC1F3B9
:100610000A52C1F3130140F2FF3341F480119A42B0
:1006200001DA0020704740F233439A42A2F233428B
:1006300002DC5242FFF70FBE9040704700F00042CC
:1006400030F000400DD0C10D01F5607142EA01515A
:100650000022C0F31600520742EAD00240071143BD
:10066000704700200146704730B50B460146002018
:100670002022012409E021FA02F59D4205D303FA64
:1006800002F5491B04FA02F52844151EA2F10102E5
:10069000F1DC30BD202A04DB203A00FA02F1002010
:1006A00070479140C2F1200320FA03F319439040B0
:1006B0007047202A06DBCB17203A41FA02F043EAC2
:1006C000E071704741FA02F3D040C2F1200291403C
:1006D00008431946704710B5002B08DA401C41F159
:1006E000000192185B411A4301D120F0010010BDB6
:1006F0002DE9F04D92469B4611B1B1FA81F202E02C
:10070000B0FA80F220329046FFF7C4FF06460F464B
:1007100040EA0A0041EA0B0152465B46084303D116
:1007200030463946BDE8F08D194652EA010015D031
:10073000C8F140025046FFF78EFD04460D46504674
:1007400059464246FFF7A6FF084301D0012000E0CA
:100750000020044345EAE07526432F430A984FEAF8
:10076000D625A0EB08000A304FEA46534FF00002AE
:1007700045EA47554FEAD72402D500200146D1E784
:10078000010550196141DDE9084500196941BDE8DD
:10079000F04DA0E72DE9F04D81EA030404F0004B91
:1007A00021F0004714464FF0000A23F0004150EAC0
:1007B000070220D054EA01021DD0C1F30A550246B7
:1007C000C1F31300C7F30A56C7F3130340F48011B3
:1007D00043F48013A6EB0508101BD64608F2FD383B
:1007E00073EB010002D308F1010801E092185B41AC
:1007F000B8F1000F03DA00200146BDE8F08D0020BB
:100800004FF48015064607460EE0B2EB040C73EB7E
:10081000010C04D3121B064363EB01032F436D0845
:100820004FEA300092185B4150EA050CEDD152EAD4
:10083000030012D082EA040083EA0105284303D1B1
:1008400000224FF0004308E0101B8B4102D201222E
:10085000002302E06FF0010253101AEB060047EB91
:10086000085110EB0A0041EB0B01BDE8F04DFFF71A
:1008700032BFC1F30A52C1F3130140F2FF3341F416
:1008800080119A4202DA00200146704740F2334359
:100890009A42A2F2334202DC5242FFF7DCBCFFF77D
:1008A000F9BE000030B5002904DB4FF0004440429F
:1008B00064EB0101002B04DB4FF00044524264EB77
:1008C0000303994208BF904230BD0000064C074D1B
:1008D00006E0E06840F0010394E807009847103410
:1008E000AC42F6D3FFF754FC38030D0858030D084B
:1008F00070B501EB020410F8015B15F0070301D19C
:1009000010F8013B2A1106D110F8012B03E010F872
:10091000016B01F8016B5B1EF9D12B0705D4002395
:10092000521E0FD401F8013BFAE710F8013B02F127
:100930000202A1EB030303E013F8015B01F8015B82
:10094000521EF9D5A142D6D3002070BD21484FF0E8
:10095000FF010170002080F309881F48016881F3BE
:1009600008881E484FF08051016062B6FEE71B48C0
:100970004FF080510160704718484FF0805101607E
:10098000704772B6EFF3098050B11EF0100F08BF28
:1009900020ED108A734620E9F80F114909680860B4
:1009A00000B5104880475DF804EB0F480F490A78FE
:1009B00002700B480E490A6802601068B0E8F80F30
:1009C0009E461EF0100F08BFB0EC108A80F3098815
:1009D00062B6704722ED00E0C402002004ED00E0A2
:1009E000BC020020C11301085A0200205B02002053
:1009F000C002002021B1826842F00102826003E05F
:100A0000826822F0010282607047000000210A4AD9
:100A100011680A4A01EA0201D0E9002342EA03020E
:100A2000836842EA0302C36842EA030242EA010120
:100A3000034AC2F80413704704230140E030FCFF6E
:100A40000020014000B58DB00121880214F016FA93
:100A50004FF40070019003208DF8080000208DF8FD
:100A60000B0001A9184804F073FE002003904FF416
:100A70000030049000200590069003A8FFF7C6FF01
:100A800007A800F035F9002007908DF8200001201C
:100A90008DF82100002009900B9001208DF8300086
:100AA00007A90A4800F098F8032301220721074804
:100AB00000F0BCF801210548FFF79CFF034800F057
:100AC00012F90DB000BD00000014024000220140E8
:100AD0000146C86C80B270472DE9F05F2DED048BA4
:100AE00082460C469346BAF1000F6AD100BF00BFA0
:100AF00000BF00BF00BF34480068012804D1FFF7E1
:100B0000A1FF0020304908603048FFF7E1FF0646AA
:100B10003046FFF76FFD41EC100BB0EE408AF0EE6F
:100B2000608A9FED2B0B53EC102B51EC180BFFF749
:100B3000F1FC41EC100BB0EE409AF0EE609A51ECF3
:100B4000190BFFF764FD06464FF47A70B6FBF0F020
:100B5000C5B205EB4500C0EBC510A6EBC000642193
:100B6000B0FBF1F0C7B24FF47A7015FB00F007EB61
:100B7000C70101EB071100EB8100301A0A21B0FB1D
:100B8000F1F8E82015FB00F007EBC70101EB0711B6
:100B900000EB810008EB880100EB4100A6EB0009A7
:100BA00005F13000207007F13000607008F130006E
:100BB000A07009F13000E0700420BDEC048BBDE8AA
:100BC000F09F0020F9E700002405002000220140EA
:100BD0009A9999999999E93F30B5024600200023E6
:100BE0005068104C20400D790C6844EA05242043DD
:100BF000506090680C4C2040D1E903542C438D6820
:100C00002C434D7944EA450420439060D06A20F497
:100C100070000C7D641EE4B2234340EA0350D062AE
:100C200030BD0000FFFEFFFCFDF7FFC070B50446BD
:100C30008C4600200021BCF1090F11DDE068ACF109
:100C40000A0505EB4506072505FA06F18843ACF1D0
:100C50000A0505EB450503FA05F10843E0600CE0E1
:100C600020690CEB4C06072505FA06F188430CEBCE
:100C70004C0503FA05F108432061072A0FDA606B7F
:100C8000551E05EB85061F2505FA06F18843551EFE
:100C900005EB85050CFA05F10843606322E00D2A97
:100CA0000FDA206BD51F05EB85061F2505FA06F127
:100CB0008843D51F05EB85050CFA05F10843206331
:100CC00010E0E06AA2F10D0505EB85061F2505FA87
:100CD00006F18843A2F10D0505EB85050CFA05F137
:100CE0000843E06270BD816841F0804181607047D7
:100CF00000210160017141718160C16001610121C8
:100D00000175704710B505A20021074800F05AFA96
:100D100006A20021084800F055FA10BD53454D5F6A
:100D20004F56373637300000500D002053454D5F89
:100D300053594E4348000000280D00200EE008489B
:100D40000078032807D107480AF0B3FD18B1064917
:100D500004481AF08AF90A2000F070FAEFE7000060
:100D6000B1010020581F0120E829012000B58BB0F7
:100D70000AA8032100220592CDE9062108904FF42C
:100D80000060CC213C4B1B68CDE90131CDE9030269
:100D900003201346394A3AA100903D4800680FF0FD
:100DA00037FE0AA8032100220592CDE9062108900A
:100DB00011464FF480626620364B1B68CDE9013046
:100DC000CDE9032104200023334A34A100903748A1
:100DD00000680FF01DFE0AA8032100220592CDE94C
:100DE0000621089010464FF480616622304B1B6844
:100DF000CDE90132CDE90310052000232D4A2EA1B3
:100E00000090314800680FF003FE0AA80321002279
:100E10000592CDE90621089001210A0340F29910BC
:100E20002A4B1B68CDE90130CDE903213C2000238A
:100E3000274A28A100902B4800680FF0E9FD0AA876
:100E4000032100220592CDE90621089010464FF4B7
:100E500080616622244B1B68CDE90132CDE9031085
:100E60003B200023214A22A10090264800680FF071
:100E7000CFFD0BB000BD00000C000020210F0008CA
:100E8000417070205461736B20557064617465000B
:100E900008000020140000203D0D00084170702063
:100EA0005461736B20434F4D000000001000002080
:100EB0001C00002031100008417070205461736BD9
:100EC0002055736572494600180000202400002058
:100ED000090F0008417070205461736B2047554919
:100EE00000000000200000202C000020110F00084E
:100EF000417070205461736B20475549526566728A
:100F0000657368002800002001E00EF033F9FCE76B
:100F100005E0022027F0B2FF642000F08FF9F8E727
:100F200086B0002528E00021144800F06BF9044643
:100F3000012C21D12A4612A1684625F07DFB05A887
:100F40000FF054FA13A029F01AFE154908700A226E
:100F50006946144829F010FF1149087011491248D8
:100F600005F0FEF90F4829F0F4FD0D49087005A8B9
:100F70000FF074FA681CC5B2D5E70000280D0020F8
:100F8000303A2F506963536176652F25642E626D68
:100F900070000000303A2F5069635361766500009D
:100FA000D4010020B0FD0020AD64020808B5002483
:100FB0000025002600F06CFD26F08CFD00F060F9A5
:100FC00068460FF0A3FCFFF79DFEFFF7CFFE28E079
:100FD000144890F82800012802D117F05DFA16E0B5
:100FE00011480078012807D1681CC5B20A2D0ED11E
:100FF000002504F039FC0AE00C484078012806D1AD
:10100000701CC6B20A2E02D1002603F079FC601CC7
:10101000C4B20A2C02D1002427F0E4FE012000F023
:101020000DF9D5E708300020FC3000201E310020EB
:101030000EB50020019039E026F040FC044674B360
:101040000D2C27D008DC012C0DD0042C0FD0072C40
:1010500019D00A2C22D11CE0102C1CD0132C1BD030
:10106000162C1BD119E0124800F0BDF816E0012043
:10107000019002A80023012201A900900D480068F8
:101080000FF046FF0AE026210B4800681DF0E0FF44
:1010900004E003E002E001E000E000BF00BF2CF04C
:1010A00031FF31F015FC052000F0C8F8C4E700005E
:1010B000280D0020200000203000002010B504463C
:1010C0001F2C01DC1F2402E0FE2C00DBFE240B4859
:1010D000047001460978402202EB611000F032F8FA
:1010E0000649097801F01F0101F1600000F02AF8BB
:1010F0000348007800F006F810BD0000AA000020A8
:10110000AB00002010B50446012C06D1102000F0E1
:1011100019F801200A49087010E0022C06D11120AC
:1011200000F010F802200649087007E0032C05D1F2
:10113000132000F007F803200149087010BD0000DB
:10114000AB00002010B504462BF0B8FF46202BF072
:101150008DFF2BF0DDFF20462BF088FF2BF0D8FF12
:101160002BF0C4FF10BD2DE9F04104462BF0A6FF83
:10117000EE202BF07BFF2BF0CBFF20462BF076FFF1
:101180002BF0C6FF2BF09AFFEF202BF06FFF2BF018
:10119000BFFF2BF049FF05462BF0F6FE2BF044FF76
:1011A00006462BF02DFF2BF0A1FF06EB052087B2A2
:1011B0003846BDE8F0811FB5684613F07FFE019800
:1011C00004B010BDF8B506460C4615466B462246DF
:1011D000294630460FF08AF9BDF8000008B100201A
:1011E000F8BD0120FCE738B504466A4600212046D8
:1011F0000FF090FABDF8000008B1002038BD0120C2
:10120000FCE700007CB505460C464FF47A7060435D
:1012100009490968B0FBF1F601A800231A463146D6
:10122000009028460FF0A2F9BDF8040008B1002094
:101230007CBD0120FCE70000E8ED0B08FEB504468C
:1012400042F21070844200D90446B4F57A7F0BD381
:101250004FF47A70B4FBF0F085B24FF47A70B4FBBF
:10126000F0F100FB114601E0A5B2002602A8002122
:101270002B463246CDE90010084610F035F9FEBD88
:101280002DE9F041FFF797FF054614480068B5FBCC
:10129000F0F42146B1F1807F00D31DE021F07F40C2
:1012A000401E4FF0E022506150170F22002807DA4D
:1012B00013071F0E0A4B00F00F06361F9F5503E061
:1012C00013071E0E074B1E5400BF00204FF0E022F4
:1012D00090610720106100BFBDE8F081E8ED0B08C8
:1012E00018ED00E000E400E010B50446214651206E
:1012F00013F0F2FC10BD2DE9F04105460C461646F0
:101300001F46DDF81880E9B2582013F0E5FC2912D9
:10131000592013F0E1FCE1B25A2013F0DDFCB8F1E2
:10132000000F04D121125B2013F0D6FC05E08020D1
:1013300040EA24215B2013F0CFFCF9B25C2013F0CB
:10134000CBFC39125D2013F0C7FCF1B25E2013F024
:10135000C3FC31125F2013F0BFFCBDE8F081000038
:1013600010B5012004490870502013F045FC80207E
:1013700013F064FC10BD00000801002010B500242B
:1013800006E013F091FA10F0400F00D103E0641C66
:1013900003488442F5D300BF00200249087010BD05
:1013A000A086010008010020F0B5044680688C4941
:1013B00089B051F820506068002800F00A810528A3
:1013C00006D006287DD0122800F0B48000F004B9C1
:1013D000E869002808BF002651D0D5E90012AB68A3
:1013E0008DE80F0004F110010FC909F023FA00265F
:1013F00055F8260008F0C7F8A169E8690A1A2169BA
:1014000001446069304405F0C9FFA169E8690A1A1E
:1014100021690144E069801B05F0C0FFE169E869CA
:101420000A1A616901442069304406F081F8E169D3
:10143000E8690A1A61690144A069801B06F078F81E
:10144000761C022ED4DBA86808F09DF8E069E969F3
:10145000D4F814C0431A206942186144801C521EFB
:1014600006F012F9E169E869A2690B1A61690144A1
:10147000101A401C921E06F007F9EE6911E055F8AB
:10148000260008F080F8E069831BA069821B606970
:1014900081192069304406F003F8761C022EEEDB39
:1014A0000226D5E90301CDE90001E1696069014443
:1014B0004B10A1698A1B811C2069304405F064FE31
:1014C00000E011E0D5E90501CDE90001E0696169BD
:1014D000831E01440122A06902EB6101821B206985
:1014E000304405F051FE77E0206804F09FFD049041
:1014F00020681EF05FFC50B1A068002818BF0020D3
:101500000AD10498006F002818BF012004E0049855
:10151000406F002818BF0220049901EB8000C56EBF
:1015200004A804F01BFE00231A462846216805F093
:10153000CBF951E0206804F079FD0490866E002E0E
:1015400008BF04A842D0A168B0F95C70002908BFA8
:10155000012103D003290CBF0221002100EB8101EE
:10156000406D0C6C08F038F8204608F00CF806A81E
:1015700006F04EF9BDF81810A88B0144ADF818100C
:10158000BDF81C10081AADF81C00BDF81A00801C2C
:10159000ADF81A00BDF81E00801EADF81E000498BC
:1015A000B0F96020B0F95E1006A807F0E3FB04A8CC
:1015B00004F0D4FD022008F07BF8304604F036FD3C
:1015C0003A4606A9059005F0C3FA05A804F0C6FD41
:1015D00002E020681DF060FE09B00020F0BD0000B0
:1015E00000E30C08044A0349116004494A6A48624E
:1015F00010467047500600201406002020060020E8
:1016000000BFFEE710B50021044801F0E5F9002015
:1016100001F096F8002001F081F810BD2864024026
:101620002DE9F04F0446006889B028B11EF0C2FBD6
:10163000002808BF012500D00025FE4850F825608D
:1016400060680A2800F0718108DC002800F0DC8165
:1016500006283ED007280CD000F0E7B9122800F089
:101660002F81192802BFB06909B0BDE8F08F00F0E2
:10167000DCB9256806F016FA284604F0D7FC00907D
:10168000C76F684604F06AFD08F0F6FA5FF00005DF
:1016900056F8250007F077FF2069C119491B4B1E3A
:1016A00061691A462944284405F0FAFE6D1C032D91
:1016B000EED3D6E90301CDE900012069C119491B28
:1016C0004B1E61691A462944284405F05DFD00F06F
:1016D000ACB9A068401E0690246806F0E3F92046E5
:1016E00004F0A4FC0090C46F684604F037FD08F0D5
:1016F000C3FADFF8449359F82570002F1CBF0698F1
:1017000000EB80000DD000BFB7F84810A14205D112
:1017100007EB8001896809B11FB1C7E0FF6C002F9A
:10172000F2D1502004F0F0FB07006AD050220021D3
:1017300009F062FF70697864A7F8484059F82500FD
:10174000F864A4F10608BD4849F8257080FB08102C
:101750004110A1EBE070032108910122CDF808802F
:1017600007F14001CDE90312069D05EB850107EB6A
:101770008101019105EB450107EB810128310091C1
:1017800008EBD8714A10491001EBD173A1EB63014A
:101790000E18101A059008F10700C11700EB5170E0
:1017A0004FEAE00A0AFB08F4204604F0ADFB81464C
:1017B0002246002109F020FFDDE9042001282BDD6D
:1017C0000899012034463144A14220DDD31702EBB1
:1017D000537E02F0070C802323FA0CF3444509DA08
:1017E0000AFB04FC0CEBEE0C19F80CB04BEA030BF3
:1017F00009F80CB06840641CA14208DD0028F9D04B
:10180000ECE750218E4805F0DBFE00F00EB905989C
:10181000521C761C9042D3DC04990298401A049022
:10182000904226DD089B01213046334483421BDD74
:101830004FEAE27C02EB5C7E02F0070C802424FA83
:101840000CFC404509DA0AFB00F404EBEE0419F83D
:1018500004B04BEA0C0B09F804B06940401C834209
:1018600002DD0029F9D0ECE70498521C761E904264
:10187000D8DC009802210160009901200871009ACB
:10188000039991600199C88001980021A0F804A0F3
:101890000198C0F8089001980161DDE90001C86075
:1018A000DDE9010101800198A0F802800698032279
:1018B00000EB800007EB8000114605F09DFAB4E0D4
:1018C000206804F0B3FB0290B0F9548090F85660A1
:1018D000D0F84490476B02A804F040FC256806F05D
:1018E000E1F8284604F0A2FB0390B0F87C5003A86E
:1018F00004F034FC08F0C0F968461CF097FCBDF811
:101900000000A9190844ADF80000246A384607F021
:1019100063FE022007F0CCFE484607F034FE424644
:101920006946204605F014F97FE0206804F07EFB4C
:101930000290B0F9545090F85680476B866C02A81C
:1019400004F00CFCD4F8009006F0ACF8484604F023
:101950006DFB0390B0F87C9003A804F0FFFB08F047
:101960008BF968461CF062FCBDF8000009EB080129
:101970000844ADF80000206A05F0C4FF044638466C
:1019800005F0EAFF25F00301042904BFBDF80610A5
:10199000091A08D00C2908D1BDF90610091A491CEA
:1019A00001EBD1714910ADF8021025F00C010129AD
:1019B0000CD0022913D1BDF90420BDF90010521A30
:1019C000121B02EBD27201EB620106E0BDF80420AB
:1019D000BDF80010521A121B1144ADF80010BDF8EA
:1019E0000010621E1144ADF80410BDF80210401E34
:1019F0000844ADF80600304607F0C5FD4FF0FF3152
:101A0000684605F073FA10E020681DF045FC206878
:101A100004F00CFB0790B0F90610B0F90220891A07
:101A2000491CC16707A804F099FB09B00020BDE874
:101A3000F08F000010E30C08200700206766666640
:101A4000E0020D08044A034911600449CA69C861EB
:101A500010467047DC060020880C00208C0C00200B
:101A600000B589B00020009002900390049005908A
:101A7000069007900890192001900448006880683B
:101A800041686846884709B000BD0000880C002006
:101A900010B500F01FF800F019F810BD10B50024C3
:101AA00000BF00BFFEF790FB044600BF00BF10213F
:101AB00005480DF029FC00BF00BF2046FEF788FB5B
:101AC00000BF00BF10BD00006009012010B5FFF786
:101AD000E5FF10BD10B500200249086000F00AF8CB
:101AE00010BD0000E80100200149086070470000B7
:101AF000E801002010B5FFF75EFB044608480068C7
:101B000040F0807006490860002006494860084699
:101B1000006840F0010008602046FFF7E5FF10BDB7
:101B2000FCED00E0001000E001494868704700004B
:101B3000001000E070B58AB0044665681B490020BB
:101B400013F00AFC1A49002013F0C0FB1848007873
:101B5000401E00EB40001749084414498978CDE93C
:101B6000001012484378027813A102A824F064FD03
:101B700040F2611128461CF0B5FB064602A915F09B
:101B8000C8FF0B488078009009484378C27810A1BC
:101B900002A824F051FD4FF4B07128461CF0A2FBBE
:101BA000064602A915F0B5FF0AB070BDD0000020AE
:101BB000D4000020D416080825302E32643A25308F
:101BC0002E32643A25302E32642025302E337300B5
:101BD000323025302E32642F25302E32642F2530BE
:101BE0002E32640030B50446DDF80CC0581AACEB58
:101BF00004056843151B90FBF5F0084430BD70B533
:101C000000254FF4803400E0641E24B1802013F0DE
:101C100095FF0028F8D014B90325284670BD40F27E
:101C2000FF5013F047FF2846F8E700002DE9F04188
:101C3000064600274748056801E04648056815F054
:101C4000450FFAD015F0040F06D00327042013F037
:101C500031FF3846BDE8F08115F0010F05D00127AE
:101C6000012013F027FF3846F4E713F061FFB0427C
:101C700002D010273846EDE740F2FF5013F01AFF6C
:101C8000002013F07BFF04463348044201D138465C
:101C9000E0E714F0004F01D01C20DBE714F0804F88
:101CA00001D00920D6E714F0005F01D00A20D1E767
:101CB00014F0805F01D00B20CCE714F0006F01D04E
:101CC0000C20C7E714F0806F01D00D20C2E714F09C
:101CD000807F01D00E20BDE714F4000F01D00F204B
:101CE000B8E714F4800F01D01020B3E714F4001FFC
:101CF00001D01120AEE714F4801F01D01220A9E713
:101D000014F4002F01D01320A4E714F4802F01D085
:101D100014209FE714F4003F01D015209AE714F433
:101D2000803F01D0162095E714F4004F01D0172012
:101D300090E714F4804F01D018208BE714F4005F73
:101D400001D0192086E714F0080F01D01A2081E78E
:101D500038467FE7342C014008E0FFFD70B50025D0
:101D60000F48046801E00E48046814F0450FFAD0EB
:101D700014F0040F05D00325042013F09BFE284621
:101D800070BD14F0010F05D00125012013F092FE63
:101D90002846F5E740F2FF5013F08CFE2846EFE7A7
:101DA000342C014070B500250B48046801E00A4856
:101DB000046814F0450FFAD014F0040F05D0032581
:101DC000042013F077FE284670BD40F2FF5013F058
:101DD00071FE2846F8E70000342C01402DE9F0415F
:101DE00006460F464FF000082248056801E02148EA
:101DF000056815F0450FFAD015F0040F07D04FF025
:101E00000308042013F056FE4046BDE8F08115F0AB
:101E1000010F06D04FF00108012013F04BFE4046A1
:101E2000F3E713F085FEB04203D04FF010084046B0
:101E3000EBE740F2FF5013F03DFE002013F09EFE52
:101E4000044614F4604F03D1200C38804046DCE790
:101E500014F4005F01D01320D7E714F4804F01D0B1
:101E60001020D2E714F4004F01D00F20CDE74046F8
:101E7000CBE70000342C014070B500264FF48035CC
:101E80000F48046802E06D1E0D48046814F0450F09
:101E900001D1002DF7D115B114F0040F05D00326A0
:101EA000042013F007FE304670BD14F0400F05D03B
:101EB0000026402013F0FEFD3046F5E73046F3E7FC
:101EC000342C014070B506460C4604F08000802892
:101ED00008D104F07F0000EB800106F58E7000EB66
:101EE000C10505E004EB840106F55D7000EBC1055A
:101EF0000020A87004F07F002870E009687029466F
:101F0000304619F004FE002070BD2DE9F041064670
:101F10000D4690461F4605F08000802808D105F048
:101F20007F0000EB800106F58E7000EBC10407E036
:101F300005F07F0000EB800106F55D7000EBC10449
:101F400005F07F00207005F08000C0096070C4F8C3
:101F50000880E770607808B12078E080022F01D116
:101F6000002020712146304619F085FD0020BDE893
:101F7000F0812DE9F04105460E461746984606F0D9
:101F80007F0000EB800105F55D7000EBC104E760A8
:101F9000C4F814800020A061607006F07F002070FB
:101FA000E878012800D12761207820B92146284609
:101FB00019F085FC03E02146284619F002FE0020B6
:101FC000BDE8F08108B500220092009A61F30A1280
:101FD000009202691268009B1A4303691A6008BDE7
:101FE00070B506460C4604F08000802808D104F045
:101FF0007F0000EB800106F58E7000EBC10505E067
:1020000004EB840106F55D7000EBC1050120A870AA
:1020100004F07F002870E00968702946304619F006
:102020009EFD002070BD2DE9F04107460D46164685
:10203000984605F07F0000EB800107F58E7000EBFD
:10204000C1040120607005F07F002070E660266109
:102050000020A061C4F81480207820B921463846B9
:1020600019F02DFC03E02146384619F0AAFD0020A6
:10207000BDE8F0811CB50446204619F0EBFBE06892
:10208000C0680090204619F04FFF03280BD10020B4
:10209000A0704FF40070A080009820F4705000F5FC
:1020A0001050009009E00120A0704020A08000980E
:1020B00020F4705000F5A05000900098E168C860CE
:1020C00000200190019820F4005000F5005001908C
:1020D0000198E168486101201CBD0000F8B5054683
:1020E00000240020009028461AF0F4F906468FE0FC
:1020F00016F0010F7ED0E1B2284600F0B1FA009050
:102100000098C0F3000030B3012000FA04F72869FA
:10211000406BB8432969486300200090009820F084
:102120000100401C009005F1180050F824000099AF
:1021300081603A480068E1B2426828469047E878F2
:10214000012808D13CB940F21110405D042802D1A9
:10215000284619F05FFC0098C0F3C00060B1002071
:102160000090009820F008000830009005F1180059
:1021700050F82400009981600098C0F3001060B10D
:1021800000200090009820F010001030009005F121
:10219000180050F82400009981600098C0F3801066
:1021A00060B100200090009820F040004030009086
:1021B00005F1180050F82400009981600098C0F3E0
:1021C000400060B100200090009820F00200801CC8
:1021D000009005F1180050F82400009981600098E3
:1021E000C0F3C01030B12146284600F04EFA00205E
:1021F000009000E00AE0009820F08000803000901D
:1022000005F1180050F8240000998160641C7608DC
:10221000002E7FF46DAF0120F8BD00009403002074
:102220007CB5044600250020019020461AF05AF99A
:1022300006466EE016F0010F69D0E9B220461AF0AA
:1022400059F901900198C0F30000C8B30020019033
:10225000019820F00100401C019004F1540050F856
:10226000250001998160E078012817D104F154001C
:1022700050F825000069009005EB850104F55D70BC
:1022800000EBC10080680099C1F31201411A05EB0F
:10229000850204F55D7000EBC20081611F48006893
:1022A000E9B2026820469047E078012808D13DB99C
:1022B00040F21110005D052802D1204619F0AAFB5A
:1022C0000198C0F3400060B100200190019820F017
:1022D0000200801C019004F1540050F8250001997F
:1022E00081600198C0F3C00088B10C480068816823
:1022F0002046884700200190019820F0080008300F
:10230000019004F1540050F82500019981606D1C82
:102310007608002E8ED101207CBD000094030020A1
:102320003EB50446A07A70B1D4F80C010090009834
:1023300020F002000090009820F001000090009929
:10234000D4F80C01016000200190019820F00100F8
:10235000401C0190206940680199884321694860C8
:10236000084800688169204688470020029002984A
:1023700020F0004000F1004002900298E1684861BE
:1023800001203EBD940300207CB50446002001904E
:10239000019820F0100010300190E06880690199E8
:1023A0008843E1688861E068006A00900098C0F3A3
:1023B000030000EB800104F55D7000EBC10500989F
:1023C000C0F3434007282DD2DFE800F02C04051DA0
:1023D0001E2C1F0027E00098C0F30A1090B100984F
:1023E000C0F30A122046E9681AF0AAF8E8680099D2
:1023F000C1F30A110844E860A8690099C1F30A1101
:102400000844A8610FE00EE00DE0082204F2CC5170
:1024100020461AF095F8A8690099C1F30A110844FA
:10242000A86100E000BF00BFE0688069019908432F
:10243000E168886101207CBD38B504460848006821
:10244000C1682046884700200090009820F00800CE
:10245000083000900098E1684861012038BD000014
:10246000940300203EB5044600254FF48970055DB5
:1024700022480068416920468847206980680090AA
:1024800000200290029820F4006000F500600290A5
:102490000298E1684861A07A68B30098C0F3000030
:1024A000012828D140F21510005D012823D1032D09
:1024B00021D100200190019820F00100401C0190E2
:1024C000D4F80C01006801990843D4F80C11086095
:1024D000019820F00200801C0190D4F80C010068E3
:1024E00001990843D4F80C1108600548006840F0D1
:1024F00006000349086001203EBD0000940300204F
:1025000010ED00E030B587B0044600200290069040
:102510000590049003900190029820F00100401C67
:10252000029020694068029988432169486000212F
:10253000204619F0CFFC00250BE0FF2104F1180024
:1025400050F82500816004F1540050F825008160A6
:102550006D1C6078A842F0D84FF0FF31206981618E
:1025600006986FF30F00401C0690069880B200F5A5
:102570008030069006992069C161059820F0080016
:1025800008300590059820F00100401C0590059842
:1025900020F00200801C0590059920694161049893
:1025A00020F00100401C0490049820F0080008303E
:1025B0000490049820F00200801C04900499206983
:1025C0000161206900680390039820F4FE60039085
:1025D000039920690160204619F01CFA002001903F
:1025E000019820F4805000F5805001900198E16836
:1025F000486104480068016920468847012007B007
:1026000030BD00009403002038B50446002000903F
:1026100007480068C16920468847009820F4801068
:1026200000F5801000900098E1684861012038BDF5
:102630009403002038B50446002000900748006845
:10264000016A20468847009820F4001000F5001029
:1026500000900098E1684861012038BD9403002093
:1026600010B50246146923691469D4F834C02CFAF1
:1026700001F404F0010443EAC41302F1180454F80D
:102680002140A46804EA030010BD2DE9F843074681
:102690000E4600250020009006EB860107F58E709F
:1026A00000EBC104D4E90501451AA068A84200D294
:1026B000A568E81C4FEA900807F1180050F82600BA
:1026C000806900901BE0D4E90501451AA068A84282
:1026D00000D2A568E81C4FEA9008ABB2F2B23846C7
:1026E000E1681AF0C9FEE0682844E060A069284467
:1026F000A06107F1180050F826008069009000984A
:1027000080B2404506D9D4E90510884202D26069FA
:102710000028D8D10120BDE8F883000030B1074976
:10272000096841F00101054A116005E003490968A3
:1027300021F00101014A11607047000000000550BE
:1027400030B10749096841F48041054A116005E04C
:102750000349096821F48041014A11607047000073
:10276000000005501CB50121084612F067FB01214D
:10277000582012F043FB0C2200214A4803F030F8A5
:102780000C220121474803F02BF80C220421454874
:1027900003F026F80C220521424803F021F80C2210
:1027A0000821404803F01CF80C2209213D4803F0A1
:1027B00017F80C220A213B4803F012F80C220E21D4
:1027C000384803F00DF80C220F21364803F008F8C2
:1027D0004CF23370009002208DF8040003208DF835
:1027E000050000208DF806008DF8070069462D4889
:1027F00002F0AEFF0C2204212B4802F0F1FF0C2264
:102800000521294802F0ECFF0C220721264802F09E
:10281000E7FF0C220821244802F0E2FF0C220921E4
:10282000214802F0DDFF0C220A211F4802F0D8FFE8
:102830000C220B211C4802F0D3FF0C2211461A482F
:1028400002F0CEFF0C220D21174802F0C9FF0C2226
:102850000E21154802F0C4FF0C220F21124802F08D
:10286000BFFF4FF6B070009069460F4802F070FF4E
:102870000C220D210B4802F0B3FF4FF400500090E2
:102880006946084802F064FF0C220A21074802F05A
:10289000A7FF4FF4806000906946044802F058FF9B
:1028A0001CBD0000000C0240001002400018024055
:1028B00000B597B0062001900220029004200390FA
:1028C00001200490002005900690079004200890B5
:1028D000002009900A9010200B9000200C900D9081
:1028E0000E900F9010904FF4805011900020129095
:1028F0001390149001A81590169008A801F04EFFAF
:102900000121042001F030FF17B000BD10B50749C8
:10291000074800F025F940B10449054800F042F8A5
:10292000FEF770FE01200349087010BD00880010FA
:1029300028640240AC00002010B5002400BF00BF96
:10294000FDF742FC044600BF00BF08480078401C69
:102950000649087000BF00BF2046FDF739FC00BFE4
:1029600000BF13F045FE0DF077F910BD40020020C6
:102970000246094B9A4201D2084801E00648103845
:1029800011F0005F03D0064B0B40C36002E0044B24
:102990000B408360704700001064024000600240FA
:1029A0007D0F7D0F0246094B9A4201D2084801E093
:1029B0000648103811F0005F03D0064B0B40C3608F
:1029C00002E0044B0B40836070470000106402403B
:1029D000006002407D0F7D0F21B1026842F00102CC
:1029E000026003E0026822F001020260704700000A
:1029F000016821F0010101600021016041608160F6
:102A0000C1600161212141614A49884204D13D21CF
:102A1000484A103A91608CE046491831884205D105
:102A20004FF47461434A103A916082E04149303179
:102A3000884205D14FF474113E4A103A916078E013
:102A40003C494831884205D14FF07461394A103A07
:102A500091606EE037496031884204D13649354A89
:102A6000103AD16065E033497831884204D1334966
:102A7000304A103AD1605CE02E499031884204D14E
:102A80002F492C4A103AD16053E02A49A831884294
:102A900005D14FF03D51274A103AD16049E029490C
:102AA000884204D13D21274A083A116041E0254976
:102AB0001831884205D14FF47461224A083A1160F6
:102AC00037E020493031884205D14FF474111D4A56
:102AD000083A11602DE01B494831884205D14FF07A
:102AE0007461184A083A116023E01649603188423F
:102AF00004D11149134A121F11601AE011497831AB
:102B0000884204D10D490F4A121F116011E00D498E
:102B10009031884204D10A490A4A121F116008E024
:102B20000849A831884204D14FF03D51054A121F8F
:102B300011607047106002403D000020400F0020EF
:102B400000003D201064024021B1026842F02002E2
:102B5000026003E0026822F0200202607047000079
:102B600030B50246002000248446124DAA4201D20C
:102B7000114B01E00F4B103B104D294206D01E2592
:102B800005EAD124156805EA040C02E0556905F050
:102B9000800C11F0005F01D05C6800E01C68084DFB
:102BA0002C400C4204D0BCF1000F01D0012000E009
:102BB000002030BD10640240006002403C0F3C0F1A
:102BC0007D0F7D0F10B511F0800F09D022B1436940
:102BD00043F08003436103E0436923F080034361D2
:102BE00080290BD02AB1036801F01E04234303603F
:102BF00004E0036801F01E04A343036010BD00005D
:102C000010B500220268134B1A40CC680B682343AE
:102C10004C6923438C692343CC6923430C6A2343C7
:102C20004C6A23438C6A23434C6B23438C6B2343B2
:102C30001A430260426922F00702D1E90B342343B0
:102C40001A4342610B6943604B6883608B68C360C1
:102C500010BD00003F801CF02DE9F041044688B013
:102C6000006803F0E3F90690468ED0F8885006A875
:102C700003F074FA002D18BF012506F00106206844
:102C80001DF098F8002D18BF00200FD07D4951F895
:102C900020506068002800F0EE80022800F0CE800E
:102CA00005280CD012287DD000F0E8B8002E18BFFF
:102CB0000120EBD1002814BF02200320E6E7D5E96C
:102CC0000123A86A29688DE80F0004F110000FC8DD
:102CD00007F0B0FD5FF0000655F8260006F053FC43
:102CE000A169A86A0A1A216901446069304404F0A4
:102CF00055FBA169A86A0A1A21690144E069801B91
:102D000004F04CFBE169A86A0A1A61690144206970
:102D1000304404F00DFCE169A86A0A1A61690144B3
:102D2000A069801B04F004FC761C022ED4DBA86A88
:102D300002281BDDA86806F026FCE169A86AD4F821
:102D400010C00B1A0CEB00014A1E616901440CF122
:102D5000020004F099FCE169A86AA2690B1A616992
:102D60000144101A401C921E04F08EFCD5E90301A8
:102D7000CDE90001E1696069A26901444B10A96ACB
:102D8000D4F810C0521A8C44811C604604F0FCF93F
:102D9000D5E90501CDE90001A069AB6A6169C21AF4
:102DA000E06900E019E001444FF0010C0CEB610117
:102DB000D4F810C09C44831E604604F0E5F9686AAC
:102DC00006F0E1FBE2696169A369501A181A401C18
:102DD000091D121F04F0ACFB50E0206803F026F937
:102DE0000090B0F88060B0F98280C76C684603F04C
:102DF000B5F9208AB11C0844ADF80800A08A801CEF
:102E0000ADF80A00A08BA18A401A218B891B081AF1
:102E1000C01EADF80C00A08B801EADF80E00022085
:102E200006F046FC384606F0D7FB286A06F0ABFBF6
:102E3000424602A9206A03F08BFE1FE06169E06947
:102E40004FF0FF32401AA0F1080102EB6106411C6D
:102E5000A269801B4410A2EB6107E86906F093FBAE
:102E6000002E0BDBBA19B91B204604F097FA641C3C
:102E7000761EF7D502E020681CF00EFA08B000209C
:102E8000BDE8F08118E30C08044A034911600449C5
:102E90000A6B08631046704764070020280700206B
:102EA0002C07002038B50D46002403F0BFF8009031
:102EB000C06B294603F084F90546684603F04EF9D5
:102EC0001DB1284603F0B2F80446204638BD7047CD
:102ED00000E0401E0028FCD1704710B500F00AF950
:102EE00000F010FB012000F089FD00F039FD10BD5D
:102EF0002F480068006810F0004F13D12C4800687C
:102F0000006810F4807F0DD02948006829490968BD
:102F10004860284800688068401C26490968886025
:102F20000120704722480068006810F0004F1ED151
:102F30001F480068006810F4007F18D01C48006823
:102F4000006810F4807F12D1194800681949096897
:102F50000860002017490968486001201549096880
:102F6000886013480068C068114908601DE0104877
:102F70000068006810F0004F17D10D480068006825
:102F800010F4007F11D10A480068006810F4807FB7
:102F90000BD1084800688068401C064909688860B1
:102FA00003480068C068024908600020B9E70000D3
:102FB0006C0400207004002030B10749896941F099
:102FC0000201054A916105E00349896921F0020186
:102FD000014A9161704700000090024030B58C4674
:102FE00013460021124C206000BF18E000EB411294
:102FF0004FF00044146044F2F4545460C1EBC11427
:1030000004EB44040CEB840494605C1E8C4204D9F1
:1030100000EB41142034D46000E0D060491C994298
:10302000E4D3044CE060044C044D2C6030BD00003F
:103030006C04002000900240D47501207004002030
:1030400030B10749896941F40051054A916105E0B1
:103050000349896921F40051014A916170470000D8
:103060000090024010B58C46134600210F4C2060A2
:1030700000BF15E000EB41124FF480141460C1EB67
:10308000C11404EB44040CEB840494605C1E8C4279
:1030900004D900EB41142034D46000E0D060491C16
:1030A0009942E7D3024C206110BD00006804002063
:1030B0000090024002680A430260704710B5012187
:1030C000480611F0ABFE00214FF0007011F0A6FE93
:1030D00010BD0021014600E0491E0029FCD17047C7
:1030E0000348806940F480100149886170470000FE
:1030F000009002401CB50121C52011F07FFE012186
:10310000880311F0BBFE012014F048FA03208DF86B
:10311000050002208DF8040000208DF806008DF8CF
:1031200007008620009069461E4802F011FB0B2222
:1031300001211C4802F054FB0B220221194802F025
:103140004FFB0B220721174802F04AFB3220009068
:103150006946154802F0FCFA0B220121124802F0E0
:103160003FFB0B220421104802F03AFB0B22052101
:103170000D4802F035FB4FF4D040009069460B48F3
:1031800002F0E6FA0B221146084802F029FB0B2256
:103190000D21064802F024FB0B220E21034802F009
:1031A0001FFB1CBD00000240000802400018024046
:1031B00000200449096811F0010F01D0012000E04E
:1031C00000207047009002400EB5002100EE101A5A
:1031D000009101910291174909680968C1F30D41F5
:1031E000091F00EE101A8DED000A1349096889685D
:1031F000012905D91049096809688968019103E026
:103200000C490968896801910A49D1ED000ACDEDA0
:10321000020A0968C968074A1160DDED000A9DEDE0
:10322000011ADDED021AC0ED000A80ED011AC0EDB1
:10323000021A0EBD6C040020700400202DE9F0433A
:103240002DED028B85B0044688464FF0000900251D
:10325000002008EE100A934E00279348056925F0D8
:103260001C0501A811F02AFE9DED020A10EE106A5D
:103270008E48864205D38E48864202D245F0080524
:103280001AE08B48864205D38648864202D245F032
:103290000C0511E08348864203D38648864200D25B
:1032A0000AE08448864205D38348864202D245F02C
:1032B000040501E045F010057B4805614FF400422C
:1032C0000021404600F09AFA28B9002005B0BDEC74
:1032D000028BBDE8F0837948FFF7FBFE20680028E9
:1032E00044D000BF7F1C0121404600F0E3F910F0FC
:1032F000040F02D172488742F4D37148874201D14A
:103300000020E3E700274FF480520021404600F000
:1033100075FA08B90020D9E700BF7F1C012140469B
:1033200000F0C8F910F0200F02D165488742F4D3AD
:103330006348874201D10020C8E70027102140469A
:1033400000F0B8F9814619F0040F03D04FF4006083
:10335000206201E00020206219F0020F02D000205C
:10336000606116E04FF48040606112E0206AC0F3B3
:10337000CF006169C1F34F0140EA010200214046DC
:1033800000F03CFA08B90020A0E76FF07F40FFF79B
:10339000A0FE454805684B480540D4E901010843B3
:1033A000E16808432169084361690843A16908434A
:1033B000E1690843216A0843616A0843A16A084336
:1033C000E16A0843216B0843616B084305433648B3
:1033D0000560D4E90E010843216C0843616C084381
:1033E000A16C0843E16C0843216D0843616D0843FB
:1033F0002D494860A06D8860E06DC8600846856909
:103400004FF641700540D4E9181040EA0140A16E22
:103410000843E16E0843216F0843616F0843054389
:1034200021488561D4E91E0108431F49C861264827
:10343000856926480540D4E920010843D4F888105E
:103440000843D4F88C100843D4F890100843D4F8FB
:1034500094100843D4F898100843D4F89C100843FB
:10346000D4F8A0100843054317488561D4E9290121
:103470000843D4F8AC100843D4F8B0100843D4F88B
:10348000B41040EA8100D4F8B810084340F40000BA
:103490000D4908600846006840F08000086001207F
:1034A00014E700000087930300800240002D3101E3
:1034B000C00E160200E1F50580D1F008FFFF0F00F5
:1034C000FF0F02000F8120FF00900240233FDEF833
:1034D00010B50B794C7943EA0422094B03441A6472
:1034E000CB781B068C7843EA04434C7843EA0423E8
:1034F0000C7843EA0402024B03445A6410BD0000F6
:103500000080024000B5AFB001214FF0606011F0C3
:1035100075FCFFF7D3FD00F0FDF800BFFFF748FE94
:103520000128FBD0684600F00FF901200090002030
:1035300007904FF400700A9000200B900E901190AD
:1035400013901490159020904FF00070219000116E
:10355000239000202590269004202890C0052990D3
:1035600040122A9080012B9040122C9040002E9007
:1035700001216846FFF762FE014908602FB000BDD7
:103580006C05002030B10749096841F00401054A83
:10359000116005E00349096821F00401014A116046
:1035A000704700000080024030B10749096841F0CF
:1035B0000801054A116005E00349096821F0080186
:1035C000014A1160704700000080024030B5024699
:1035D00000239C46002435480068006810F0004F26
:1035E00001D0002030BD3148016840F2F4508242E1
:1035F00008DD92FBF0F392FBF0F500FB152010B113
:103600005B1C00E00123012B1AD1284800680068E8
:1036100040F04050254D2D682860C2F30C00234D2A
:103620002D68686021480068006840F000401F4D28
:103630002D6828601D480068C0681C4D286028E07F
:10364000002422E03CB919480068006840F080502E
:10365000164D2D68286040F2F4504860581EA04274
:103660000DD1086840F000500860581EC0EBC01033
:1036700000EB4000A2EB800CCCF30C004860086823
:1036800040F000400860C968641C9C42DAD30748D7
:1036900001600748406910F0040F04D00420044D75
:1036A00068610020686001209CE700006804002039
:1036B0000090024003468C46002100221348016915
:1036C00001F01C014FF4784000EAC32001434FF49D
:1036D000F86000EA8C10014321F0020141F0010181
:1036E0000A48016100BF521C0848016911F0010F2E
:1036F00002D007488242F6D30548824201D1002019
:1037000070470248406980B2FAE70000008002403A
:10371000FF0F02000348006840F001000149086003
:10372000704700000090024000B50120FFF73CFF09
:10373000FFF7D6FC0120FFF725FF0120FFF780FCF3
:103740000120FFF739FC00BD01210160002141602B
:103750008160C16001614FF480414161002181615C
:10376000C1614FF400610162002141628162C16266
:10377000016341638163C16340210164202141648D
:1037800000218164C164016541658165C16501668F
:103790008021416600218166C166016741678167BA
:1037A000C1674FF08061C0F880104910C0F88410E4
:1037B0000021C0F888104FF40011C0F88C100021CF
:1037C000C0F89010C0F89410C0F89810C0F89C1081
:1037D000C0F8A0104FF00071C0F8A4104912C0F852
:1037E000A8108901C0F8AC104912C0F8B01000212F
:1037F000C0F8B410C0F8B8107047000010B5034608
:103800008C461446002100221248016901F01C0177
:103810004FF4784000EAC32001434FF4F86000EA17
:103820008C10014341F0020141F00101094844615B
:10383000016100BF521C0748016911F0010F02D05D
:1038400005488242F6D30448824201D1002010BDCF
:103850000120FCE700800240FF0F020010B50024A9
:1038600000BF00BFFCF7B0FC044600BF00BF0D481E
:103870000078401C0B49087000BF00BF2046FCF7D1
:10388000A7FC00BF00BF4FF4804000F013F830B138
:10389000012000F0A1F84FF4804000F005F80CF092
:1038A000DBF910BD400200200149086070470000AC
:1038B000143C014001460020034A12680A4201D02C
:1038C000012000E000207047143C01400021234902
:1038D0008279002A3AD00A46126803689A430B4656
:1038E0001A600A1D126803689A430B1D1A60027958
:1038F00011440A6803681A430A60184A08321268B9
:1039000003689A43154B08331A601A1D126803683E
:103910009A43124B0C331A604279102A0ED11A1FA7
:10392000126803681A430D4B08331A601A1D126897
:1039300003681A43094B0C331A600DE007494279BA
:1039400011440A6803681A430A6005E002791144C9
:103950000A6803689A430A6070470000003C01400F
:1039600000B585B00121022011F048FA0121880339
:1039700011F084FA00208DF810008DF813004FF438
:103980008040039003A9134801F0E2FE0E210120BC
:1039900013F00AFE4FF48040019000208DF80800DB
:1039A0000C208DF8090001208DF80A0001A8FFF70E
:1039B0008DFF28208DF8000000208DF801008DF883
:1039C000020001208DF8030068460CF02BF805B0CA
:1039D00000BD00000004024010B50446122120463C
:1039E000FFF768FE10F4005F04D003480078C0437E
:1039F0000149087010BD00007005002070B5054633
:103A0000002411212846FFF755FE044644F0030424
:103A1000224611212846FFF7F1FE08B9002070BDAB
:103A200012212846FFF746FE044644F020042246B1
:103A300012212846FFF7E2FE08B90020EFE7012037
:103A4000EDE700002DE9F041044698B0006800F071
:103A5000BDF9002814BFDB4DDB4D6068152802BF9F
:103A6000A86A18B0BDE8F08112DC0B282AD007DC68
:103A7000002800F09281052800F02C8100F09DB90B
:103A80000E2800F07781122800F03B8100F095B9F4
:103A9000162802BFE86918B0BDE8F081172802BFF8
:103AA000286A18B0BDE8F081182802BF686A18B00B
:103AB000BDE8F0811C2802BF686918B0BDE8F0813C
:103AC00000F07BB920680E901C200F90206802F057
:103AD000ADFA0390016D0EA88847064603A802F0D0
:103AE0003DFB022E11DBD5E90001AA680292CDE967
:103AF0000001D4E904023346A16906F099FD20696A
:103B00008719A069A0EB06082CE0286805F03BFDAA
:103B10002169E8690844421E606903F03FFCA2691C
:103B2000E869101A411C606903F038FC6069471CA1
:103B30003946206903F08CFC3946A06903F088FC03
:103B4000686805F020FD20693946401C03F080FCC0
:103B5000A0693946401E03F07BFC2069871CA069E0
:103B6000A0F10208286805F00EFD4246394660695A
:103B700003F014FC686805F006FD606942463946AA
:103B8000401C03F00BFC686A02287DDDA86805F084
:103B9000FAFC60696A6A811C1044431E424638463A
:103BA00003F072FD6069022EACBF0644861CE0691A
:103BB000471E286805F0E7FC3A463146206903F0C5
:103BC000B7FC3A463146A06903F0B2FCE069871EB3
:103BD000686805F0D8FC20693A463146401C03F07D
:103BE000A7FCA0693A463146401E03F0A1FCE869F3
:103BF0000228DCBF286A022820DDA86A0228C7BF85
:103C0000E1690F1AE069871EA86805F0BCFCE96944
:103C1000022907DD22693B46901C11444A1E3146A9
:103C200003F032FD286A022808DDA169E8698A1ECE
:103C3000081A3B463146401C03F026FD286805F073
:103C4000A2FCD4E90620216903F0A8FB686805F00E
:103C50009AFCA069421E2069411CE069401E03F0E5
:103C60009DFBA86A02284BDD21698E1CA1698F1E6D
:103C7000E169081A441CA1F10208A86805F083FC58
:103C800043463A46214600E003E0304603F0FCFCA0
:103C900093E0296AB14285DD6069022E00F10208D5
:103CA000ACBF871947462069ACBF3044801C2269ED
:103CB0003B461144A1F10102414603F0E5FCA06935
:103CC000022EACBF821B821EE9693B46401A414668
:103CD000401C65E7208A00B2ADF81800A18A09B23D
:103CE000ADF81A10228B12B2ADF81C20A38B1BB2B8
:103CF000ADF81E30D5E9034CCDE9004C03F044FA91
:103D00005BE0208A298B0844ADF81800A08AADF842
:103D10001A00208B298B401AADF81C00A08BADF83F
:103D20001E00206802F082F90390006FF0B10220BB
:103D300005F0BEFC039991F87C00C0F3C00001EBD4
:103D40008000006C05F01FFC0398406B05F044FCFC
:103D50000398006F02F06AF903990A90B1F95A20AA
:103D600006A902F0F5FE0AA802F0F8F903A802F08D
:103D7000F5F922E0208AADF81800A08AADF81A0003
:103D8000208BADF81C00A08BADF81E00A86805F0D4
:103D9000FAFB06A803F0A4FC0FE0206802F046F945
:103DA0000390B0F85A1041F00C01A0F85A1003A883
:103DB00002F0D4F920681BF06FFA18B00020BDE8BB
:103DC000F0810000640800209008002038B505004C
:103DD0004FF0000410D003F065FE284602F026F9EB
:103DE000009090F87C0010F0080F18BF012468467E
:103DF00002F0B4F905F040FF204638BD064A0549F7
:103E0000074B1160054AD16958601B68C2E906304A
:103E10000846704758080020240800202808002081
:103E20005008002010B50146002091F8322012F011
:103E3000200F08BF10BDB1F95400002818BF10BDF5
:103E4000486B03F089FD801C10BD70B58AB00E462A
:103E5000044602F0EBF80990C06D856809A802F0ED
:103E60007DF90094002E08BF18200BD0012E08BF4A
:103E7000162007D0022E08BF152003D0032E08BF3E
:103E8000172000D101906968684688470AB070BD64
:103E90002DE9F04383B017468846814602F0C6F804
:103EA0000090C16D056868468C6802F057F9226879
:103EB000002148469047064648461AF03BFA04005F
:103EC00004BF03B0BDE8F08302F0B0F80190B0F990
:103ED00000102AB2B0F90430891A9A1AB0F90230E7
:103EE000A3EB2543B34211D190F8280010F0800FC6
:103EF00005D038688842A4BF481E386006E0D8F86C
:103F000000009042DCBF501CC8F8000001A802F07D
:103F100025F920461AF04BFA0400D5D103B0BDE8CC
:103F2000F083000099B1102808D14FF02042126EA2
:103F300042F004024FF020431A661CE00E4A126859
:103F400042F004024FF02043C3F8802013E0102811
:103F500008D14FF02042126E084B1A404FF0204318
:103F60001A6608E0044A1268044B02EA03024FF0A2
:103F70002043C3F880207047800000A0FBFF0F00A3
:103F800030B50021002200230468102C03D14FF02B
:103F90002044216E01E0304C2168304C01EA0401DC
:103FA000446844F00804856844EA0504C56844EAA6
:103FB0000504056944EA0504456944EA4524856920
:103FC00044EA453444EA01010468102C03D14FF05F
:103FD0002044A26E01E0224C22684FF00002C46926
:103FE0002468C5696D6844EA0524C569AD6844EA7A
:103FF0000544C569ED6844EA056444EA02020468C0
:10400000102C03D14FF02044E36E02E04FF0204427
:10401000E36E0023046A2468056A6D6844EA052497
:10402000056AAD6844EA0544056AED6844EA05643A
:1040300023430468102C05D14FF020442166A2666A
:10404000E36607E0044C21604FF02044C4F8882068
:10405000044C236030BD0000800000A08101F0FF0F
:10406000880000A08C0000A02DE9F04107460D4615
:104070001646984600201549087015490E703012F2
:1040800008700D70280A087030201049087000244C
:1040900001E0601C84B2142CFBDB00BF40210D4802
:1040A00001F0C1FB0028F9D000240AE0385D4FF090
:1040B000E0410978884202D00120BDE8F081601C0F
:1040C00084B24445F2DB0020F7E7000000000170F5
:1040D000000002700018024010B504466020064936
:1040E0000870A40105490C70200A0870D02002490C
:1040F000087000F005F810BD0000017000000270AB
:1041000070B54FF48034402500F01EFA054603E0F8
:1041100000F01AFA0546641E402D01D0002CF7D19C
:1041200004B98025284670BD00B58FB00121582004
:1041300010F064FE0121084610F080FE0C220021E0
:104140004A4801F04DFB0C220121484801F048FB90
:104150000C220421454801F043FB0C220521434871
:1041600001F03EFB0C220721404801F039FB0C22F4
:104170000B213E4801F034FB0C2211463B4801F074
:104180002FFB0C220E21394801F02AFB0C220F21B3
:10419000364801F025FB4DF6B3000D9002208DF856
:1041A000380003208DF8390000208DF83A008DF892
:1041B0003B000DA92D4801F0CBFA0C2207212C4819
:1041C00001F00EFB0C220821294801F009FB0C220A
:1041D0000921274801F004FB0C220A21244801F0A0
:1041E000FFFA4FF4F0600D9002208DF838000320A4
:1041F0008DF8390000208DF83A008DF83B000DA9AC
:104200001B4801F0A5FA40200D9000208DF83800E1
:1042100003208DF8390001208DF83A008DF83B001D
:104220000DA9144801F094FA022000900520019095
:10423000032002900120039010200490002005909C
:104240000690402007904FF4C0200890012009906C
:104250000A90CDF82CD0CDF830D004A8FFF790FE0E
:1042600001211020FFF75EFE0FB000BD000C0240E0
:10427000001002400018024070B504460D4604F0DC
:10428000400005F04001884206D02A4621461CA085
:1042900022F0AEF9012070BD0020264908702649A1
:1042A000087008700C70200A0870352021490870C9
:1042B000002601E0701CC6B2142EFBDB00BF4021BB
:1042C0001E4801F0B0FA0028F9D08520194908707D
:1042D00000201949087008700D70280A0870102015
:1042E00014490870FFF70CFF402801D10020D2E7E5
:1042F0002A46214612A022F07BF90120CBE70000DC
:104300004572726F72203A2046534D435F4E414EC4
:10431000445F50616765436F70794261636B4578B4
:10432000287372633D25642C207461723D256429D5
:10433000200D0A0000000170000002700018024009
:104340004572726F723A2046534D435F4E414E4460
:104350005F50616765436F70794261636B282564C4
:104360002C202564290D0A002DE9F84305460E4648
:1043700091461F46DDF8208005F0400006F0400120
:10438000884207D032462946274822F031F90120D9
:10439000BDE8F88300202549087025490870087099
:1043A0000D70280A0870352020490870002401E0AB
:1043B000601C84B2142CFBDB00BF40211D4801F0BF
:1043C00032FA0028F9D085201849087000201849D1
:1043D000087008700E70300A087085201349087044
:1043E00013490F7038120870002406E019F8040011
:1043F0004FF0E0410870601C84B24445F6DB1020A9
:104400000A490870FFF77CFE402801D10020BFE771
:104410003B463246294604484430CDF8008022F01D
:10442000E7F80120B4E700004C3E030800000170EB
:1044300000000270001802402DE9F04105460E46CA
:1044400017461C46B4F5006F06DD214606A022F093
:10445000CFF80120BDE8F08123463A463146284690
:1044600000F014F8F6E700004572726F723A2046C9
:10447000534D435F4E414E445F52656164446174E5
:104480006128292025640D0A000000002DE9F04173
:1044900007460D46164698460020134908701349F2
:1044A0000E70301208700D70280A087030200E4906
:1044B0000870002401E0601C84B2142CFBDB00BFF8
:1044C00040210B4801F0AFF90028F9D0002405E0A5
:1044D0004FF0E04000783855601C84B24445F7DB6B
:1044E0000020BDE8F08100000000017000000270B3
:1044F000001802402DE9F04106460F4615461C46BD
:10450000402C06DD214607A022F072F80120BDE80C
:10451000F08105F5006082B2234639463046FFF748
:10452000B5FFF4E74572726F723A2046534D435F10
:104530004E414E445F526561645370617265282933
:104540002025640D0A00000000207022084B1A701C
:104550001206117801F00102012A01D1012006E0C2
:1045600001F04002402A01D1402000E000207047C5
:104570000000017010B5FF2004490870FFF7C0FD6E
:10458000402801D1002010BD0120FCE7000001708F
:104590002DE9F04105460E4617461C46B4F5006F5E
:1045A00006DD214606A022F023F80120BDE8F081B7
:1045B00023463A463146284600F014F8F6E7000054
:1045C0004572726F723A2046534D435F4E414E44DE
:1045D0005F57726974654461746128292025640DF0
:1045E0000A0000002DE9F04105460E4617469846A0
:1045F00080202649087026490F70381208700E7006
:10460000300A0870002401E0601C84B2142CFBDB2B
:10461000002405E0285D4FF0E0410870601C84B282
:104620004445F7DB102019490870002401E0601CA4
:1046300084B2142CFBDB00BF4021164801F0F3F8D4
:104640000028F9D0FFF75CFD402816D143463A46D2
:1046500031461148FFF71AFF424629460E48FBF73C
:104660007EFE40B143463A4631460CA021F0C0FFE1
:104670000120BDE8F0810020FBE743463A46314681
:1046800015A021F0B5FF0120F3E700000000017044
:104690000000027000180240621600204572726F1E
:1046A00072313A2046534D435F4E414E445F57723C
:1046B0006974655061676528706167653D25642C84
:1046C00020616464723D25642C20636F756E743DB7
:1046D0002564290D0A0000004572726F72323A207B
:1046E00046534D435F4E414E445F57726974655067
:1046F00061676528706167653D25642C206164648D
:10470000723D25642C20636F756E743D2564290D00
:104710000A0000002DE9F04106460F4615461C46EA
:10472000402C06DD214607A021F062FF0120BDE8F4
:10473000F08105F5006082B2234639463046FFF726
:1047400051FFF4E74572726F723A2046534D435F52
:104750004E414E445F5772697465537061726528AB
:10476000292025640D0A000051B14FF0204252F873
:10477000202042F001024FF0204343F8202009E0BE
:104780004FF0204252F82020034B1A404FF02043B4
:1047900043F8202070470000FEFF0F0070B5002195
:1047A000002200234FF02045046855F82410434CA4
:1047B0002140D0E901452C43C5682C4305692C43B1
:1047C00045692C4385692C43C5692C43056A2C43F4
:1047D000456A2C43856A2C43C56A2C43056B2C43E0
:1047E00021434FF02045046845F824108468082CC4
:1047F00009D1046855F8244044F040044FF02046A5
:10480000056846F825400468641C4FF0204555F8BB
:10481000242002F04042446B2468456B6D6844EAF2
:104820000514456BAD6844EA0524456BED6844EA20
:104830000544456B2D6944EA0554456B6D6944EAAE
:104840000564456BAD692C4322430468641C4FF03A
:10485000204545F82420C46AB4F5804F24D104686B
:1048600005EB8404D4F8043103F04043846B2468DE
:10487000856B6D6844EA0514856BAD6844EA0524D0
:10488000856B2D6944EA0554856B6D6944EA0564BE
:10489000856BAD692C4323434FF02045046805EB3D
:1048A0008404C4F8043108E06FF070444FF02046EF
:1048B000056806EB8505C5F8044170BD8000F7FF6B
:1048C0001CB50121080210F099FA00208DF80400AF
:1048D0008DF806008DF8070002208DF805000820ED
:1048E00000906946044800F033FF002003498870B7
:1048F000012048701CBD0000002002401E31002035
:10490000FEB56048407800B9FEBD00F0C1F800B9BE
:10491000FAE701226946022000F0D6F89DF800006F
:1049200010F0070F0CD158480078012807D100205B
:104930005549087055490872084604F063FAE3E7E0
:1049400009226946002000F0BFF8002447E004EB8C
:1049500044014900491D1DF8011008110F2800DB12
:104960003FE004EB44014900091D1DF8012004EB60
:1049700044014900C91C1DF8011001F00F0142EA71
:1049800001224049091D21F8142004EB440149008B
:10499000891D1DF8012004EB44014900491D1DF843
:1049A000011001F00F0142EA01223649891D21F868
:1049B000142004EB44014900C91C1DF801108A11A0
:1049C000304909310A5504EB44014900491D1DF8DD
:1049D00001100A112B4908310A55601CC4B2012C80
:1049E000B5DB00BF27480078552803D0254800785C
:1049F000A3280DD12348C5888688B5F5F07F01DB53
:104A000040F2DF15B6F5887F21DB40F20F161EE07D
:104A10001C4800780A280DD11A488588C688B5F543
:104A2000487F01DB40F21F35B6F5F07F0FDB40F227
:104A3000DF160CE013488588C688B5F5487F01DB92
:104A400040F21F35B6F5F07F01DB40F2DF160E486D
:104A5000007860B901200C4908700C480560466078
:104A600001200A490872084604F0CCF908E007481A
:104A700005604660012005490872084604F0C2F945
:104A800000BF41E71E310020960100209830002031
:104A90000448006910F0080F01D101207047002080
:104AA000FCE700000020024008B501226946A3206F
:104AB00000F00AF89DF80000024908709DF8000017
:104AC00008BD00001E3100202DE9F04106460D46CC
:104AD000174628F0F3FA702028F0C8FA28F018FBDF
:104AE000F0B228F0C3FA28F013FB28F0E7FA71209F
:104AF00028F0BCFA28F00CFB002406E028F094FA19
:104B0000285528F041FA601CC4B2781EA042F5DC9A
:104B100028F08AFA285528F073FA28F0E7FABDE859
:104B2000F081000002488078401C0149887070477D
:104B30001E31002008B51548154B164A002100907B
:104B4000154815F019FA002214A1154826F0CCF8E2
:104B5000144908700846007800B108BD002212A16F
:104B6000124826F0C1F80F4908700846007800B1D5
:104B7000F3E700220EA10F4826F0B6F809490870A5
:104B80000846007800B1E8E700BFE6E71C03002014
:104B9000E4020020E8290120581F0120313A2F00AB
:104BA00088040120D4010020323A2F00E4060120BD
:104BB000303A2F002C0201202DE9FC4107460D461A
:104BC0000026002400200090019008205A49086027
:104BD00010204860402088600020C8604FF480604A
:104BE0000861084611F03AF81020FDF71FF8044656
:104BF00014B12046BDE8FC815048006800044E49CD
:104C0000086037204860402088600020C8604FF46A
:104C100080600861084611F021F83720FDF706F89A
:104C200004460CB12046E5E74FF0FF3044490860E8
:104C300008204860302088600220C8600020086199
:104C400001204861084610F04DFF00203A490860F5
:104C500033204860402088600020C8604FF48060A6
:104C60000861084610F0FAFF3320FCF7DFFF044626
:104C70000CB12046BEE709E04FF4001010F05EFFD3
:104C800020B110F0E5FF4DF82600761C2D48006895
:104C900040F22A610842EFD0082010F04FFF28B1FF
:104CA000082010F007FF04242046A3E7022010F09C
:104CB00045FF28B1022010F0FDFE0224204699E7AE
:104CC000202010F03BFF28B1202010F0F3FE062436
:104CD00020468FE74FF4007010F030FF30B14FF4F2
:104CE000007010F0E7FE0724204683E740F2FF50F3
:104CF00010F0E0FE00980006009901F47F4140EAC0
:104D00000120009901F47F0140EA1120009940EA56
:104D10001160686001980006019901F47F4140EA42
:104D20000120019901F47F0140EA1120019940EA34
:104D30001160286020465DE7481F0020B400002075
:104D40005C1F0020342C014070B5154C05460A2824
:104D500013D00D2D08BF70BD02F0A4FE2068C069FD
:104D60000168284688470F48016800291CBF28466B
:104D70008847BDE8704004F07FBF02F093FE02F068
:104D800091FE2068C069457E04F076FF2068818C22
:104D900029448184018C4184BDE8704004F06CBFDB
:104DA00088050020B40500202DE9F84F0F46DDF8F6
:104DB00028900646941BA3EB0708D9F800504FF043
:104DC000000A54EA080063D0002CD4BF6042204699
:104DD000B8F1000FCCBF4146C8F1000188420ADAA1
:104DE00020464446804630463E46074610461A4610
:104DF00003464FF0010A002CCCBF20466042A0427F
:104E000008BF012008D03046164602466442C8F169
:104E100000081F464FF0FF300090C448C449B8F165
:104E2000000FD0F800C01CBF04EBD4724FEA620B35
:104E3000B8BFCBF1000B30D09CF81A20002A00F04C
:104E4000FA80009A002ABCBF2A19C9F80020002560
:104E5000002CC0F2458100BF08FB05B090FBF4F0C8
:104E6000C219D9F8001000980844B049C9F80000E8
:104E700009688B7E012B00F00081022B00F0078176
:104E8000032B00F00D81042B00F03A8100F019B9DA
:104E90003046BDE8F84F00F08DBABAF1000F62D08D
:104EA0009CF81AC0BCF1000F14D04FF00008002C81
:104EB000A4BF8A46834640DBDBF8001028466D1C01
:104EC0008A7E012A0CD0022A14D0032A1BD0042A7D
:104ED00035D027E031463846BDE8F84F08F0B0BA83
:104EE000801DC21700EB127222F00F02801A0C28EC
:104EF0001FDB17E0C21700EB927222F00302801A48
:104F0000022816DB0EE08AFB0032D310A3EBE2721C
:104F1000524202EB820200EB82000C2809DB1038BF
:104F2000022806D3496E06EB08004A680146384657
:104F3000904708F10108A045BEDD681EDCE07D4A0F
:104F400082FB00329310A3EBE272A2EB820200EB31
:104F5000C2000C28EDDBA0F11002022A24BF143895
:104F60000228E6D3DEE79CF81A80B8F1000F14D0CF
:104F70004FF00008002CA4BF8A46834642DBDBF8D2
:104F8000001028466D1C8A7E012A0FD0022A17D0F5
:104F9000032A1ED0042A3AD02AE0DCF864003946FD
:104FA000036801B03046BDE8F04F1847801DC217B6
:104FB00000EB127222F00F02801A0C281EDB17E0A1
:104FC000C21700EB927222F00302801A022815DB4E
:104FD0000EE08AFB0032D310A3EBE272524202EBE6
:104FE000820200EB82000C2808DB1038022805D36F
:104FF000496E06EB08004A683946904708F10108F7
:10500000A045BCDD681EC9F80000BDE8F88F494A1C
:1050100082FB00329310A3EBE272A2EB820200EB60
:10502000C2000C28EADBA0F11002022A24BF1438C7
:105030000228E3D3DCE70025002CACBF8146BDE8A5
:10504000F88F00BF08FB05B090FBF4F03844BAF1CC
:10505000000F0AD0D9F800207119526E526890479B
:105060006D1CA542EEDDBDE8F88FD9F8001073196C
:10507000496E4A6801461846F1E7801DC31700EBE8
:10508000137323F00F03C01A0C2825DB19E0C31794
:1050900000EB937323F00303C01A02281CDB10E01B
:1050A000234B83FB00C34FEAE30CACEBE3735B429F
:1050B00003EB830300EB83000C280DDB1038022880
:1050C0000AD3496EBAF1000F06EB05004B680EBF1C
:1050D00011460146104698476D1CA5427FF7BCAEAD
:1050E0000098002804DAD9F800002044C9F800002C
:1050F000D9F800100098081AC9F80000BDE8F88F28
:105100000C4B83FB00C34FEAA30CACEBE373A3EBA4
:10511000830300EBC3000C28DEDBA0F11003022B9D
:1051200024BF14380228D7D3CBE70000880500201D
:1051300067666666ABAAAA2A2DE9F047DFF868928F
:10514000804684B0D9F800000F460C99007E1D46B9
:105150001646012800F0CE80A8EB060C7C1B5CEA0A
:10516000040104BF04B0BDE8F087421E0021BCF179
:10517000000FBCBF0121CCF1000C002CBCBF41F0E2
:1051800002016442644504DD20466446844641F0E1
:105190000401A0020CEBDC7300EB630090FBFCF05D
:1051A0008010824C4FEA201C00F00F0034F81C30B5
:1051B000C0F1100013FB00F3102807D004EB4C0CD7
:1051C000C0F11000BCF802C01CFB003303F1080062
:1051D000C31700EB1370001111F0040F18BFC0F5D6
:1051E000806011F0010F18BFC0F5006011F0020FD0
:1051F00018BFC0F5805000F5806100F50060C0F375
:105200000B004FF0000AB0F5006FC4BF4FF0010A69
:10521000A0F50060B0F5806FC8BFC0F500604FEA30
:10522000A01C634B00F03F00C0F1400033F81C406D
:105230004443402818BFBCF1100F07DA03EB4C0CB5
:10524000C0F14000BCF802C00CFB004404F1200097
:105250008009BAF1000F18BF404200FB02FC002495
:10526000C1F30B00B0F5006FC4BF0124A0F50060CE
:10527000B0F5806FC8BFC0F50060811100F03F003D
:10528000C0F1400033F811A040280AFB00FA18BF13
:10529000102906DA03EB4101C0F14000498801FB07
:1052A00000AA0AF120008009002C18BF404200FB30
:1052B00002F1BCF1000FB4BFCCF500700CF500702A
:1052C0004FEAA020B8BF40420029BDBFC1F5007120
:1052D0008912C1F1000C01F50071A8BF4FEAA12CA1
:1052E00000280FDD411C01EBD171491000EBD0709B
:1052F00042100EE0009139464046FFF755FD04B0DC
:10530000BDE8F08700EBD071401E491000EBD07073
:105310004210BCF1000FC6BF0CF1010000EBD070D1
:105320000CEBDC704FEA6000CEBF0CEBDC73ACF131
:10533000010303EBD3735B1008EB010CADF800C065
:1053400007EB000CADF802C0A8EB020CB21AADF8E6
:1053500004C0ADF808203144A7EB030CEA1AADF8FD
:105360000C102844ADF80A20ADF80E000023ADF86B
:1053700006C01A460421684600F08EF8D9F80020CD
:1053800040463946527E002A08BF00F013F83046E6
:10539000D9F800202946527E002A08BF00F00AF8FA
:1053A00004B0BDE8F08700008805002016E60C0870
:1053B000F4E50C08064A13681A7E012A05D0521E2D
:1053C00002EBD272521000F005B85A6E52681047C4
:1053D000880500202DE9F84F06460F4640F2C3200D
:1053E00050434FF47A7190FBF1F000F1010A02FB97
:1053F00002F002EBD271DFF89C8000EB61000090BC
:10540000D8F8001014463244496E301B0B683946F8
:1054100098470125BAF1010FB8BFBDE8F88F00BF6A
:1054200005FB05F004FB0400009988421ADD544591
:1054300017DDD8F8003006EB050BA6EB05095B6E0F
:10544000ABF1010239191B6809F101009847D8F83E
:105450000030ABF10102391B5B6E09F101001B68E2
:105460009847641ED8F80030321979195B6E301BEA
:1054700093461B6881469847D8F800305A46791BF6
:105480005B6E48461B6898476D1CAA45C8DABDE8A4
:10549000F88F0000880500202DE9FF4F83B00746F4
:1054A00043F6FF74C4F1000090460E1E0090C4BF86
:1054B000B91C32460DDD00BFB1F90000A042D8BFD3
:1054C0000446009B9842D8BF1846091D0090521E02
:1054D000F2D18C490868406978B1B0F90630069A73
:1054E0009B1A009A9342C0F2018100BFB0F90230CA
:1054F000069A9A1AA24200F3FF8000988442D2BF13
:10550000A6F1010907B0BDE8F08F00207E490546ED
:10551000002E0860C4BF069804EB000A7EDD4D45EE
:10552000B4BF05F1010C4FF0000C07EB850207EB4F
:105530008C01B2F90200B1F90230A04253D1A3426A
:1055400013D137F92C2037F9250002EB08036D4AF7
:105550004044514612689842526ED2F800C0B2BF21
:105560001A4602461846E04783E000222946B9F170
:10557000000F0CDD002914BF491E711E07EB8100CE
:10558000B0F90200A04203D1521C4A45F2DB20468A
:10559000A0426ED0001B37F925101A1B90EA020FAB
:1055A00009D4584A01EB080051461268526E13683C
:1055B000024698475DE0DFF850B1DBF800C0BCF16F
:1055C0000C0F56DA5FEA0C0018BF504A4AD000BFF1
:1055D00002EB400333F9023C8B4243DB22F81030EC
:1055E000401EF5D13EE0A34243D0A8BF844203DA77
:1055F000A042A8BF9C423CDB98424DDC8446A042BE
:10560000DFBF18468442B2F90030B1F9001030DC37
:10561000CA1AA4EB0C015143002900E02DE0A0EBD5
:105620000C02CEBF01EB6201A1EB6201491CA0EBB1
:105630000C0091FBF0F0DFF8D0B0C118DBF800C02F
:10564000BCF10C0F15DA5FEA0C0018BF2F4A09D025
:1056500002EB400333F9023C8B4203DB22F81030AB
:10566000401EF5D1294A22F810100CF10100CBF8A8
:1056700000006D1CB542FFF652AF06982249204447
:10568000019008684FF0000B5D460028C4BF1F481A
:10569000B0F900A022DD19E09C46A342DEBF84429F
:1056A000B1F90030B2F90010B2DDE2E71748BBF102
:1056B000000F30F915A009D008EB0100114908EBE3
:1056C0000A020968496E0B68019998470E486D1CDB
:1056D0008BF0010B00685146A842E7DC0098641C7F
:1056E00084427FF712AF07B0BDE8F08FB0F9063003
:1056F000069A9A1A0092F9E6B0F902200698141A4E
:10570000FBE6000088050020F80C002074D0012082
:1057100010B5002003F02CFF6FF07F4003F033FF43
:10572000012003F0A7FF002003F0B2FF002003F0E8
:10573000BFFF002003F044FF0448006803F04CFF63
:10574000BDE81040002003F067BF00008405002082
:1057500070B50A46002100238C4600BF3DE00124BD
:1057600004FA01F3146804EA030C9C4534D104687C
:105770004E000325B540AC43046014794D00AC40A5
:1057800005682C4304601479012C02D01479022C92
:1057900016D184684E000325B540AC43846054792B
:1057A0004D00AC4085682C438460446801258D40E1
:1057B000AC434460446895798D40ADB22C4344605D
:1057C000C4684E000325B540AC43C460D4794D0095
:1057D000AC40C5682C43C460491C1029BFD370BDC0
:1057E00070B500239C464C07E40E02FA04F3CD107A
:1057F00000F1200454F825404D07EE0E0F25B5406A
:10580000AC43CE1000F1200545F82640CD1000F144
:10581000200454F8254044EA030CCD1000F1200484
:1058200044F825C070BD0246002013690B4201D028
:10583000012000E0002070470AB1018300E04183AD
:105840007047000010B50020054948706A220549DC
:1058500040F2A26000F0A2F801200149087010BDDA
:10586000FC300020240100207CB50122694640F272
:10587000217000F059F89DF8000010F0010F0CD1D4
:1058800026480078012807D10020244908702449BF
:105890000872084603F0B6FA7CBD05220DF101013D
:1058A00040F2227000F040F89DF800001D49887019
:1058B0009DF80100C8709DF803009DF8021000EBF0
:1058C0000120184988809DF805009DF8041000EB20
:1058D00001201449C8800846C488808840F2DF113E
:1058E000081A85B20D48007860B901200B4908708C
:1058F0000B4804604560012009490872084603F01E
:1059000081FA08E0064804604560012004490872F5
:10591000084603F077FA00BFBEE700008E010020C2
:1059200098300020FC3000202DE9F04105460E465D
:10593000174627F0C3FBBA2027F098FB27F0E8FBB7
:10594000281227F093FB27F0E3FBE8B227F08EFB49
:1059500027F0DEFB27F0B2FBBB2027F087FB27F008
:10596000D7FB002406E027F05FFB305527F00CFB47
:10597000601CC4B2781EA042F5DC27F055FB305500
:1059800027F03EFB27F0B2FBBDE8F08102484078EB
:10599000401C014948707047FC3000202DE9F0415F
:1059A00004460E46174627F089FBBA2027F05EFB17
:1059B00027F0AEFB201227F059FB27F0A9FBE0B23D
:1059C00027F054FB27F0A4FB002506E0705D27F0CC
:1059D0004DFB27F09DFB681CC5B2BD42F6DB27F0EE
:1059E00085FBBDE8F08100002DE9F04F4B4989B0FF
:1059F0000968B1F922200692D1F81CC0B1F92470CF
:105A0000DCF81C40A28982429CBFE389984205D8F9
:105A1000A0EB02094FF0FF38266812E0D4E90162DA
:105A2000002A71D0138883429CBF5588A8426BD846
:105A3000C01A526880B202EB8000B0F90090B0F951
:105A40000280B9F1FF3F5FD09CF81800A27C10FBE8
:105A500002FB94F810A00790B1F92A50284608F0EC
:105A60005FFAC0B208902D4809FB0B620068A37C66
:105A70004FF00109816BCDE90293CDE90421C069A2
:105A80005246C17E807ECDE90001DDE9060339463C
:105A900007F0D2FAB8F1FF3F18D045F0020008F045
:105AA0003FFA1E48A37C08FB0B620068816BCDE9BE
:105AB0000293CDE90421C0695246C17E807ECDE9C2
:105AC0000001DDE90603394607F0B6FA134E3068E7
:105AD000C069417E007E814213D9022D11D085F02C
