:020000040800F2
:10000000A0FD01209D01000839F40108C546010842
:1000100081ED01088F1F0008B100030800000000F7
:10002000000000000000000000000000A79A020885
:1000300023500008000000007F0A0008A5110208F4
:10004000B7010008B7010008B7010008B7010008B0
:10005000B7010008B7010008B7010008B7010008A0
:10006000B7010008B7010008B7010008B701000890
:10007000B7010008B7010008B7010008B701000880
:10008000B7010008B7010008B7010008B701000870
:10009000B7010008B7010008B7010008B701000860
:1000A000B7010008B7010008B7010008B701000850
:1000B000B7010008B7010008B7010008B701000840
:1000C000B7010008B7010008B7010008B701000830
:1000D0001D970208B7010008B7010008B701000822
:1000E000C9640008D95B0208B7010008B70100081D
:1000F000B7010008B7010008B7010008B701000800
:10010000B7010008DD760208B7010008B701000852
:10011000B7010008B7010008B7010008B7010008DF
:10012000B7010008CD3F0008B7010008F93F0008FB
:10013000B7010008B7010008B7010008B7010008BF
:10014000B7010008B7010008B7010008B7010008AF
:10015000B7010008B7010008B7010008B70100089F
:10016000B7010008B7010008B7010008B70100088F
:10017000B7010008D1310208B7010008B701000833
:10018000B7010008B7010008DFF80CD000F01CFC34
:1001900000480047F5DF0408A0FD0120064880471D
:1001A00006480047FEE7FEE7FEE7FEE7FEE7FEE75C
:1001B000FEE7FEE7FEE7FEE7E59D0208890100088D
:1001C00072B6704762B67047EFF3108072B6704730
:1001D00080F31088704730BF704720BF7047B0FA77
:1001E00080F0704790FAA0F0B0FA80F0704790FA73
:1001F000A0F070472DE9F05F0546002092469B462F
:1002000088460646814640241BE02846414647462C
:10021000224600F020F852465B46801A994110D3DE
:1002200010461946224600F07EFA2D1A67EB0108A7
:100230004F4622460120002100F075FA17EB000915
:100240004E41201EA4F10104DFDC484631462A4617
:100250004346BDE8F09F202A04DB203A21FA02F051
:100260000021704721FA02F3D040C2F120029140F0
:1002700008431946704710B5431A934209D28318B0
:10028000881803E010F8011D03F8011D521EF9D271
:1002900010BD40EA01039B0703D009E008C9121F03
:1002A00008C0042AFAD203E011F8013B00F8013B30
:1002B000521EF9D210BDD2B201E000F8012B491E46
:1002C000FBD270470022F6E710B5044608461146F7
:1002D00002462046FFF7EFFF204610BD034600E030
:1002E000401C0278002AFBD111F8012B00F8012BE9
:1002F000002AF9D11846704730B50EE003460A4689
:1003000001E05B1C521C1C781578AC4201D1002C1A
:10031000F7D115F0FF0F04D0401C0278002AEDD170
:10032000002030BD10B5044604E00B7800F8013B16
:1003300003B1491C521EF8D2204610BDCAB2017842
:10034000914203D009B1401CF9E7002070470146F3
:10035000002000E0401C0A5C002AFBD1704710B569
:10036000002200E0521C835C8C5CA34201D1002B74
:10037000F8D1D8B2E1B2401A10BD30B50446002021
:10038000034600E05B1C934203D2E05CCD5C401B63
:10039000F8D030BD034611F8012B00F8012B002ADC
:1003A000F9D11846704730B505460020034600E0F5
:1003B0005B1C934205D2EC5CC85C201A01D1002C76
:1003C000F6D130BD0246C9B200E0401C0378002BD4
:1003D000FBD102E003788B4203D0401E9042F9D259
:1003E000002070472DE9FE4F074681EA0300C00F49
:1003F0000E46019021F0004123F00044B81AA141BB
:1004000005D23846314617461E460B46024623F0B3
:100410000040104304D13846314603B0BDE8F08FA8
:10042000350DC5F30A00C3F30A510290401A00903B
:10043000402868DAC3F3130040F4801B0198924609
:1004400020B10023D2EB030A63EB0B0B0098594653
:10045000C0F14002504600F066F980460C46504616
:100460005946009A00F06EF9C0197141EF1785EAFC
:1004700011533B4340D0019A52B3009A012A11DC38
:100480000022801A4FF0004361EB055103EA055347
:100490008018CDE9002341F580114246234600F043
:1004A000A6F9BAE72E050025401B61EB06014019AD
:1004B00041F58012001852412818A6F5001343EBAD
:1004C000020140EAD470294318EB0808644113E0A4
:1004D00064084FEA38084FF0000244EAC0744FEA5B
:1004E0000553801A61EB0301801841F5801149081A
:1004F0004FEA3000801859414246234603B0BDE818
:10050000F04F00F067B90198012240000023D0EBC2
:10051000020263EBE07301984FEAE074381A66EB6D
:100520000401EBE783F000435CE781F0004159E709
:100530002DE9FE4F81EA030421F0004504F0004458
:1005400023F000414FF0000A009450EA050302D066
:1005500052EA010304D10020014603B0BDE8F08F48
:10056000C1F30A53C5F30A541C44A0FB02B3C5F3FC
:10057000130545F4801CC1F3130141F480180CFBF2
:10058000023300FB083EA4F2F334810A930A41EAE5
:100590008C5143EA88530194A1FB03474FEA9C2501
:1005A00005FB03734FEA982601FB06373D05260538
:1005B00045EA1435BBEB06016EEB0503850E920E82
:1005C00045EA8C1542EA8812A5FB0206261E67EB57
:1005D00000070C0D44EA0334A41947EB1350C1F390
:1005E00013064FF0000319464FEA033343EA16534C
:1005F00043EA0403019CE5FB0201A4F10C0402940C
:10060000009C4FEA0632CDE900A400F0F0F8A4E720
:100610000EB540F2334102910021CDE900110A46A6
:100620000B4600F0E4F803B000BD70B5C1F30A5208
:1006300001F000450024C1F3130140F2FF3341F4FF
:1006400080119A4201DA002070BD40F233439A4291
:10065000A2F2334203DC5242FFF7FDFD00E090407E
:100660002C43F1D0404270BDC1F30A52C1F31301D3
:1006700040F2FF3341F480119A4201DA00207047C2
:1006800040F233439A42A2F2334202DC5242FFF775
:10069000E2BD9040704700F0004230F000400DD0C5
:1006A000C10D01F5607142EA01510022C0F316004C
:1006B000520742EAD002400711437047002001462A
:1006C000704701F0004230B421F0004150EA0103CC
:1006D00006D00B0DA3F56073C1F31301002B02DCF0
:1006E00030BC00207047440F44EAC104C100A01888
:1006F00030BC00EBC35000F037B830B50B460146B4
:1007000000202022012409E021FA02F59D4205D3B0
:1007100003FA02F5491B04FA02F52844151EA2F15A
:100720000102F1DC30BD202A04DB203A00FA02F19C
:10073000002070479140C2F1200320FA03F31943CF
:1007400090407047202A06DBCB17203A41FA02F08E
:1007500043EAE071704741FA02F3D040C2F120024F
:1007600091400843194670470029A8BF7047401CB4
:10077000490008BF20F00100704710B4B0FA80FCB7
:1007800000FA0CF050EA010404BF10BC704749B1F4
:10079000CCF1200421FA04F411FA0CF118BF012164
:1007A00021430843A3EB0C01CB1D0106000A002BDB
:1007B000BEBF002010BC704700EBC350104400299E
:1007C000A4BF10BC7047401C490008BF20F00100C6
:1007D00010BC704710B5002B08DA401C41F1000135
:1007E00092185B411A4301D120F0010010BD2DE9A0
:1007F000F04D92469B4611B1B1FA81F202E0B0FA97
:1008000080F220329046FFF78EFF06460F4640EA00
:100810000A0041EA0B0152465B46084303D13046C9
:100820003946BDE8F08D194652EA010015D0C8F1ED
:1008300040025046FFF70FFD04460D46504659460C
:100840004246FFF770FF084301D0012000E000207E
:10085000044345EAE07526432F430A984FEAD6251C
:10086000A0EB08000A304FEA46534FF0000245EA79
:1008700047554FEAD72402D500200146D1E70105AC
:1008800050196141DDE9084500196941BDE8F04DA5
:10089000A0E72DE9F04D81EA030404F0004B21F0BC
:1008A000004714464FF0000A23F0004150EA0702C7
:1008B00020D054EA01021DD0C1F30A550246C1F30B
:1008C0001300C7F30A56C7F3130340F4801143F42F
:1008D0008013A6EB0508101BD64608F2FD3873EB13
:1008E000010002D308F1010801E092185B41B8F160
:1008F000000F03DA00200146BDE8F08D00204FF420
:100900008015064607460EE0B2EB040C73EB010CB3
:1009100004D3121B064363EB01032F436D084FEA18
:10092000300092185B4150EA050CEDD152EA030009
:1009300012D082EA040083EA0105284303D1002291
:100940004FF0004308E0101B8B4102D2012200232C
:1009500002E06FF0010253101AEB060047EB08515A
:1009600010EB0A0041EB0B01BDE8F04DFFF732BF81
:10097000C1F30A52C1F3130140F2FF3341F4801175
:100980009A4202DA00200146704740F233439A420D
:10099000A2F2334202DC5242FFF75DBCFFF7C3BE56
:1009A00030B5002904DB4FF00044404264EB010104
:1009B000002B04DB4FF00044524264EB03039942E6
:1009C00008BF904230BD0000064C074D06E0E068CD
:1009D00040F0010394E8070098471034AC42F6D386
:1009E000FFF7D6FB14380F0834380F0870B501EB49
:1009F000020410F8015B15F0070301D110F8013B68
:100A00002A1106D110F8012B03E010F8016B01F850
:100A1000016B5B1EF9D12B0705D40023521E0FD4A6
:100A200001F8013BFAE710F8013B02F10202A1EBE9
:100A3000030303E013F8015B01F8015B521EF9D5D3
:100A4000A142D6D3002070BD21484FF0FF010170B4
:100A5000002080F309881F48016881F308881E4838
:100A60004FF08051016062B6FEE71B484FF08051A5
:100A70000160704718484FF080510160704772B6AE
:100A8000EFF3098050B11EF0100F08BF20ED108A5F
:100A9000734620E9F80F11490968086000B510484D
:100AA00080475DF804EB0F480F490A7802700B4845
:100AB0000E490A6802601068B0E8F80F9E461EF002
:100AC000100F08BFB0EC108A80F3098862B6704737
:100AD00022ED00E09003002004ED00E088030020F8
:100AE0003D0E020826030020270300208C0300206F
:100AF0001CB50121084624F011FF0121582024F0E3
:100B0000DDFE0C220021524808F098FA0C22012147
:100B10004F4808F093FA0C2204214D4808F08EFA51
:100B20000C2205214A4808F089FA0C22082148487D
:100B300008F084FA0C220921454808F07FFA0C22BB
:100B40000A21434808F07AFA0C220E21404808F0A6
:100B500075FA0C220F213E4808F070FA4CF23370FF
:100B6000009002208DF8040003208DF8050000207D
:100B70008DF806008DF807006946354808F016FA2A
:100B80000C220421334808F059FA0C22052131487F
:100B900008F054FA0C2207212E4808F04FFA0C22D4
:100BA00008212C4808F04AFA0C220921294808F0AB
:100BB00045FA0C220A21274808F040FA0C220B21A2
:100BC000244808F03BFA0C221146224808F036FA75
:100BD0000C220D211F4808F031FA0C220E211D486D
:100BE00008F02CFA0C220F211A4808F027FA4FF6C9
:100BF000B07000906946174808F0D8F90C221146E9
:100C0000154808F01BFA4FF48050009069461248CE
:100C100008F0CCF901214FF4C07024F04FFE012000
:100C20008DF8040003208DF8050000208DF80600E3
:100C30008DF807004FF4BC4000906946074808F063
:100C4000B5F9102000906946054808F0AFF91CBDC1
:100C5000000C02400010024000180240001C02403C
:100C60000020024000B597B00320019000200290C0
:100C70000620039001200490002005900690079024
:100C800006200890002009900A9010200B90002068
:100C90000C900D900E900F9010904FF4805011908A
:100CA000002012901390149001A81590169008A897
:100CB00007F08EF90121062007F070F917B000BD8A
:100CC0001448008800B2144948801248008801B2D4
:100CD000114881800F48008801B20F48C1800D483B
:100CE000008801B20C4801810A48008801B20A4814
:100CF00041810848008801B2074881810548008881
:100D000001B20548C1810348008801B2024801824E
:100D1000704700000000406CF410002010200449CF
:100D2000488308830883088308834883704700004A
:100D30000020024038B90021074A51704FF4804129
:100D4000064A118006E00121034A51708903034AD3
:100D5000921E118070470000F41000201A1C0240FF
:100D60002C490870072846D2DFE800F046040E1927
:100D7000232E3A004FF40061274A11804910118058
:100D80004910921E118043E04FF40061224A118005
:100D90004910921E11804910921C118038E04FF4C6
:100DA00000611D4A11804910921E11804910118066
:100DB0002EE04FF40061184A921E11804910921CD7
:100DC00011804910118023E04FF40061124A921EF5
:100DD00011804910921C11804910921E118017E059
:100DE0004FF400610C4A921E118049101180491085
:100DF000921C11800CE000BF0021064A11704FF4D4
:100E00000061054A1180491011804910118000BF0E
:100E100000BF7047F41000201A1C02404FF48050AD
:100E20000349088008800880891E088070470000F8
:100E30001A1C024021B1826842F00102826003E084
:100E4000826822F0010282607047000000210A4A95
:100E500011680A4A01EA0201D0E9002342EA0302CA
:100E6000836842EA0302C36842EA030242EA0101DC
:100E7000034AC2F80413704704230140E030FCFF2A
:100E80000020014000B58DB00121880224F076FDDC
:100E90004FF40070019003208DF8080000208DF8B9
:100EA0000B0001A9184808F081F8002003904FF4C6
:100EB0000030049000200590069003A8FFF7C6FFBD
:100EC00007A800F035F9002007908DF820000120D8
:100ED0008DF82100002009900B9001208DF8300042
:100EE00007A90A4800F098F80323012207210748C0
:100EF00000F0BCF801210548FFF79CFF034800F013
:100F000012F90DB000BD00000014024000220140A3
:100F10000146C86C80B270472DE9F05F2DED048B5F
:100F200082460C469346BAF1000F6AD100BF00BF5B
:100F300000BF00BF00BF34480068012804D1FFF79C
:100F4000A1FF0020304908603048FFF7E1FF064666
:100F50003046FFF75DFB41EC100BB0EE408AF0EE3F
:100F6000608A9FED2B0B53EC102B51EC180BFFF705
:100F7000DFFA41EC100BB0EE409AF0EE609A51ECC3
:100F8000190BFFF771FB06464FF47A70B6FBF0F0D1
:100F9000C5B205EB4500C0EBC510A6EBC00064214F
:100FA000B0FBF1F0C7B24FF47A7015FB00F007EB1D
:100FB000C70101EB071100EB8100301A0A21B0FBD9
:100FC000F1F8E82015FB00F007EBC70101EB071172
:100FD00000EB810008EB880100EB4100A6EB000963
:100FE00005F13000207007F13000607008F130002A
:100FF000A07009F13000E0700420BDEC048BBDE866
:10100000F09F0020F9E70000CC06002000220140FC
:101010009A9999999999E93F30B5024600200023A1
:101020005068104C20400D790C6844EA0524204398
:10103000506090680C4C2040D1E903542C438D68DB
:101040002C434D7944EA450420439060D06A20F453
:1010500070000C7D641EE4B2234340EA0350D0626A
:1010600030BD0000FFFEFFFCFDF7FFC070B5044679
:101070008C4600200021BCF1090F11DDE068ACF1C5
:101080000A0505EB4506072505FA06F18843ACF18C
:101090000A0505EB450503FA05F10843E0600CE09D
:1010A00020690CEB4C06072505FA06F188430CEB8A
:1010B0004C0503FA05F108432061072A0FDA606B3B
:1010C000551E05EB85061F2505FA06F18843551EBA
:1010D00005EB85050CFA05F10843606322E00D2A53
:1010E0000FDA206BD51F05EB85061F2505FA06F1E3
:1010F0008843D51F05EB85050CFA05F108432063ED
:1011000010E0E06AA2F10D0505EB85061F2505FA42
:1011100006F18843A2F10D0505EB85050CFA05F1F2
:101120000843E06270BD816841F080418160704792
:1011300000210160017141718160C1600161012183
:101140000175704710B505A20021074800F0A1FA0B
:1011500006A20021084800F09CFA10BD53454D5FDF
:101160004F56373637300000CC10002053454D5FC6
:1011700053594E4348000000A41000200EE00848D8
:101180000078032807D1074812F0AFFC18B10649D0
:1011900004482CF05EFB0A2000F0B6FAEFE70000EE
:1011A000AD010020AC3601203C41012000B58BB0E0
:1011B0000AA8032100220592CDE9062108904FF4E8
:1011C0000060CC213C4B1B68CDE90131CDE9030225
:1011D00003201346394A3AA100903D4800681FF0A9
:1011E00055F90AA8032100220592CDE906210890AD
:1011F00011464FF480626620364B1B68CDE9013002
:10120000CDE9032104200023334A34A1009037485C
:1012100000681FF03BF90AA8032100220592CDE9DE
:101220000621089010464FF480616622304B1B68FF
:10123000CDE90132CDE90310052000232D4A2EA16E
:101240000090314800681FF021F90AA8032100220C
:101250000592CDE90621089001210A0340F2991078
:101260002A4B1B68CDE90130CDE903213C20002346
:10127000274A28A100902B4800681FF007F90AA808
:10128000032100220592CDE90621089010464FF473
:1012900080616622244B1B68CDE90132CDE9031041
:1012A0003B200023214A22A10090264800681FF01D
:1012B000EDF80BB000BD00000C0000206113000829
:1012C000417070205461736B2055706461746500C7
:1012D00008000020140000207D11000841707020DB
:1012E0005461736B20434F4D00000000100000203C
:1012F0001C00002071140008417070205461736B51
:101300002055736572494600180000202400002013
:1013100049130008417070205461736B2047554990
:1013200000000000200000202C00002051130008C5
:10133000417070205461736B204755495265667245
:10134000657368002800002001E01DF0F5FBFCE754
:1013500005E0022047F066FB642000F0D5F9F8E7CD
:1013600086B0002528E00021144800F0B1F90446B9
:10137000012C21D12A4612A1684642F0C7FE05A8D9
:101380001EF072FD13A049F08DFA154908700A226B
:101390006946144849F082FB114908701149124806
:1013A00009F04DFD0F4849F0E2F90D49087005A814
:1013B0001EF092FD681CC5B2D5E70000A410002005
:1013C000303A2F506963536176652F25642E626D24
:1013D00070000000303A2F50696353617665000059
:1013E000A002002004150120193D040808B50024BE
:1013F0000025002601F0F6FD46F010F900F0A6F9F0
:1014000068461EF0C1FFFFF79DFEFFF7CFFE28E004
:10141000144890F82800012802D129F00DFB16E0AD
:1014200011480078012807D1681CC5B20A2D0ED1D9
:10143000002508F087FB0AE00C484078012806D117
:10144000701CC6B20A2E02D1002606F073FE601C84
:10145000C4B20A2C02D1002447F098FA012000F00F
:1014600053F9D5E7A84300209C440020BE44002047
:101470000EB50020019037E045F0C4FF044664B388
:101480000D2C25D008DC012C0DD0042C0FD0072CFE
:1014900019D00A2C20D11AE0102C1AD0132C19D0F4
:1014A000162C19D117E0114800F004F914E00120BE
:1014B000019002A80023012201A900900C480068B5
:1014C0001FF064FA08E00B4800F0F4F804E003E0D1
:1014D00002E001E000E000BF00BF4CF04BFD51F026
:1014E0002FFA052000F010F9C6E70000A410002034
:1014F00020000020CC10002010B504461F2C01DC79
:101500001F2402E0FE2C00DBFE240B480470014681
:101510000978402202EB611000F07BF80649097857
:1015200001F01F0101F1600000F073F8034800783A
:1015300000F006F810BD0000A6000020A700002063
:1015400010B50446012C06D1102000F062F80120ED
:101550000A49087010E0022C06D1112000F059F859
:1015600002200649087007E0032C05D1132000F083
:1015700050F803200149087010BD0000A7000020AA
:1015800010B52DED028B00F02BF8044604EB84001F
:1015900000EB800101EB801000EE100AF8EEC00AAB
:1015A0000D48007800EB4000400000EE100AB8EE55
:1015B000C00A80EE801AB0EE418A084800780228FE
:1015C00005D1B0EE000AC8EE000AB0EE608AB0EEB7
:1015D000480ABDEC028B10BDA6000020A700002029
:1015E00070B54BF0A3FD47204BF078FD4BF0C8FDE4
:1015F0004BF052FD04464BF0FFFC4BF04DFD054611
:101600004BF036FD4BF0AAFD05EB042086B23046C8
:1016100070BD10B504464BF089FD46204BF05EFDD1
:101620004BF0AEFD20464BF059FD4BF0A9FD4BF0C1
:1016300095FD10BD2DE9F04104464BF077FDEE20FD
:101640004BF04CFD4BF09CFD20464BF047FD4BF022
:1016500097FD4BF06BFDEF204BF040FD4BF090FD04
:101660004BF01AFD05464BF0C7FC4BF015FD064646
:101670004BF0FEFC4BF072FD06EB052087B23846BE
:10168000BDE8F0811FB5684624F098F9019804B0D0
:1016900010BDF8B506460C4615466B46224629464F
:1016A00030461EF061FCBDF8000008B10020F8BD16
:1016B0000120FCE738B504466A46002120461EF0AA
:1016C00067FDBDF8000008B1002038BD0120FCE72F
:1016D0007CB505460C464FF47A70604309490968A9
:1016E000B0FBF1F601A800231A46314600902846C7
:1016F0001EF07AFCBDF8040008B100207CBD01207A
:10170000FCE70000E0EC0D08FEB5044642F2107064
:10171000844200D90446B4F57A7F0BD34FF47A7033
:10172000B4FBF0F085B24FF47A70B4FBF0F100FB3B
:10173000114601E0A5B2002602A800212B46324640
:10174000CDE9001008461FF00DFCFEBD2DE9F0416B
:10175000FFF798FF054614480068B5FBF0F42146F2
:10176000B1F1807F00D31DE021F07F40401E4FF09B
:10177000E022506150170F22002807DA13071F0ECE
:101780000A4B00F00F06361F9F5503E013071E0E8D
:10179000074B1E5400BF00204FF0E022906107204D
:1017A000106100BFBDE8F081E0EC0D0818ED00E02D
:1017B00000E400E010B504462146512023F0E8FD86
:1017C00010BD2DE9F04105460C4616461F46DDF8D2
:1017D0001880E9B2582023F0DBFD2912592023F0AC
:1017E000D7FDE1B25A2023F0D3FDB8F1000F04D1A8
:1017F00021125B2023F0CCFD05E0802040EA24216B
:101800005B2023F0C5FDF9B25C2023F0C1FD391245
:101810005D2023F0BDFDF1B25E2023F0B9FD311251
:101820005F2023F0B5FDBDE8F081000010B5012078
:1018300004490870502023F03BFD802023F05AFD1E
:1018400010BD00000401002010B5002406E023F0C4
:1018500071FB10F0400F00D103E0641C0348844288
:10186000F5D300BF00200249087010BDA08601001A
:101870000401002038B544680546014620462EF094
:101880003BFC002808BF38BD464A286811280DD007
:1018900006DC0B282AD00E2838D00F2817D07CE081
:1018A000282873D0B0F5107F0AD076E09268002A1D
:1018B00008BF38BD294601B02046BDE8304010477A
:1018C000526801B029462046BDE830401047254601
:1018D000204608F079FD0090406E0468684608F0E4
:1018E0000BFE002C1CBF2846A04738BD204608F040
:1018F0006BFD0090683008F069FC009803216C30A3
:1019000008F092FC684608F0F7FD46E0E968486890
:1019100009680D2902D0202918D037E0002835DDCC
:101920004FF4807120462EF0B2FC204608F04CFDAA
:10193000009090F82850684608F0DEFD15F0020F80
:101940001ED00121204630F060FC19E0002817DD90
:1019500025464FF4807120462EF099FC284608F069
:1019600033FD009090F82840684608F0C5FD14F05B
:10197000020F08BF38BD0121284630F046FC38BDB3
:101980002046BDE8384002213EF064B9E86820B93D
:1019900020464FF480712EF08DFB2846BDE838407C
:1019A0002FF0F6B9B807002030B585B04FF0000C25
:1019B000DDE90845CDE900C5CDE902C400F00EF827
:1019C00005B030BD70B584B00026DDE9084C0A9D35
:1019D0008DE8701000F002F804B070BD2DE9F047FA
:1019E00086B00646DDE90E59884617469A46119C90
:1019F0000DF08EFD4C201749CDE90210CDE90059BC
:101A000053463A46414630462FF006F905001BD0B2
:101A100008F0DAFC1022214604902EF033FE0E4C22
:101A20000499B4E8CD133431A1E8CD1394E80D1036
:101A3000A1E80D1054F82C0D086004A808F05CFD16
:101A4000206841682846884710F0A0F806B028466C
:101A5000BDE8F08775180008C407002070B504467B
:101A600086B08069B4F908C0658A00260091CDE986
:101A70000165CDE903C0B4F90C00B4F91050C118E8
:101A8000B4F90A00B4F90EC010442B46624600F0C7
:101A900007F80546616800F012FA06B0284670BDE6
:101AA0002DE9F04F85B09846DDE91164DDE90E5768
:101AB00091468A4683460DF02BFD04F14C001749F0
:101AC000CDE90210CDE9005743464A4651465846F3
:101AD0002FF0A2F805001BD008F076FC102231464A
:101AE00004902EF0CFFD0E4C0499B4E8CD133431A0
:101AF000A1E8CD1394E80D10A1E80D1054F82C0DB9
:101B0000086004A808F0F8FC206841682846884767
:101B100010F03CF805B02846BDE8F08F75180008B5
:101B2000C4070020F0B5044680688C4989B051F89C
:101B300020506068002800F00A81052806D0062899
:101B40007DD0122800F0B48000F004B9E8690028C4
:101B500008BF002651D0D5E90012AB688DE80F0010
:101B600004F110010FC910F095FE002655F826006B
:101B70000FF009FCA169E8690A1A2169014460694A
:101B800030440AF087FCA169E8690A1A2169014416
:101B9000E069801B0AF07EFCE169E8690A1A616964
:101BA0000144206930440AF05FFDE169E8690A1ADE
:101BB00061690144A069801B0AF056FD761C022E63
:101BC000D4DBA8680FF0DFFBE069E969D4F814C042
:101BD000431A206942186144801C521E0AF00CFE10
:101BE000E169E869A2690B1A61690144101A401C95
:101BF000921E0AF001FEEE6911E055F826000FF082
:101C0000C2FBE069831BA069821B6069811920699E
:101C100030440AF0C1FC761C022EEEDB0226D5E928
:101C20000301CDE90001E169606901444B10A1693C
:101C30008A1B811C206930440AF0F2F900E011E0AF
:101C4000D5E90501CDE90001E0696169831E014420
:101C50000122A06902EB6101821B206930440AF075
:101C6000DFF977E0206808F0AFFB0490206831F0DE
:101C700043FD50B1A068002818BF00200AD1049885
:101C8000006F002818BF012004E00498406F00286E
:101C900018BF0220049901EB8000C56E04A808F06B
:101CA0002BFC00231A462846216809F007FD51E065
:101CB000206808F089FB0490866E002E08BF04A8F7
:101CC00042D0A168B0F95C70002908BF012103D09F
:101CD00003290CBF0221002100EB8101406D0C6C37
:101CE0000FF068FB20460FF04EFB06A80BF0C0FA81
:101CF000BDF81810A88B0144ADF81810BDF81C10E1
:101D0000081AADF81C00BDF81A00801CADF81A00C6
:101D1000BDF81E00801EADF81E000498B0F96020CA
:101D2000B0F95E1006A80EF0AFFD04A808F0E4FBC1
:101D300002200FF0C9FB304608F046FB3A4606A9E0
:101D4000059009F051FE05A808F0D6FB02E02068D6
:101D500030F0D6FD09B00020F0BD0000CC130F0814
:101D600070B582B00C4606004FF0000517D00DF09C
:101D7000CFFB304608F028FB0090032C0AD800EB7C
:101D80008400C06E30B108F01FFB0190456801A8C7
:101D900008F0B2FB684608F0AFFB0FF0F7FE02B0A8
:101DA000284670BD38B505004FF000040BD00DF08B
:101DB000AFFB284608F008FB0090446D684608F029
:101DC0009BFB0FF0E3FE204638BDF0B583B016460E
:101DD0000D46040004BF03B0F0BD0DF099FB204692
:101DE00008F0F2FA0190806E0027002808BF2F70DB
:101DF00011D008F0E9FA0090FEF7A9FA0446701E27
:101E000084420FDC224628460099FEF734FA6846E1
:101E100008F072FB2F5501A808F06EFB0FF0B6FE1C
:101E200003B0F0BD0446EDE770B505460C4610461C
:101E300000210A4609F004FC024621462846BDE876
:101E4000704000F083B870B594460C4605461946BC
:101E50006046049A09F0F4FB024621462846BDE894
:101E6000704000F073B8000001490862704700003C
:101E7000C4070020044A0349116004494A6A4862C1
:101E800010467047F4070020B8070020C407002060
:101E900000294FF0100101D02EF0F9B92EF00AB947
:101EA00070B505460C46104600210A4609F0E8FBCD
:101EB000024621462846BDE8704000F047B8F0B51C
:101EC00083B00F4605004FF0010421D00DF020FB38
:101ED000284608F079FA0190866E01A8009608F06D
:101EE0000BFB3946684611F015FC78B100980024C8
:101EF000B04208D0284608F067FA01900099816640
:101F000001A808F0F9FA284630F068F80FF03EFE14
:101F100003B02046F0BD002808BF7047F8B515464D
:101F20000C4606460DF0F4FA304608F04DFA0090E3
:101F3000032C3CBF00EB84000564684608F0DCFA23
:101F4000304630F04BF80FF021FEF8BD002808BFF6
:101F50007047F8B515460C4606460DF0D9FA3046DE
:101F600008F032FA0090032C0BD200EB84006C30A6
:101F700008F02CF9009800EB8400C566304630F07C
:101F80002DF8684608F0B8FA0FF000FEF8BD00BF63
:101F9000FEE7000000B587B00121084623F0AEFC43
:101FA0000121880523F08AFC012140F2811023F0F1
:101FB00085FC0D220821354807F040F80D22062146
:101FC000334807F03BF80D220421324807F036F879
:101FD0000D2205212F4807F031F80D2206212D484A
:101FE00007F02CF80D2207212A4807F027F80D22C8
:101FF0000921264807F022F80D220A21234807F07C
:102000001DF80D220B21214807F018F80D220C2194
:102010001E4807F013F80D220E211C4807F00EF899
:1020200002208DF8180003208DF8190000208DF88B
:102030001A0001208DF81B004020059005A91448C6
:1020400006F0B4FF4FF4BE40059005A90F4806F016
:10205000ADFFF020059005A90E4806F0A7FF00206F
:10206000ADF80400ADF806002020ADF8080080208F
:10207000ADF80A000020ADF80C00ADF80E00ADF888
:10208000100001A801F0AEFE07B000BD001C024028
:10209000000002400020024010B590B004462348E2
:1020A00002F006F84FF0007001902148029003946E
:1020B000002004901F4805900020069007904FF4E0
:1020C000805008904000099000200A904FF40030A2
:1020D0000B9000200C9003200D9000200E900F908C
:1020E00001A9124802F0ECF8012210210F4802F079
:1020F000C9F801210D4801F0CFFF39208DF800000B
:1021000000208DF801008DF8020001208DF80300F9
:1021100068461DF0C5F9012001F052FE012001F0D2
:102120003DFE00200449087010B010BD2864024034
:102130002800055080960200A800002010B500215C
:10214000044801F0A9FF002001F03AFE002001F050
:1021500025FE10BD286402402DE9F04F04460068BA
:1021600089B028B131F0C8FA002808BF012500D095
:102170000025FE4850F8256060680A2800F071814B
:1021800008DC002800F0DC8106283ED007280CD0AF
:1021900000F0E7B9122800F02F81192802BFB069BA
:1021A00009B0BDE8F08F00F0DCB925680DF0B0F99A
:1021B000284608F009F90090C76F684608F09CF9B6
:1021C0000FF0E4FC5FF0000556F825000FF0DBF897
:1021D0002069C119491B4B1E61691A4629442844CC
:1021E0000AF0DAF96D1C032DEED3D6E90301CDE92F
:1021F00000012069C119491B4B1E61691A46294417
:10220000284409F00DFF00F0ACB9A068401E06900C
:1022100024680DF07DF9204608F0D6F80090C46FD0
:10222000684608F069F90FF0B1FCDFF8449359F8FB
:102230002570002F1CBF069800EB80000DD000BF5A
:10224000B7F84810A14205D107EB8001896809B1B0
:102250001FB1C7E0FF6C002FF2D1502008F022F828
:1022600007006AD05022002111F0E2FA7069786408
:10227000A7F8484059F82500F864A4F10608BD48BD
:1022800049F8257080FB08104110A1EBE070032194
:1022900008910122CDF8088007F14001CDE9031231
:1022A000069D05EB850107EB8101019105EB4501D9
:1022B00007EB81012831009108EBD8714A104910D1
:1022C00001EBD173A1EB63010E18101A059008F110
:1022D0000700C11700EB51704FEAE00A0AFB08F44F
:1022E000204607F0DFFF81462246002111F0A0FAC8
:1022F000DDE9042001282BDD089901203446314412
:10230000A14220DDD31702EB537E02F0070C80239D
:1023100023FA0CF3444509DA0AFB04FC0CEBEE0C3F
:1023200019F80CB04BEA030B09F80CB06840641CB8
:10233000A14208DD0028F9D0ECE750218E480AF0D0
:10234000DBF900F00EB90598521C761C9042D3DCE4
:1023500004990298401A0490904226DD089B0121BE
:102360003046334483421BDD4FEAE27C02EB5C7E65
:1023700002F0070C802424FA0CFC404509DA0AFB21
:1023800000F404EBEE0419F804B04BEA0C0B09F866
:1023900004B06940401C834202DD0029F9D0ECE71B
:1023A0000498521C761E9042D8DC009802210160ED
:1023B000009901200871009A039991600199C880E1
:1023C00001980021A0F804A00198C0F80890019895
:1023D0000161DDE90001C860DDE9010101800198CA
:1023E000A0F802800698032200EB800007EB800033
:1023F000114609F04DFCB4E0206807F0E5FF0290BB
:10240000B0F9548090F85660D0F84490476B02A819
:1024100008F072F825680DF07BF8284607F0D4FF25
:102420000390B0F87C5003A808F066F80FF0AEFBFC
:1024300068462FF011F8BDF80000A9190844ADF85E
:102440000000246A38460EF0B5FF02200FF03CF879
:1024500048460EF098FF42466946204609F0C4FA05
:102460007FE0206807F0B0FF0290B0F9545090F878
:102470005680476B866C02A808F03EF8D4F80090AE
:102480000DF046F8484607F09FFF0390B0F87C90A7
:1024900003A808F031F80FF079FB68462EF0DCFF56
:1024A000BDF8000009EB08010844ADF80000206AFF
:1024B0000AF064FF044638460AF0D7FF25F003010E
:1024C000042904BFBDF80610091A08D00C2908D148
:1024D000BDF90610091A491C01EBD1714910ADF87C
:1024E000021025F00C0101290CD0022913D1BDF9ED
:1024F0000420BDF90010521A121B02EBD27201EB3C
:10250000620106E0BDF80420BDF80010521A121B4B
:102510001144ADF80010BDF80010621E1144ADF872
:102520000410BDF80210401E0844ADF80600304605
:102530000EF029FF4FF0FF31684609F023FC10E050
:10254000206830F0DDF9206807F03EFF0790B0F911
:102550000610B0F90220891A491CC16707A807F0C4
:10256000CBFF09B00020BDE8F08F0000DC130F089E
:10257000C40800206766666658370F08044A034996
:1025800011600449CA69C86110467047800800207C
:10259000880F00208C0F002000B589B0002000902B
:1025A00002900390049005900690079008901920DF
:1025B000019004480068806841686846884709B00F
:1025C00000BD0000880F00202DE9F04F0546F14FB7
:1025D000D5E900048BB04FF0020B4FF026094FF005
:1025E00000081D2810D007DC052816D00B2819D0AC
:1025F0000E282ED000F0C7B926287DD0A0F5807017
:1026000013381FD000F0BFB93969002900F0BB8131
:1026100020468847386200F0B6B9F96820468847F6
:1026200000F0B1B9786918B12EF0D5FBC7F8148065
:10263000386A002800F0A78130F0BEFAC7F8208081
:1026400000F0A1B978692EF0C6FBC7F8148000F03D
:102650009AB9E8684168012940F095810068082826
:1026600007D00D2800F0DB801B2800F0E48000F08C
:102670008AB904226946204604F022FD00982830D9
:10268000FDF765FE0028CCBF01210021401A401E45
:1026900024BF3A780099C0F076810B1893F828305F
:1026A00093422AD108444FF4C07180F82980204613
:1026B0002EF02EFF074602F03CFB06460146384648
:1026C00002F094F80098324600F12801384602F0F2
:1026D00044FB4FF4007120462EF01AFF014600988B
:1026E0003AF030FD0098AC498068FDF705FE0028FF
:1026F00040F0498100F03CB903E0401ECDD200F02B
:1027000042B9A8682EF06BFFEE688246072E0FD103
:10271000A8682EF08DFEA149884209D102A80EF0CA
:10272000C3F89DF8100018B1012120462FF07CFF5E
:10273000BAF5B87F12D009DCBAF1010F55D0BAF161
:10274000020F08BF022E76D000F01DB9BAF5C07F87
:102750006AD0BAF5007F68D000F015B9022E40F0BB
:10276000128104226946204604F0AAFC0098283011
:10277000FDF7EDFD0028CCBF01210021401A401ECD
:1027800024BF3A780099C0F0FE800B1893F82830E7
:10279000934227D108444FF4C07180F82980204625
:1027A0002EF0B6FE074602F0C4FA06460146384649
:1027B00002F01CF80098324600F12801384602F079
:1027C000CCFA4FF4007120462EF0A2FE014600988C
:1027D0003AF0B8FC009870498068FDF78DFD00283C
:1027E00042D1C5E0401ED0D2CDE0022E3CD1310214
:1027F00020462EF08DFE0646042205A9204604F050
:102800005FFC304619F035FB80B1059864A1806803
:10281000FDF772FD18B120463DF0ECFAB3E020461A
:102820003FF054FCAFE006E066E01EE000212046E9
:1028300009F044FFA7E004226946204604F040FC6A
:10284000009806A9C0F804B02046CDF818902FF0E3
:10285000BEFE00984FF4807253492830FDF70BFDFF
:102860000121204609F02AFF8DE0012E12D0022E10
:1028700004BF0120B8613ED0042E3CD12046012186
:102880002EF046FE04462EF0C3FB01212046FFF742
:10289000FFFA78E04FF4007120462EF039FE19F06F
:1028A000E8FA40B3786990B1B96921B3C7F81880E4
:1028B0002EF091FA4FF400712046C7F814802EF0E4
:1028C00027FE19F013FBF9698842A8D05BE0204687
:1028D000C7F818802EF0FAFD00234FF496721946BF
:1028E0002EF06AF978614FF4007120462EF010FE48
:1028F00019F0FCFAF86146E0042E44D1042269463E
:10290000204604F0DDFB0098E8B34FF4C071204688
:102910002EF0FEFD0746B00107F002FC060032D0A3
:1029200007F052FD0190384602F003FA01464FF4D9
:1029300080733846019A02F09FF94FF400712046E7
:102940002EF0E6FD0746DDE900012830FDF722FD07
:10295000394600983AF0F6FB01A807F0CDFD304665
:1029600007F0FEFB00980C498068FDF7C5FC50B9E4
:10297000204601212EF0CCFD04462EF023FB002141
:102980002046FFF785FA28462EF002FA0BB0BDE884
:10299000F08F0000CC080020082204086F9E010878
:1029A0002E646972000000000C2204082DE9FF4F1C
:1029B000C3B00F46DDE9505ADDE9548B1C4616467C
:1029C000A82104A8DDF84891FDF77CFCFE480DF134
:1029D000D80E002CB0E80E108EE80E10B0E80E10E5
:1029E0000DF1E80E8EE80E100FC80DF1C00C8CE84A
:1029F0000F0001DD002F0CDA16F082F8002CDCBF8E
:102A000000EBD0714C10002F03DA001B00EBD070EC
:102A10004710002D01DD002E0CDA16F095F8002D80
:102A2000DCBF00EBD0714D10002E03DA401B00EB31
:102A3000D0704610B8F1000F08BF0FF29038E6488A
:102A4000CDE90408ADF81C60ADF820500420ADF8C5
:102A50001A70ADF81E400A90ADF822B002F006F9E7
:102A60000AF003FDDD490B91DDA10C914FF4C0711B
:102A7000ADF834100521ADF83610B9F1080FB4BF28
:102A8000494608214843001DADF83C00D549D6A071
:102A9000CDE912104FF4B870ADF850001922132090
:102AA000ADF85620ADF85800CFA3CDE91913012396
:102AB000ADF86C302091ADF87220CBA1ADF8740068
:102AC00021910221ADF89000ADF88810C748ADF80B
:102AD0008E202790C2A028900802ADF8A4004FF0E5
:102AE000000BCDF800B0CDF804B0C14A062104A80F
:102AF000439B08F0D1FB060004BF47B0BDE8F08F50
:102B00002EF0E4FC40A92EF0CBFC0CF001FDB948FE
:102B1000406A002808BFCDF8F8B002D007F054FC96
:102B20003E900024DFF8D082B44D0327304655F89C
:102B300024102EF0EDFCB24A02210190FFF7EBF9D0
:102B40003E9800281CBF50F8240000280AD007F047
:102B50003BFC014634900198FFF7B1F934A807F027
:102B6000CBFC18E0009758F8342005230121019888
:102B7000FFF769F9009758F83420052300210198E0
:102B8000FFF761F908EBC4000097426805230221B2
:102B90000198FFF758F9641C032CC7D33E9800280E
:102BA0001CBF3EA807F0A8FC4FF4807007F0A9FAFC
:102BB000070000F0E08007F007FC2E904FF4C07192
:102BC00030462EF0A5FC00240190B9F1000F88BF1B
:102BD000DFF8208219D900BF5AF824102E98FDF78B
:102BE000D9FB2E98FDF7B3FB2E9998F800300A1800
:102BF00012F801CC9C451CBF0B5482F801B001981F
:102C000001F027FC641C4C45E6D32EA807F074FCA9
:102C10005399019802F080F94FF4007130462EF07C
:102C200077FC8346012119F07EFA0121584619F0FC
:102C300058FA0121584619F017FB0321584619F09C
:102C400086FB00240DF1D8080DF1E8090DF1C00A4A
:102C500058F824205AF8243059F82410584618F00F
:102C6000EEFA641C042CF3D3664A0021584619F08E
:102C7000B3FA654A0121584619F0AEFA614A0221B9
:102C8000584619F0A9FA5F4A0321584619F0A4FAE8
:102C9000584619F027F801220021584619F072FB16
:102CA000584619F063F80022012111F0B1FB3846B3
:102CB00007F08AFB2E904FF4C07130462EF028FCAE
:102CC0004FF480732E9A539901F0D6FF56982E999F
:102CD0002830FDF75FFB594656983AF033FA2EA894
:102CE00007F00AFC384607F03BFA042256A93046A2
:102CF00004F0CDFA0CF00CFC642007F011FA5FEA46
:102D000000094DD007F060FB00242746CDF80400F1
:102D100055F8271030462EF0FBFB804664220199BF
:102D2000FFF753F80198FDF712FB70B14046FFF72B
:102D300039F80EF03FFB824601980AF01FFB8046EF
:102D400050460EF037FB444570DB7F1C032FDFD36A
:102D500001A807F0D1FB484607F002FA5FF0000730
:102D6000304655F827102EF0D3FB80460021FEF7A1
:102D7000F7FF90B908E030462EF044F80EF006FF59
:102D800047B00020BDE8F08F40462EF0D3FD02464C
:102D900004F10C0140462FF053FE7F1C032FDFD3BC
:102DA0000EF0F4FE13493046C9688847569817A1BB
:102DB0008068FDF7A1FA68BB304601212EF0A8FB20
:102DC00004462EF0FFF826E0F0130F0843686F6FFB
:102DD00073652046696C6500D56A0008C74600081F
:102DE0004F4B00005D1A0008000000005BBA0108AC
:102DF000C9250008CC080020F4080020E4130F08BF
:102E0000BBBBBB0051BA0108615903082E6469724B
:102E10000000000003E000212046FFF739F80EF023
:102E2000B5FE47B03046BDE8F08FFFE744468CE77B
:102E30002DE9F84F16465FEA000808BFBDE8F88F95
:102E4000032928BFBDE8F88F384D55F821102EF022
:102E50005FFB040008BFBDE8F88F3146FFF72FF88D
:102E6000002201212046FEF7DFFF00221146204606
:102E7000FEF7DAFF002202212046FEF7D5FF0CF014
:102E800047FB642007F04CF95FEA000942D007F0E5
:102E90009BFA00242646009055F8261040462EF056
:102EA00037FB074664220099FEF78FFF0098FDF775
:102EB0004EFA70B13846FEF775FF0EF07BFA824687
:102EC00000980AF05BFA074650460EF073FABC42CF
:102ED00029DB761C032EDFD3684607F00DFB48463E
:102EE00007F03EF95FF00006404655F826102EF038
:102EF0000FFB07460021FEF733FF40B938462EF09E
:102F000019FD024604F10C0138462FF099FD761C9C
:102F1000032EE9D30EF03AFE05494046C96801B0D8
:102F2000BDE8F04F08473C46D3E70000E4130F0824
:102F3000CC0800200349002814BF03480348C86098
:102F400070470000CC080020454B03083F4B0308A6
:102F500070B5234C054682B02068418CB0F84C20F7
:102F600011444184818CB0F850201144818428465A
:102F70000AF058F92168498CADF800104618284627
:102F800010F0FEF93044401EADF804000AF0B6F926
:102F90002168898CADF802100844401EADF8060087
:102FA000684630F0E1F930B1284605F0FBFA2FF021
:102FB000E7FF0028F8D10A2D04D0BDF804002168ED
:102FC000401C48842068418CB0F84C20891A418408
:102FD000818CB0F85020891A818402B070BD000045
:102FE0004407002010B500F01FF800F019F810BDDC
:102FF00010B5002400BF00BFFDF7E6F8044600BF8F
:1030000000BF102105481BF0BDFE00BF00BF2046D9
:10301000FDF7DEF800BF00BF10BD0000B4200120A6
:1030200010B5FFF7E5FF10BD10B50020024908609C
:1030300000F00AF810BD0000B40200200149086049
:1030400070470000B402002010B5FEF71BFB0446D9
:103050000848006840F08070064908600020064972
:1030600048600846006840F0010008602046FFF70D
:10307000E5FF10BDFCED00E0001000E001494868EC
:1030800070470000001000E070B58AB00446656823
:103090001B49002022F0ECFE1A49002022F0A2FE7B
:1030A00018480078401E00EB4000174908441449B6
:1030B0008978CDE9001012484378027813A102A85C
:1030C00041F024F840F2611128462EF021FA06461C
:1030D00002A926F0D6FF0B48807800900948437873
:1030E000C27810A102A841F011F84FF4B07128463F
:1030F0002EF00EFA064602A926F0C3FF0AB070BDF4
:10310000CC000020D0000020D0280A0825302E3224
:10311000643A25302E32643A25302E326420253030
:103120002E337300323025302E32642F25302E326C
:10313000642F25302E32640030B50446DDF80CC013
:10314000581AACEB04056843151B90FBF5F00844D6
:1031500030BD70B500254FF4803400E0641E24B10A
:10316000802024F093FA0028F8D014B903252846CB
:1031700070BD40F2FF5024F045FA2846F8E7000001
:103180002DE9F041064600274748056801E046481A
:10319000056815F0450FFAD015F0040F06D0032787
:1031A000042024F02FFA3846BDE8F08115F0010F15
:1031B00005D00127012024F025FA3846F4E724F051
:1031C0005FFAB04202D010273846EDE740F2FF50D8
:1031D00024F018FA002024F079FA04463348044217
:1031E00001D13846E0E714F0004F01D01C20DBE7A6
:1031F00014F0804F01D00920D6E714F0005F01D011
:103200000A20D1E714F0805F01D00B20CCE714F046
:10321000006F01D00C20C7E714F0806F01D00D20A3
:10322000C2E714F0807F01D00E20BDE714F4000F38
:1032300001D00F20B8E714F4800F01D01020B3E7BD
:1032400014F4001F01D01120AEE714F4801F01D048
:103250001220A9E714F4002F01D01320A4E714F4DE
:10326000802F01D014209FE714F4003F01D01520D7
:103270009AE714F4803F01D0162095E714F4004F2C
:1032800001D0172090E714F4804F01D018208BE76D
:1032900014F4005F01D0192086E714F0080F01D064
:1032A0001A2081E738467FE7342C014008E0FFFD13
:1032B00070B500250F48046801E00E48046814F05A
:1032C000450FFAD014F0040F05D00325042024F094
:1032D00099F9284670BD14F0010F05D00125012091
:1032E00024F090F92846F5E740F2FF5024F08AF9DF
:1032F0002846EFE7342C014070B500250B480468E0
:1033000001E00A48046814F0450FFAD014F0040FE5
:1033100005D00325042024F075F9284670BD40F23D
:10332000FF5024F06FF92846F8E70000342C0140E4
:103330002DE9F04106460F464FF000082248056887
:1033400001E02148056815F0450FFAD015F0040F8B
:1033500007D04FF00308042024F054F94046BDE89C
:10336000F08115F0010F06D04FF00108012024F084
:1033700049F94046F3E724F083F9B04203D04FF017
:1033800010084046EBE740F2FF5024F03BF90020E4
:1033900024F09CF9044614F4604F03D1200C3880CB
:1033A0004046DCE714F4005F01D01320D7E714F4A3
:1033B000804F01D01020D2E714F4004F01D00F202D
:1033C000CDE74046CBE70000342C014070B5002625
:1033D0004FF480350F48046802E06D1E0D48046804
:1033E00014F0450F01D1002DF7D115B114F0040FE1
:1033F00005D00326042024F005F9304670BD14F0F2
:10340000400F05D00026402024F0FCF83046F5E7B8
:103410003046F3E7342C014038B504462069406853
:103420000090009820F00200801C00900099206914
:10343000416003202AF074FC38BD70B506460C4686
:1034400004F08000802808D104F07F0000EB8001A8
:1034500006F58E7000EBC10507E004F07F0000EB7D
:10346000800106F55D7000EBC10504F07F00287057
:1034700004F08000C0096870294630462BF08BF8B4
:10348000002070BD70B506460C4604F08000802810
:1034900008D104F07F0000EB800106F58E7000EB90
:1034A000C10505E004EB840106F55D7000EBC10584
:1034B0000020A87004F07F002870E0096870294699
:1034C00030462BF040F8002070BD70B505460C4624
:1034D00004F08000802805D104F07F0128462BF0FD
:1034E00091FA02E028462BF067FA002070BD2DE922
:1034F000F04106460D4690461F4605F080008028A4
:1035000008D105F07F0000EB800106F58E7000EB1E
:10351000C10407E005F07F0000EB800106F55D7057
:1035200000EBC10405F07F00207005F08000C009A9
:103530006070C4F80880E770607808B12078E08097
:10354000022F01D100202071214630462AF0AFFF22
:103550000020BDE8F0812DE9F04105460E461746F2
:10356000984606F07F0000EB800105F55D7000EBEA
:10357000C104E760C4F814800020A061607006F008
:103580007F002070E878012800D12761207820B9D9
:10359000214628462AF0AFFE03E0214628462BF0BC
:1035A0005BF80020BDE8F08108B500220092009A87
:1035B00061F30A12009202691268009B1A430369C0
:1035C0001A6008BD70B506460C4604F080008028DD
:1035D00008D104F07F0000EB800106F58E7000EB4F
:1035E000C10505E004EB840106F55D7000EBC10543
:1035F0000120A87004F07F002870E0096870294657
:1036000030462AF0F7FF002070BD2DE9F041074653
:103610000D461646984605F07F0000EB800107F541
:103620008E7000EBC1040120607005F07F002070F7
:10363000E66026610020A061C4F81480207820B9DB
:10364000214638462AF057FE03E0214638462BF043
:1036500003F80020BDE8F0811CB5044620462AF09E
:1036600015FEE068C068009020462BF0F5F90328AD
:103670000BD10020A0704FF40070A080009820F4BF
:10368000705000F51050009009E00120A07040201B
:10369000A080009820F4705000F5A0500090009891
:1036A000E168C86000200190019820F4005000F506
:1036B000005001900198E168486101201CBD0000A4
:1036C000F8B5054600240020009028462BF0A6FC03
:1036D00006468FE016F0010F7ED0E1B2284600F0DA
:1036E000FFFA00900098C0F3000030B3012000FA08
:1036F00004F72869406BB8432969486300200090AB
:10370000009820F00100401C009005F1180050F8CE
:103710002400009981603A480068E1B24268284676
:103720009047E878012808D13CB940F21110405D7B
:10373000042802D128462AF089FE0098C0F3C00070
:1037400060B100200090009820F008000830009040
:1037500005F1180050F82400009981600098C0F32A
:10376000001060B100200090009820F01000103090
:10377000009005F1180050F824000099816000982D
:10378000C0F3801060B100200090009820F040004D
:103790004030009005F1180050F824000099816035
:1037A0000098C0F3400060B100200090009820F025
:1037B0000200801C009005F1180050F824000099C8
:1037C00081600098C0F3C01030B12146284600F057
:1037D0009CFA0020009000E00AE0009820F08000B1
:1037E0008030009005F1180050F8240000998160A5
:1037F000641C7608002E7FF46DAF0120F8BD000038
:10380000600400207CB5044600250020019020467D
:103810002BF00CFC06466EE016F0010F69D0E9B201
:1038200020462BF00BFC01900198C0F30000C8B3B8
:1038300000200190019820F00100401C019004F14B
:10384000540050F8250001998160E078012817D1D3
:1038500004F1540050F825000069009005EB850143
:1038600004F55D7000EBC10080680099C1F312019E
:10387000411A05EB850204F55D7000EBC200816121
:103880001F480068E9B2026820469047E0780128A6
:1038900008D13DB940F21110005D052802D1204643
:1038A0002AF0D4FD0198C0F3400060B100200190DF
:1038B000019820F00200801C019004F1540050F89F
:1038C0002500019981600198C0F3C00088B10C48BF
:1038D000006881682046884700200190019820F008
:1038E00008000830019004F1540050F825000199B7
:1038F00081606D1C7608002E8ED101207CBD0000F9
:10390000600400203EB50446A07A70B1D4F80C01E2
:103910000090009820F002000090009820F0010034
:1039200000900099D4F80C010160002001900198EA
:1039300020F00100401C01902069406801998843F3
:10394000216948600848006881692046884700204E
:103950000290029820F0004000F10040029002988E
:10396000E168486101203EBD600400207CB504464A
:1039700000200190019820F0100010300190E068C4
:10398000806901998843E1688861E068006A009075
:103990000098C0F3030000EB800104F55D7000EBBC
:1039A000C1050098C0F3434007282DD2DFE800F09E
:1039B0002C04051D1E2C1F0027E00098C0F30A10E0
:1039C00090B10098C0F30A122046E9682BF05CFB26
:1039D000E8680099C1F30A110844E860A8690099F1
:1039E000C1F30A110844A8610FE00EE00DE00822BF
:1039F00004F2CC5120462BF047FBA8690099C1F393
:103A00000A110844A86100E000BF00BFE0688069B7
:103A100001990843E168886101207CBD38B50446FE
:103A200008480068C1682046884700200090009838
:103A300020F00800083000900098E16848610120FB
:103A400038BD0000600400203EB5044600254FF458
:103A50008970055D224800684169204688472069D1
:103A60008068009000200290029820F4006000F529
:103A7000006002900298E1684861A07A68B30098FB
:103A8000C0F30000012828D140F21510005D012884
:103A900023D1032D21D100200190019820F00100B5
:103AA000401C0190D4F80C01006801990843D4F837
:103AB0000C110860019820F00200801C0190D4F8DD
:103AC0000C01006801990843D4F80C1108600548FE
:103AD000006840F006000349086001203EBD000078
:103AE0006004002010ED00E030B587B004460020EF
:103AF000029006900590049003900190029820F0A7
:103B00000100401C029020694068029988432169A5
:103B10004860002120462AF075FF00250BE0FF21B8
:103B200004F1180050F82500816004F1540050F8A9
:103B3000250081606D1C6078A842F0D84FF0FF31FD
:103B40002069816106986FF30F00401C069006986B
:103B500080B200F58030069006992069C161059811
:103B600020F0080008300590059820F00100401C66
:103B70000590059820F00200801C059005992069A9
:103B80004161049820F00100401C0490049820F04A
:103B9000080008300490049820F00200801C049073
:103BA000049920690161206900680390039820F45A
:103BB000FE60039003992069016020462AF046FCCC
:103BC00000200190019820F4805000F58050019071
:103BD0000198E16848610448006801692046884707
:103BE000012007B030BD0000600400202DE9F04145
:103BF00006460F46394630462BF07AFA01214FF43B
:103C0000897081550021801C8155002511E005EB4C
:103C1000850106F58E7000EBC104012060702570EF
:103C2000E5800020E0704020A0600020E06060613E
:103C30006D1C7078A842EAD8002510E005EB8501DC
:103C400006F55D7000EBC104002060702570E58012
:103C5000E0704020A0600020E06060616D1C707822
:103C6000A842EBD830462AF0D1FA30462AF067F85D
:103C7000002130462BF0ACFA30462AF0F9F83046F5
:103C80002AF04EFEBDE8F08138B5044600200090D1
:103C900007480068C16920468847009820F48010D2
:103CA00000F5801000900098E1684861012038BD5F
:103CB0006004002038B504460020009007480068E2
:103CC000016A20468847009820F4001000F5001093
:103CD00000900098E1684861012038BD6004002030
:103CE00010B50246146923691469D4F834C02CFA5B
:103CF00001F404F0010443EAC41302F1180454F877
:103D00002140A46804EA030010BD2DE9F8430746EA
:103D10000E4600250020009006EB860107F58E7008
:103D200000EBC104D4E90501451AA068A84200D2FD
:103D3000A568E81C4FEA900807F1180050F8260023
:103D4000806900901BE0D4E90501451AA068A842EB
:103D500000D2A568E81C4FEA9008ABB2F2B2384630
:103D6000E1682CF085F9E0682844E060A069284407
:103D7000A06107F1180050F82600806900900098B3
:103D800080B2404506D9D4E90510884202D2606964
:103D90000028D8D10120BDE8F883000030B10749E0
:103DA000096841F00101054A116005E0034909680D
:103DB00021F00101014A1160704700000000055028
:103DC00030B10749096841F48041054A116005E0B6
:103DD0000349096821F48041014A116070470000DD
:103DE0000000055000210E4A126844F201039A4374
:103DF0000B4B1A601A46116840F6F2729143028822
:103E000043881A4383881A43C3881A4303891A4391
:103E100043891A4383891A431143014A1160704749
:103E2000000005501CB50121084621F077FD012155
:103E3000582021F043FD0C2200214A4805F0FEF8ED
:103E40000C220121474805F0F9F80C2204214548CD
:103E500005F0F4F80C220521424805F0EFF80C2299
:103E60000821404805F0EAF80C2209213D4805F0F8
:103E7000E5F80C220A213B4805F0E0F80C220E215F
:103E8000384805F0DBF80C220F21364805F0D6F84B
:103E90004CF23370009002208DF8040003208DF85E
:103EA000050000208DF806008DF8070069462D48B2
:103EB00005F07CF80C2204212B4805F0BFF80C22F9
:103EC0000521294805F0BAF80C220721264805F0FB
:103ED000B5F80C220821244805F0B0F80C2209217D
:103EE000214805F0ABF80C220A211F4805F0A6F87E
:103EF0000C220B211C4805F0A1F80C2211461A488F
:103F000005F09CF80C220D21174805F097F80C22BB
:103F10000E21154805F092F80C220F21124805F0E9
:103F20008DF84FF6B070009069460F4805F03EF8E6
:103F30000C220D210B4805F081F84FF40050009041
:103F40006946084805F032F80C220A21074805F0B6
:103F500075F84FF4806000906946044805F026F833
:103F60001CBD0000000C024000100240001802407E
:103F700000B597B006200190022002900420039023
:103F800001200490002005900690079004200890DE
:103F9000002009900A9010200B9000200C900D90AA
:103FA0000E900F9010904FF48050119000201290BE
:103FB0001390149001A81590169008A804F008F822
:103FC0000121042003F0EAFF17B000BD10B5074936
:103FD000074800F025F940B10449054800F042F8CF
:103FE000FEF7ACF801200349087010BD00880010EE
:103FF00028640240A800002010B5002400BF00BFC4
:10400000FCF7E2F8044600BF00BF08480078401CF7
:104010000649087000BF00BF2046FCF7D9F800BF72
:1040200000BF24F08DF81BF055FB10BD0C030020E1
:104030000246094B9A4201D2084801E0064810386E
:1040400011F0005F03D0064B0B40C36002E0044B4D
:104050000B40836070470000106402400060024023
:104060007D0F7D0F0246094B9A4201D2084801E0BC
:104070000648103811F0005F03D0064B0B40C360B8
:1040800002E0044B0B408360704700001064024064
:10409000006002407D0F7D0F21B1026842F00102F5
:1040A000026003E0026822F0010202607047000033
:1040B000016821F00101016000210160416081601F
:1040C000C1600161212141614A49884204D13D21F9
:1040D000484A103A91608CE046491831884205D12F
:1040E0004FF47461434A103A916082E041493031A3
:1040F000884205D14FF474113E4A103A916078E03D
:104100003C494831884205D14FF07461394A103A30
:1041100091606EE037496031884204D13649354AB2
:10412000103AD16065E033497831884204D133498F
:10413000304A103AD1605CE02E499031884204D177
:104140002F492C4A103AD16053E02A49A8318842BD
:1041500005D14FF03D51274A103AD16049E0294935
:10416000884204D13D21274A083A116041E025499F
:104170001831884205D14FF47461224A083A11601F
:1041800037E020493031884205D14FF474111D4A7F
:10419000083A11602DE01B494831884205D14FF0A3
:1041A0007461184A083A116023E016496031884268
:1041B00004D11149134A121F11601AE011497831D4
:1041C000884204D10D490F4A121F116011E00D49B8
:1041D0009031884204D10A490A4A121F116008E04E
:1041E0000849A831884204D14FF03D51054A121FB9
:1041F00011607047106002403D000020400F002019
:1042000000003D201064024021B1026842F020020B
:10421000026003E0026822F02002026070470000A2
:1042200030B50246002000248446124DAA4201D235
:10423000114B01E00F4B103B104D294206D01E25BB
:1042400005EAD124156805EA040C02E0556905F079
:10425000800C11F0005F01D05C6800E01C68084D24
:104260002C400C4204D0BCF1000F01D0012000E032
:10427000002030BD10640240006002403C0F3C0F43
:104280007D0F7D0F10B511F0800F09D022B1436969
:1042900043F08003436103E0436923F080034361FB
:1042A00080290BD02AB1036801F01E042343036068
:1042B00004E0036801F01E04A343036010BD000086
:1042C00010B500220268134B1A40CC680B682343D8
:1042D0004C6923438C692343CC6923430C6A2343F1
:1042E0004C6A23438C6A23434C6B23438C6B2343DC
:1042F0001A430260426922F00702D1E90B342343DA
:104300001A4342610B6943604B6883608B68C360EA
:1043100010BD00003F801CF02DE9F04389B00D4630
:10432000040004BF09B0BDE8F0830BF0F1F8112DD3
:104330006BD0132D57D02646204606F045F8029044
:10434000C06B06F0ABF9074602A806F0D5F8A5F158
:104350004100192898BF2035A8460024002F71DDA0
:104360000025304606F030F80590C06B214606F077
:10437000A1F9814605A806F0BFF85FEA090002D05E
:1043800006F022F805460395002D58D02878A0F1B4
:104390004101192998BF2030C5B203A806F0ACF836
:1043A00045454CD1002E4DD00BF0B2F8304606F00A
:1043B0000BF80190C06B06F071F9002818BF401E81
:1043C000844244DC0198B0F93410A14231D0848693
:1043D00001A806F091F830462DF000FE0421304689
:1043E0002DF013FF28E00BF093F8204605F0ECFFCA
:1043F0000090B0F93450684606F07EF80DF0C6FB28
:10440000691C204600F088FD1CE00BF081F8204676
:1044100005F0DAFF0190B0F9345001A806F06CF80D
:104420000DF0B4FB290018BF691E204600F074FD92
:1044300008E001A806F060F80DF0A8FB02E0641C9B
:10444000BC428DDB09B0BDE8F0430DF09FBB0446D4
:10445000B8E7002814BF00297047F8B50C46054698
:104460000BF056F8284605F0AFFF0090C66B684683
:1044700006F042F82046FBF76AFF421C2146304610
:1044800006F060F828462DF0A9FD0DF07FFBF8BD81
:10449000F0B54468054685B0204605F095FF0190CB
:1044A000D0F8886001A806F027F8002E14BF012775
:1044B0000027294620462BF01FFE002804BF05B028
:1044C000F0BD2868112876D006DC0B2870D00E28A5
:1044D0006FD00F286ED0D4E00027212805D02628E1
:1044E0002FD0B0F5107F6CD0CBE0E8684168002990
:1044F00043DD00680D2840D1304615F0EAFF002862
:1045000006DB304615F0E5FF0146204600F004FDCD
:10451000002C7CD00AF0FCFF204605F055FF0290ED
:10452000D0F8880038B12CF06DFC0298C0F8887083
:1045300020462DF053FD02A805F0DEFF0DF026FB0E
:104540009CE0E868012809D00A2802D00B2815D081
:1045500097E00A2120462DF058FE92E0304615F0F3
:10456000B8FF002809DB304615F0B3FF01462046AE
:1045700000F0D2FC20462EF0E1F882E0002C45D07D
:104580000AF0C6FF204605F01FFF0090D0F8880013
:1045900038B12CF037FC0098C0F8887020462DF018
:1045A0001DFD684605F0A8FF0DF0F0FA69E002E095
:1045B0002FE043E01BE0002F63D1E868007A38BBAE
:1045C0005FE0E86868B1007A28B1012120462DF04B
:1045D0001CFE05B0F0BD022120462DF016FE05B0F0
:1045E000F0BD032120462DF010FE05B0F0BD26469B
:1045F000204605F0E9FE0290D0F88400046802A885
:1046000005F07AFF002C1CBF3046A04739E035E0AA
:104610002CE0204605F0D8FE0090C06B05F0D4FFDA
:104620000098D0F888002CF0EDFB0098D0F89400AA
:1046300005F096FD684605F05FFF22E0E8684168F6
:1046400000291EDD0168202910D00ADC092911D0BB
:104650000A2918BF1B2914D02046FFF75DFE05B0BC
:10466000F0BD212918BF2229F6D10AE0204600F02A
:10467000FBF906E02CF092FFB04202D120462EF06A
:104680005DF828462CF084FB05B0F0BD002808BF7B
:10469000704738B504460AF03BFF204605F094FE0B
:1046A0000090D0F8880040B12CF0ACFB00990020BD
:1046B000C1F8880020462DF091FC684605F01CFFEB
:1046C0000DF064FA38BD70B586B0B0F90840458A7F
:1046D000D0F818C00026CDE90254CDE90016CDF877
:1046E00010C0B0F90C10B0F91040B0F90EC0B0F91C
:1046F0000A00194410442346624600F003F806B04D
:1047000070BD00002DE9FF4F85B01E46DDE914475E
:10471000DDE9128992468B46169D0AF0F9FE05F1F5
:104720006C003049CDE90210CDE900894FF0FF332C
:104730005246594605982CF06FFA05004BD005F00B
:1047400043FE1022394600902BF09CFF009880F821
:104750008C40254C4C30B4E88E17A0E88E1794E8B6
:104760008E11A0E88E1154F8241D40F88419002100
:1047700080F89010C686284605F026FE0190B0F914
:10478000381019B9C06C08F06BFE01460198C26A76
:10479000B0F98030126801EB430156182EF0D6FDB7
:1047A000074601A805F0A8FE3246394628462EF0F5
:1047B00047F9684605F0A0FE05F003FF06462846C7
:1047C00005F002FE0090C663684605F095FE20687D
:1047D0004168284688470DF0D9F909B02846BDE858
:1047E000F08F00009144000810090020002808BF45
:1047F0007047F8B50D46064600F086FA854228BF98
:10480000F8BD0AF085FE304605F0DEFD0090D0F8D8
:104810008840C06B294605F006FF684605F06CFE2F
:1048200030462DF0DBFB1CB12946204615F006FE74
:104830000DF0ACF9F8BD00002DE9F041044688B058
:10484000006805F0C1FD0690468ED0F8885006A895
:1048500005F052FE002D18BF012506F00106206864
:104860002EF04AFF002D18BF00200FD07D4951F8CF
:1048700020506068002800F0EE80022800F0CE8012
:1048800005280CD012287DD000F0E8B8002E18BF03
:104890000120EBD1002814BF02200320E6E7D5E970
:1048A0000123A86A29688DE80F0004F110000FC8E1
:1048B0000DF0F0FF5FF0000655F826000CF063FDE8
:1048C000A169A86A0A1A216901446069304407F0A5
:1048D000E1FDA169A86A0A1A21690144E069801B07
:1048E00007F0D8FDE169A86A0A1A616901442069E4
:1048F000304407F0B9FEE169A86A0A1A6169014407
:10490000A069801B07F0B0FE761C022ED4DBA86ADB
:1049100002281BDDA8680CF036FDE169A86AD4F80E
:1049200010C00B1A0CEB00014A1E616901440CF126
:10493000020007F061FFE169A86AA2690B1A6169C8
:104940000144101A401C921E07F056FFD5E90301DE
:10495000CDE90001E1696069A26901444B10A96ACF
:10496000D4F810C0521A8C44811C604607F058FBE2
:10497000D5E90501CDE90001A069AB6A6169C21AF8
:10498000E06900E019E001444FF0010C0CEB61011B
:10499000D4F810C09C44831E604607F041FB686A4F
:1049A0000CF0F1FCE2696169A369501A181A401C05
:1049B000091D121F07F058FE50E0206805F004FDA5
:1049C0000090B0F88060B0F98280C76C684605F04E
:1049D00093FD208AB11C0844ADF80800A08A801C11
:1049E000ADF80A00A08BA18A401A218B891B081AF6
:1049F000C01EADF80C00A08B801EADF80E0002208A
:104A00000CF062FD38460CF0D5FC286A0CF0BBFCBB
:104A1000424602A9206A06F0E7FF1FE06169E069EB
:104A20004FF0FF32401AA0F1080102EB6106411C71
:104A3000A269801B4410A2EB6107E8690CF0A3FC9B
:104A4000002E0BDBBA19B91B204607F023FD641CAE
:104A5000761EF7D502E020682DF052FF08B0002046
:104A6000BDE8F08150150F08002808BF70472DE9F8
:104A7000F04F9DB006460AF04BFD304605F0A4FC11
:104A80000E9030462CF03EFF82460E98B0F93670FC
:104A900090F89010099190F88C80D0F83C90B0F983
:104AA00034000690484605F0F9FD04460E98B0F82B
:104AB0008E100C91B0F982100791C16C0891D0E969
:104AC0000012CDE90412D0F89450016D1091416D9F
:104AD0001191816D1291C16D1391016E1491416E0E
:104AE0001591016F1691416F1791806F18900EA864
:104AF00005F002FD30462CF027FE05F065FC0D9018
:104B0000D0F800B00DA805F0F7FC4FEA2B40424268
:104B10000FFA8BF0414204A80BF0B6FE18F0020F1A
:104B20001ABFBDF81200C01BBDF81600ADF8120088
:104B300030462CF009FE0221CDF800A0CDE901712C
:104B40000146BDF91230BDF91020002015F0FDFB23
:104B5000074618F0010F07D03846099915F0B1FF44
:104B60000121384615F0BEFE4FF00008002C0BD98D
:104B70004146484605F09EFD0146384615F01AF9B3
:104B800008F101084445F3D800240DF1400800BFA6
:104B900058F824202146384615F0D1FE641C032C19
:104BA000F6D300240DF14C08214658F8242038464D
:104BB00016F0ADF8641C032CF6D300240DF1580850
:104BC000214658F82420384615F059FF641C032C60
:104BD000F6D315B3284605F0F7FB0F9030F8028B9B
:104BE00000240546B8F1000FC8BF4FF0010911DDE0
:104BF00005EBD40004F00701007809FA01F108423E
:104C000014BF012200222146384615F0CEFE641C56
:104C10004445EDDB0FA805F06FFC38460C9915F004
:104C2000FEFE3846089915F0A5FE3846079916F09D
:104C300057F838462DF082FD3146384615F008FF0A
:104C40003846069915F05CFF012130462DF0DDFA5B
:104C5000304605F0B9FB0E90C0F888700EA805F03C
:104C60004BFC0CF093FF1DB0BDE8F08F01480068CD
:104C700070470000100900202DE9F04383B01D4665
:104C800017460C4606004FF0010818BF002D35DD11
:104C90000AF03EFC304605F097FB0190C06B05F032
:104CA000FDFC844225D2A1463046002405F08CFB51
:104CB0000290C06B494605F0FDFC064602A805F0CF
:104CC0001BFC1EB1304605F07FFB0446200000901F
:104CD0000FD0FBF73CFB0446A84213DC3846009992
:104CE000FBF758FB00203855684605F005FC4FF0EF
:104CF000000801A805F000FC0CF048FF03B0404696
:104D0000BDE8F0832C46E9E738B505004FF0000414
:104D10000DD00AF0FDFB284605F056FB009000F090
:104D200068F90446684605F0E7FB0CF02FFF2046C3
:104D300038BD38B505004FF000040CD00AF0E8FB90
:104D4000284605F041FB0090B0F93440684605F074
:104D5000D3FB0CF01BFF204638BD002814BF0029F0
:104D600070472DE9F04383B015460E4607460AF01A
:104D7000CFFB3846FFF7C8FF8146384605F024FBD5
:104D80000090D0F83C80D0F88840684605F0B4FB2D
:104D90004D451BD23046FBF7DAFA421C2946404605
:104DA00005F0C3FC40B105F00FFB31460190FBF765
:104DB000F1FA01A805F0A0FB38462DF00FF974B107
:104DC0002A463146204615F098FB08E03146384621
:104DD000FFF73FFB1CB13146204614F074FF0CF086
:104DE000D5FE03B0BDE8F083002808BF7047F8B5D2
:104DF0000E4604460AF08CFB204605F0E5FA0090CA
:104E000090F88C10D0F8885021F00104002E18BFC3
:104E100044F00104A1420BD080F88C40684605F0B4
:104E20006BFB45B104F00101284615F05BFD02E083
:104E3000684605F061FB0CF0A9FEF8BD002818BF1C
:104E4000032928BF7047F8B514460D4607460AF0F7
:104E50005FFB384605F0B8FA0090D0F8886000EBA8
:104E60008500016DA1420DD00465684605F044FB44
:104E700038462DF0B3F846B122462946304615F0A3
:104E80005EFD02E0684605F037FB0CF07FFEF8BDE2
:104E9000014908607047000010090020044A0349D6
:104EA000116004490A6B08631046704748090020E6
:104EB0000C09002010090020002808BF7047F8B531
:104EC0000C4607460AF024FB384605F07DFA0090B0
:104ED000D0F88850C06C08F0C3FA06460098C46445
:104EE000684605F009FB384600F061F838462DF0B9
:104EF00075F875B1204608F0B3FAB04205D03846CF
:104F0000FFF7C4FB3846FFF7AFFD2146284615F0F2
:104F100031FD0CF03BFEF8BD38B50C46050008BF6E
:104F200038BD0AF0F5FA284605F04EFA0090C06B3D
:104F300005F0B4FB002818BF401E844216DC009820
:104F4000B0F93410A1420BD08486684605F0D4FA3B
:104F500028462DF043F8042128462DF056F902E0AA
:104F6000684605F0C9FA0CF011FE38BD0446E6E7C4
:104F7000F8B50D4606004FF0000416D00AF0C8FA46
:104F8000304605F021FA009090F88C20002DC2F3F5
:104F900040040CBF22F0020142F0020180F88C10A4
:104FA000684605F0A9FA0CF0F1FD2046F8BDF8B509
:104FB000044605F009FA01460090B0F938000028CF
:104FC00004BFC86C08F04CFA0099CA6AB1F9803085
:104FD000126800EB4300151808462EF0B7F9064694
:104FE000684605F089FA2A46314620462DF028FD0C
:104FF000F8BDC06B05F052BB38B50D46002405F076
:10500000E3F90090C06B294605F054FB054668465D
:1050100005F072FA1DB1284605F0D6F9044620467F
:1050200038BD704700E0401E0028FCD170470028C2
:1050300008BF70472DE9F04F91B00E4604460AF0C4
:1050400067FA204605F0C0F9039090F854A0D0F814
:105050003490876DC56C03A805F04EFA27B1314630
:105060002046B84700F0B8B901274FF00008122ECB
:1050700075D006DC082E73D0102E72D0112E3DD0C4
:1050800006E0132E70D01D2E00F0F3801E2E6AD085
:10509000202EC0F2A181BAF1000F00F0018120465C
:1050A00005F092F90590D0F834A0D0F84C9005A8FE
:1050B00005F022FABAF1000F00F0F280504605F038
:1050C00083F98246494606900CF03AFC81465046E8
:1050D000FBF73DF9484540F2E080D14448460CF0EA
:1050E000E9FB09EB00014846FBF754F906A805F077
:1050F00003FA052120462DF088F8D1E0B9F1000F20
:1051000000F06A81484605F05FF90646294604909A
:105110000CF016FC064430460CF0BCFB0546CDF8FE
:1051200008800CF0D7FB0746681C1FFA80F8404641
:105130000CF0D0FB0546AF420CD1414602A80CF062
:1051400097FB2A4602A93046FBF795F80521204631
:105150002DF05BF804A805F0CFF900F03DB92FE081
:105160003AE033E000E059E0B9F1000F00F034819B
:10517000484605F029F90646294604900CF0E0FB64
:10518000064430460CF086FB0546CDF808800CF04E
:10519000A1FB8046681E87B238460CF09BFB054693
:1051A000A845D7D1394602A80CF062FB2A4602A9CD
:1051B0003046FBF760F8052120462DF026F8C9E7B8
:1051C000691C204600F08CFC00F006B9691E2046E0
:1051D00000F086FC00F000B9002D00F0FD80691E93
:1051E000204600F07DFC204605F0EEF80190C76CEB
:1051F000456B01A805F080F9002D00F0ED802846F0
:1052000005F0E2F80646394602900CF099FB054697
:105210003046FBF79CF8A84229D918E0204605F053
:10522000D3F80190C76C456B01A805F065F9002D16
:105230007CD0284605F0C8F80646394602900CF0A6
:105240007FFB05463046FBF782F8A8420FD935446C
:1052500028460CF02FFB29182846FBF79BF802A8DC
:1052600005F04AF9052120462CF0CFFFB4E002A852
:1052700010E0204605F0A8F80390BAF1010F08BF2E
:1052800080F8548005D080F854702946204600F0FC
:1052900027FC03A805F030F99EE006A805F02CF9DC
:1052A000B0B20890204605F08FF806460290B0F99B
:1052B0003800002813DD706B4FF0000940B105F095
:1052C00083F800900EF04CF88146684605F014F91A
:1052D000B6F9381009F101008842C8BF4746029864
:1052E000C06C099002A805F007F9002F74D0089847
:1052F0000CF0F0FA074626464FF00009204605F06C
:1053000063F80590406B40B105F05EF80A90FBF73A
:105310001EF881460AA805F0EFF8059907EB090089
:10532000498F401A00F1010905A800E054E005F09A
:10533000E3F8B9F1000F2ADD304609F1100905F054
:1053400043F80090D0F834B0408F00EB090A68466B
:1053500005F0D2F85146584605F04CF85FEA0009CE
:105360003AD0BBF1000F07D105F02EF80D9080F870
:1053700000800DA805F0C0F8304605F025F8009033
:10538000A0F83AA0C0F83490684605F0B5F8204679
:1053900005F01AF80290466B02A805F0ADF8304609
:1053A00005F012F806460F9009990CF0C9FA064468
:1053B0003046FAF7CCFF421CF0193146FAF75BFF92
:1053C000304608990CF054FA0FA805F095F805211D
:1053D00020462CF01AFFF3E620462CF0FFFD0CF0DF
:1053E000D5FB11B0BDE8F08F70B54468054682B0BA
:1053F00020462EF081F90646294620462AF07CFEFA
:10540000002804BF02B070BD28680F2836D004DC25
:105410000B2839D00E2842D058E0A0F58070133800
:1054200004D0A0F580702D3811D04FE020462DF02B
:1054300079F8204600213BF085FA204604F0C4FFAD
:105440000190C06F00212CF0B6FF01A824E0E868AD
:1054500078B1017A41B10168204600F0D7F8012106
:1054600020462CF0D2FE31E0022120462CF0CDFE69
:105470002CE0032120462CF0C8FE27E00121204625
:105480003BF060FA02B070BD204604F09DFF009032
:10549000343004F09BFE684605F02EF816E0AEB1FD
:1054A000E8684168002911DD01681B290ED009DC7C
:1054B00009291CBF0A290D2908D02046FFF7B7FD8E
:1054C00002B070BD212918BF2229F6D128462BF041
:1054D0005FFC02B070BD70B5044686B0D4E9056CBF
:1054E000B0F90850408A0DF1080E8EE861100020D6
:1054F000CDE90010B4F90C00B4F91050C118B4F99A
:105500000A00B4F90EC010442B46624600F008F8B9
:1055100005001CBF618A00F088FA284606B070BDFD
:105520002DE9FF4F85B09846DDE91654DDE9126B91
:1055300091468A46159F09F0EBFF04F15802314964
:105540004BF48050CDE90212CDE9006043464A4653
:10555000514605982BF060FB04004CD004F034FF5A
:105560001022394604902BF08DF8DFF89CC0049986
:105570009CE8CD1101F1600989E8CD11012081F885
:105580005500681C18BF012081F88000002DD8BF8D
:10559000082528B2088700254D87461C04A84D63BE
:1055A00004F0AAFF204604F00FFF0090D0F83480EA
:1055B000408F8719684604F09FFF3946404604F043
:1055C00019FF060013D0B8F1000F06D104F0FCFE5D
:1055D0000190057001A804F08FFF204604F0F4FE4E
:1055E000009047874663684604F086FF03E0204644
:1055F0002BF008FC00240CF0C9FA09B02046BDE8E5
:10560000F08F0000E9530008040A0020002808BFBA
:1056100070472DE9F04186B00C46074609F078FF47
:10562000384604F0D1FE0090406B002849D004F0C9
:10563000CBFE03900098806E0BF0BCFE804638468F
:105640002CF060F90646039807F098FE054600988E
:1056500090F8601001F00301012918D002290FD041
:10566000416EC06A00680844201A441E03980DF079
:1056700077FE002C11DA0021384600F031FA17E0ED
:10568000701B401C00EBD070A4EB6004EEE7406E92
:10569000711B081A201A441CE8E7A54204DB0246E5
:1056A000214603980DF0E6FD0146384600F018FA51
:1056B00003A804F021FF40460BF07CFE38462CF096
:1056C0008DFC684604F018FF0CF060FA06B0BDE8E7
:1056D000F08100002DE9F8431D46DDE90869144614
:1056E0008846074609F014FF002F5FD0384604F0C3
:1056F0006BFE3049009081652F49C1650021C0E9EA
:105700001281C0E90F4580F8446080F8569001216D
:1057100080F8541090F88080684604F0EDFEB8F1EF
:10572000000F2AD0002DAEBF012002206D42234B76
:105730000A2D07DB83FB05218A10A2EBE175401CD3
:105740000A2DF7DA002CBABF0221644201210A2C8B
:1057500009DB00BF83FB04C24FEAA20CACEBE2748E
:10576000491C0A2CF6DA002E1CBF401C491C88423A
:10577000C8BF0146384600F0F5F838463EF0FEF85E
:10578000384604F021FE009000F095F90C490978A4
:10579000884205D10098C06C411C384600F0A0F941
:1057A000684604F0A9FE38462CF018FC0CF0EEF91F
:1057B000BDE8F883814503087D390408676666669D
:1057C0003807002000000000002808BF70472DE9BE
:1057D000F04116462DED068B82B00C46F0EE418A64
:1057E000B0EE60AAB0EE409A074609F091FE284854
:1057F00050F8240000EE100AB8EE408A28EE090A9C
:1058000010EE100AFAF747FF9FED239B53EC192B7C
:10581000FAF7E8FD41EC100B3EF01AFD51EC100BCD
:10582000FAF703FF28EE0A0A054610EE100AFAF707
:1058300032FF53EC192BFAF7D5FD41EC100B3EF07B
:1058400007FD51EC100BFAF7F0FE28EE280A80460F
:1058500010EE100AFAF71FFF53EC192BFAF7C2FDEE
:1058600041EC100B3EF0F4FC51EC100BFAF7DDFEAE
:10587000CDE900460346424629463846FFF72AFF4F
:1058800002B0BDEC068BBDE8F0410CF07FB9000022
:10589000C8170F0800000000000000000000E03FF3
:1058A000002808BF704710B504462DED028B82B06A
:1058B000B0EE408A09F02CFE204604F085FD0090F1
:1058C00090F84400164951F8200000EE100A68468E
:1058D000B8EE400A28EE008A04F00EFE18EE100A18
:1058E000FAF7D9FE41EC100BB5EEC08AF1EE10FAD2
:1058F000ACBF9FED0D1B9FED0E1B53EC112B51EC1C
:10590000100BFAF76FFDFAF790FE0146204600F003
:10591000A3F80CF03BF902B0BDEC028B10BD000007
:10592000C8170F0800000000000000000000E03F62
:10593000000000000000E0BF002808BF704738B535
:105940000C46054609F0E4FD284604F03DFD0090B4
:10595000846628462CF042FB684604F0CDFD0CF02E
:1059600015F938BD002808BF70472DE9F04385B010
:105970000C46054609F0CCFD284604F025FD0090B4
:10598000B0F93810468F4FF00008A14245D012DD23
:10599000406B80B104F018FD01900DF0E1FCA042D5
:1059A00006DD214601980BF0CBFF019901F800803C
:1059B00001A804F0A1FD684604F09EFDA01B461C52
:1059C000284604F001FD0290D0F83490408F8719EA
:1059D00002A804F091FD3946484604F00BFD06008C
:1059E00013D0B9F1000F07D104F0EEFC039080F85A
:1059F000008003A804F080FD284604F0E5FC029036
:105A00004787466302A804F077FD284604F0DCFCD3
:105A10000090048728462CF0E1FA684604F06CFDFB
:105A20000CF0B4F805B0BDE8F083002808BF70475B
:105A300038B50D46044609F06BFD204604F0C4FC61
:105A4000009018B1056620462CF0C8FA684604F0AC
:105A500053FD0CF09BF838BD38B505000C4608BF67
:105A600038BD09F055FD284604F0AEFC0090C16B2E
:105A7000A1421CDC016CA1421BDB816CA14210D055
:105A80008464C16D00291CBF2846884728462CF035
:105A9000A5FA684604F030FD052128462CF0B5FB38
:105AA00002E0684604F028FD0CF070F838BD0C46A2
:105AB000E0E70C46E1E738B50546406B002468B1E5
:105AC00004F082FC00900446E96C0BF039FF20449E
:105AD0000BF0E0FE0446684604F00EFD204638BD9B
