:020000040800F2
:10000000F8D40120C16C0F08C9800B08CB800B0805
:10001000D5800B08D7800B08D9800B0800000000A2
:10002000000000000000000000000000DB800B0862
:10003000DD800B080000000067940208FF3B020807
:1000400091780F0895780F0899780F089D780F0818
:10005000A1780F08A5780F08A9780F08AD780F08C8
:10006000B1780F08B5780F08B9780F08BD780F0878
:10007000C1780F08C5780F08C9780F08CD780F0828
:10008000D1780F08D5780F08D9780F08DD780F08D8
:10009000E1780F08E5780F08E9780F08ED780F0888
:1000A000F1780F08F5780F08F9780F08FD780F0838
:1000B00001790F0805790F0809790F080D790F08E4
:1000C00011790F0815790F0819790F081D790F0894
:1000D00027810B0821790F0825790F0829790F0846
:1000E000151303084B810B082D790F0831790F0880
:1000F00035790F0839790F083D790F0841790F08D4
:1001000045790F08DF800B0849790F084D790F08F2
:1001100051790F0855790F0859790F085D790F0843
:1001200061790F0819A90A0865790F0803810B087E
:1001300069790F086D790F0871790F0875790F08C3
:1001400079790F087D790F0881790F0885790F0873
:1001500089790F088D790F0891790F0895790F0823
:1001600099790F089D790F08A1790F08A5790F08D3
:10017000A9790F08218D0B08AD790F08B1790F0807
:10018000B5790F08B9790F0808080100805D0F08DC
:1001900008080100905D0F0808080100A05D0F0825
:1001A00008080100B05D0F0808080100C05D0F08D5
:1001B00008080100D05D0F0808080100E05D0F0885
:1001C00008080100F05D0F0808080100005E0F0834
:1001D00008080100105E0F0808080100205E0F08E3
:1001E00008080100305E0F0808080100405E0F0893
:1001F00008080100505E0F0808080100605E0F0843
:1002000008080100705E0F0808080100805E0F08F2
:1002100008080100905E0F0808080100A05E0F08A2
:1002200008080100B05E0F0808080100C05E0F0852
:1002300008080100D05E0F0808080100E05E0F0802
:1002400008080100F05E0F0808080100005F0F08B1
:1002500008080100105F0F0808080100205F0F0860
:1002600008080100305F0F0808080100405F0F0810
:1002700008080100505F0F0808080100605F0F08C0
:1002800008080100705F0F0808080100805F0F0870
:1002900008080100905F0F0808080100A05F0F0820
:1002A00008080100B05F0F0808080100C05F0F08D0
:1002B00008080100D05F0F0808080100E05F0F0880
:1002C00008080100F05F0F080808010000600F082F
:1002D0000808010010600F080808010020600F08DE
:1002E0000808010030600F080808010040600F088E
:1002F0000808010050600F080808010060600F083E
:100300000808010070600F080808010080600F08ED
:100310000808010090600F0808080100A0600F089D
:1003200008080100B0600F0808080100C0600F084D
:1003300008080100D0600F0808080100E0600F08FD
:1003400008080100F0600F080808010000610F08AC
:100350000808010010610F080808010020610F085B
:100360000808010030610F080808010040610F080B
:100370000808010050610F080808010060610F08BB
:100380000808010070610F080808010080610F086B
:100390000808010090610F0808080100A0610F081B
:1003A00008080100B0610F0808080100C0610F08CB
:1003B00008080100D0610F0808080100E0610F087B
:1003C00008080100F0610F080808010000620F082A
:1003D0000808010010620F080808010020620F08D9
:1003E0000808010030620F080808010040620F0889
:1003F0000808010050620F080808010060620F0839
:100400000808010070620F080808010080620F08E8
:100410000808010090620F0808080100A0620F0898
:1004200008080100B0620F0808080100C0620F0848
:1004300008080100D0620F0808080100E0620F08F8
:1004400008080100F0620F080808010000630F08A7
:100450000808010010630F080808010020630F0856
:100460000808010030630F080808010040630F0806
:100470000808010050630F080808010060630F08B6
:100480000808010070630F081010020058990B084B
:100490001010020078990B081010020098990B08B0
:1004A00010100200B8990B0810100200D8990B0820
:1004B00010100200F8990B0810100200189A0B088F
:1004C00010100200389A0B0810100200589A0B08FE
:1004D00010100200789A0B0810100200989A0B086E
:1004E00010100200B89A0B0810100200D89A0B08DE
:1004F00010100200F89A0B0810100200189B0B084D
:1005000010100200389B0B0810100200589B0B08BB
:1005100010100200789B0B0810100200989B0B082B
:1005200010100200B89B0B0810100200D89B0B089B
:1005300010100200F89B0B0810100200189C0B080A
:1005400010100200389C0B0810100200589C0B0879
:1005500010100200789C0B0810100200989C0B08E9
:1005600010100200B89C0B0810100200D89C0B0859
:1005700010100200F89C0B0810100200189D0B08C8
:1005800010100200389D0B0810100200589D0B0837
:1005900010100200789D0B0810100200989D0B08A7
:1005A00010100200B89D0B0810100200D89D0B0817
:1005B00010100200F89D0B0810100200189E0B0886
:1005C00010100200389E0B0810100200589E0B08F5
:1005D00010100200789E0B0810100200989E0B0865
:1005E00010100200B89E0B0810100200D89E0B08D5
:1005F00010100200F89E0B0810100200189F0B0844
:1006000010100200389F0B0810100200589F0B08B2
:1006100010100200789F0B0810100200989F0B0822
:1006200010100200B89F0B0810100200D89F0B0892
:1006300010100200F89F0B081010020018A00B0801
:100640001010020038A00B081010020058A00B0870
:100650001010020078A00B081010020098A00B08E0
:1006600010100200B8A00B0810100200D8A00B0850
:1006700010100200F8A00B081010020018A10B08BF
:100680001010020038A10B081010020058A10B082E
:100690001010020078A10B081010020098A10B089E
:1006A00010100200B8A10B0810100200D8A10B080E
:1006B00010100200F8A10B081010020018A20B087D
:1006C0001010020038A20B081010020058A20B08EC
:1006D0001010020078A20B081010020098A20B085C
:1006E00010100200B8A20B0810100200D8A20B08CC
:1006F00010100200F8A20B081010020018A30B083B
:100700001010020038A30B081010020058A30B08A9
:100710001010020078A30B081010020098A30B0819
:1007200010100200B8A30B0810100200D8A30B0889
:1007300010100200F8A30B081010020018A40B08F8
:100740001010020038A40B081010020058A40B0867
:100750001010020078A40B081010020098A40B08D7
:1007600010100200B8A40B0810100200D8A40B0847
:1007700010100200F8A40B081010020018A50B08B6
:100780001010020038A50B081010020058A50B0825
:100790001010020078A50B081010020098A50B0895
:1007A00010100200B8A50B0810100200D8A50B0805
:1007B00010100200F8A50B081010020018A60B0874
:1007C0001010020038A60B081010020058A60B08E3
:1007D0001010020078A60B081010020098A60B0853
:1007E00010100200B8A60B0810100200D8A60B08C3
:1007F00010100200F8A60B081010020018A70B0832
:100800001010020038A70B081010020058A70B08A0
:100810001010020078A70B081010020098A70B0810
:1008200010100200B8A70B0810100200D8A70B0880
:1008300010100200F8A70B081010020018A80B08EF
:100840001010020038A80B081010020058A80B085E
:100850001010020078A80B081010020098A80B08CE
:1008600010100200B8A80B0810100200D8A80B083E
:1008700010100200F8A80B081010020018A90B08AD
:100880001010020038A90B081010020058A90B081C
:100890001010020078A90B081010020098A90B088C
:1008A00010100200B8A90B0810100200D8A90B08FC
:1008B00010100200F8A90B081010020018AA0B086B
:1008C0001010020038AA0B081010020058AA0B08DA
:1008D0001010020078AA0B081010020098AA0B084A
:1008E00010100200B8AA0B0810100200D8AA0B08BA
:1008F00010100200F8AA0B081010020018AB0B0829
:100900001010020038AB0B081010020058AB0B0897
:100910001010020078AB0B081010020098AB0B0807
:1009200010100200B8AB0B0810100200D8AB0B0877
:1009300010100200F8AB0B081010020018AC0B08E6
:100940001010020038AC0B081010020058AC0B0855
:100950001010020078AC0B081010020098AC0B08C5
:1009600010100200B8AC0B0810100200D8AC0B0835
:1009700010100200F8AC0B081010020018AD0B08A4
:100980001010020038AD0B081010020058AD0B0813
:100990001010020078AD0B081010020098AD0B0883
:1009A00010100200B8AD0B0810100200D8AD0B08F3
:1009B00010100200F8AD0B081010020018AE0B0862
:1009C0001010020038AE0B081010020058AE0B08D1
:1009D0001010020078AE0B081010020098AE0B0841
:1009E00010100200B8AE0B0810100200D8AE0B08B1
:1009F00010100200F8AE0B081010020018AF0B0820
:100A00001010020038AF0B081010020058AF0B088E
:100A10001010020078AF0B081010020098AF0B08FE
:100A200010100200B8AF0B0810100200D8AF0B086E
:100A300010100200F8AF0B081010020018B00B08DD
:100A40001010020038B00B081010020058B00B084C
:100A50001010020078B00B081010020098B00B08BC
:100A600010100200B8B00B0810100200D8B00B082C
:100A700010100200F8B00B081010020018B10B089B
:100A80001010020038B10B081010020058B10B080A
:100A90001010020078B10B081010020098B10B087A
:100AA00010100200B8B10B0810100200D8B10B08EA
:100AB00010100200F8B10B081010020018B20B0859
:100AC0001010020038B20B081010020058B20B08C8
:100AD0001010020078B20B081010020098B20B0838
:100AE00010100200B8B20B0810100200D8B20B08A8
:100AF00010100200F8B20B081010020018B30B0817
:100B00001010020038B30B081010020058B30B0885
:100B10001010020078B30B081010020098B30B08F5
:100B200010100200B8B30B0810100200D8B30B0865
:100B300010100200F8B30B081010020018B40B08D4
:100B40001010020038B40B081010020058B40B0843
:100B50001010020078B40B081010020098B40B08B3
:100B600010100200B8B40B0810100200D8B40B0823
:100B700010100200F8B40B081010020018B50B0892
:100B80001010020038B50B081010020058B50B0801
:100B90001010020078B50B081010020098B50B0871
:100BA00010100200B8B50B0810100200D8B50B08E1
:100BB00010100200F8B50B081010020018B60B0850
:100BC0001010020038B60B081010020058B60B08BF
:100BD0001010020078B60B081010020098B60B082F
:100BE00010100200B8B60B0810100200D8B60B089F
:100BF00010100200F8B60B081010020018B70B080E
:100C00001010020038B70B081010020058B70B087C
:100C10001010020078B70B081010020098B70B08EC
:100C200010100200B8B70B0810100200D8B70B085C
:100C300010100200F8B70B081010020018B80B08CB
:100C40001010020038B80B081010020058B80B083A
:100C50001010020078B80B081010020098B80B08AA
:100C600010100200B8B80B0810100200D8B80B081A
:100C700010100200F8B80B081010020018B90B0889
:100C80001010020038B90B081010020058B90B08F8
:100C90001010020078B90B081010020098B90B0868
:100CA00010100200B8B90B0810100200D8B90B08D8
:100CB00010100200F8B90B081010020018BA0B0847
:100CC0001010020038BA0B081010020058BA0B08B6
:100CD0001010020078BA0B081010020098BA0B0826
:100CE00010100200B8BA0B0810100200D8BA0B0896
:100CF00010100200F8BA0B081010020018BB0B0805
:100D00001010020038BB0B081010020058BB0B0873
:100D10001010020078BB0B081010020098BB0B08E3
:100D200010100200B8BB0B0810100200D8BB0B0853
:100D300010100200F8BB0B081010020018BC0B08C2
:100D40001010020038BC0B081010020058BC0B0831
:100D50001010020078BC0B081010020098BC0B08A1
:100D600010100200B8BC0B0810100200D8BC0B0811
:100D700010100200F8BC0B081010020018BD0B0880
:100D80001010020038BD0B081010020058BD0B08EF
:100D90001010020078BD0B081010020098BD0B085F
:100DA00010100200B8BD0B0810100200D8BD0B08CF
:100DB00010100200F8BD0B081010020018BE0B083E
:100DC0001010020038BE0B081010020058BE0B08AD
:100DD0001010020078BE0B081010020098BE0B081D
:100DE00010100200B8BE0B0810100200D8BE0B088D
:100DF00010100200F8BE0B081010020018BF0B08FC
:100E00001010020038BF0B081010020058BF0B086A
:100E10001010020078BF0B081010020098BF0B08DA
:100E200010100200B8BF0B0810100200D8BF0B084A
:100E300010100200F8BF0B081010020018C00B08B9
:100E40001010020038C00B081010020058C00B0828
:100E50001010020078C00B081010020098C00B0898
:100E600010100200B8C00B0810100200D8C00B0808
:100E700010100200F8C00B081010020018C10B0877
:100E80001010020038C10B081010020058C10B08E6
:100E90001010020078C10B081010020098C10B0856
:100EA00010100200B8C10B0810100200D8C10B08C6
:100EB00010100200F8C10B081010020018C20B0835
:100EC0001010020038C20B081010020058C20B08A4
:100ED0001010020078C20B081010020098C20B0814
:100EE00010100200B8C20B0810100200D8C20B0884
:100EF00010100200F8C20B081010020018C30B08F3
:100F00001010020038C30B081010020058C30B0861
:100F10001010020078C30B081010020098C30B08D1
:100F200010100200B8C30B0810100200D8C30B0841
:100F300010100200F8C30B081010020018C40B08B0
:100F40001010020038C40B081010020058C40B081F
:100F50001010020078C40B081010020098C40B088F
:100F600010100200B8C40B0810100200D8C40B08FF
:100F700010100200F8C40B081010020018C50B086E
:100F80001010020038C50B081010020058C50B08DD
:100F90001010020078C50B081010020098C50B084D
:100FA00010100200B8C50B0810100200D8C50B08BD
:100FB00010100200F8C50B081010020018C60B082C
:100FC0001010020038C60B081010020058C60B089B
:100FD0001010020078C60B081010020098C60B080B
:100FE00010100200B8C60B0810100200D8C60B087B
:100FF00010100200F8C60B081010020018C70B08EA
:101000001010020038C70B081010020058C70B0858
:101010001010020078C70B081010020098C70B08C8
:1010200010100200B8C70B0810100200D8C70B0838
:1010300010100200F8C70B081010020018C80B08A7
:101040001010020038C80B081010020058C80B0816
:101050001010020078C80B081010020098C80B0886
:1010600010100200B8C80B0810100200D8C80B08F6
:1010700010100200F8C80B081010020018C90B0865
:101080001010020038C90B081010020058C90B08D4
:101090001010020078C90B081010020098C90B0844
:1010A00010100200B8C90B0810100200D8C90B08B4
:1010B00010100200F8C90B081010020018CA0B0823
:1010C0001010020038CA0B081010020058CA0B0892
:1010D0001010020078CA0B081010020098CA0B0802
:1010E00010100200B8CA0B0810100200D8CA0B0872
:1010F00010100200F8CA0B081010020018CB0B08E1
:101100001010020038CB0B081010020058CB0B084F
:101110001010020078CB0B081010020098CB0B08BF
:1011200010100200B8CB0B0810100200D8CB0B082F
:1011300010100200F8CB0B081010020018CC0B089E
:101140001010020038CC0B081010020058CC0B080D
:101150001010020078CC0B081010020098CC0B087D
:1011600010100200B8CC0B0810100200D8CC0B08ED
:1011700010100200F8CC0B081010020018CD0B085C
:101180001010020038CD0B081010020058CD0B08CB
:101190001010020078CD0B081010020098CD0B083B
:1011A00010100200B8CD0B0810100200D8CD0B08AB
:1011B00010100200F8CD0B081010020018CE0B081A
:1011C0001010020038CE0B081010020058CE0B0889
:1011D0001010020078CE0B081010020098CE0B08F9
:1011E00010100200B8CE0B0810100200D8CE0B0869
:1011F00010100200F8CE0B081010020018CF0B08D8
:101200001010020038CF0B081010020058CF0B0846
:101210001010020078CF0B081010020098CF0B08B6
:1012200010100200B8CF0B0810100200D8CF0B0826
:1012300010100200F8CF0B081010020018D00B0895
:101240001010020038D00B081010020058D00B0804
:101250001010020078D00B081010020098D00B0874
:1012600010100200B8D00B0810100200D8D00B08E4
:1012700010100200F8D00B081010020018D10B0853
:101280001010020038D10B081010020058D10B08C2
:101290001010020078D10B081010020098D10B0832
:1012A00010100200B8D10B0810100200D8D10B08A2
:1012B00010100200F8D10B081010020018D20B0811
:1012C0001010020038D20B081010020058D20B0880
:1012D0001010020078D20B081010020098D20B08F0
:1012E00010100200B8D20B0810100200D8D20B0860
:1012F00010100200F8D20B081010020018D30B08CF
:101300001010020038D30B081010020058D30B083D
:101310001010020078D30B081010020098D30B08AD
:1013200010100200B8D30B0810100200D8D30B081D
:1013300010100200F8D30B081010020018D40B088C
:101340001010020038D40B081010020058D40B08FB
:101350001010020078D40B081010020098D40B086B
:1013600010100200B8D40B0810100200D8D40B08DB
:1013700010100200F8D40B081010020018D50B084A
:101380001010020038D50B081010020058D50B08B9
:101390001010020078D50B081010020098D50B0829
:1013A00010100200B8D50B0810100200D8D50B0899
:1013B00010100200F8D50B081010020018D60B0808
:1013C0001010020038D60B081010020058D60B0877
:1013D0001010020078D60B081010020098D60B08E7
:1013E00010100200B8D60B0810100200D8D60B0857
:1013F00010100200F8D60B081010020018D70B08C6
:101400001010020038D70B081010020058D70B0834
:101410001010020078D70B081010020098D70B08A4
:1014200010100200B8D70B0810100200D8D70B0814
:1014300010100200F8D70B081010020018D80B0883
:101440001010020038D80B081010020058D80B08F2
:101450001010020078D80B081010020098D80B0862
:1014600010100200B8D80B0810100200D8D80B08D2
:1014700010100200F8D80B081010020018D90B0841
:101480001010020038D90B081010020058D90B08B0
:101490001010020078D90B081010020098D90B0820
:1014A00010100200B8D90B0810100200D8D90B0890
:1014B00010100200F8D90B081010020018DA0B08FF
:1014C0001010020038DA0B081010020058DA0B086E
:1014D0001010020078DA0B081010020098DA0B08DE
:1014E00010100200B8DA0B0810100200D8DA0B084E
:1014F00010100200F8DA0B081010020018DB0B08BD
:101500001010020038DB0B081010020058DB0B082B
:101510001010020078DB0B081010020098DB0B089B
:1015200010100200B8DB0B0810100200D8DB0B080B
:1015300010100200F8DB0B081010020018DC0B087A
:101540001010020038DC0B081010020058DC0B08E9
:101550001010020078DC0B081010020098DC0B0859
:1015600010100200B8DC0B0810100200D8DC0B08C9
:1015700010100200F8DC0B081010020018DD0B0838
:101580001010020038DD0B081010020058DD0B08A7
:101590001010020078DD0B081010020098DD0B0817
:1015A00010100200B8DD0B0810100200D8DD0B0887
:1015B00010100200F8DD0B081010020018DE0B08F6
:1015C0001010020038DE0B081010020058DE0B0865
:1015D0001010020078DE0B081010020098DE0B08D5
:1015E00010100200B8DE0B0810100200D8DE0B0845
:1015F00010100200F8DE0B081010020018DF0B08B4
:101600001010020038DF0B081010020058DF0B0822
:101610001010020078DF0B081010020098DF0B0892
:1016200010100200B8DF0B0810100200D8DF0B0802
:1016300010100200F8DF0B081010020018E00B0871
:101640001010020038E00B081010020058E00B08E0
:101650001010020078E00B081010020098E00B0850
:1016600010100200B8E00B0810100200D8E00B08C0
:1016700010100200F8E00B081010020018E10B082F
:101680001010020038E10B081010020058E10B089E
:101690001010020078E10B081010020098E10B080E
:1016A00010100200B8E10B0810100200D8E10B087E
:1016B00010100200F8E10B081010020018E20B08ED
:1016C0001010020038E20B081010020058E20B085C
:1016D0001010020078E20B081010020098E20B08CC
:1016E00010100200B8E20B0810100200D8E20B083C
:1016F00010100200F8E20B081010020018E30B08AB
:101700001010020038E30B081010020058E30B0819
:101710001010020078E30B081010020098E30B0889
:1017200010100200B8E30B0810100200D8E30B08F9
:1017300010100200F8E30B081010020018E40B0868
:101740001010020038E40B081010020058E40B08D7
:101750001010020078E40B081010020098E40B0847
:1017600010100200B8E40B0810100200D8E40B08B7
:1017700010100200F8E40B081010020018E50B0826
:101780001010020038E50B081010020058E50B0895
:101790001010020078E50B081010020098E50B0805
:1017A00010100200B8E50B0810100200D8E50B0875
:1017B00010100200F8E50B081010020018E60B08E4
:1017C0001010020038E60B081010020058E60B0853
:1017D0001010020078E60B081010020098E60B08C3
:1017E00010100200B8E60B0810100200D8E60B0833
:1017F00010100200F8E60B081010020018E70B08A2
:101800001010020038E70B081010020058E70B0810
:101810001010020078E70B081010020098E70B0880
:1018200010100200B8E70B0810100200D8E70B08F0
:1018300010100200F8E70B081010020018E80B085F
:101840001010020038E80B081010020058E80B08CE
:101850001010020078E80B081010020098E80B083E
:1018600010100200B8E80B0810100200D8E80B08AE
:1018700010100200F8E80B081010020018E90B081D
:101880001010020038E90B081010020058E90B088C
:101890001010020078E90B081010020098E90B08FC
:1018A00010100200B8E90B0810100200D8E90B086C
:1018B00010100200F8E90B081010020018EA0B08DB
:1018C0001010020038EA0B081010020058EA0B084A
:1018D0001010020078EA0B081010020098EA0B08BA
:1018E00010100200B8EA0B0810100200D8EA0B082A
:1018F00010100200F8EA0B081010020018EB0B0899
:101900001010020038EB0B081010020058EB0B0807
:101910001010020078EB0B080808010080630F0824
:101920000808010090630F0808080100A0630F0871
:1019300008080100B0630F0808080100C0630F0821
:1019400008080100D0630F0808080100E0630F08D1
:1019500008080100F0630F080808010000640F0880
:101960000808010010640F080808010020640F082F
:101970000808010030640F080808010040640F08DF
:101980000808010050640F080808010060640F088F
:101990000808010070640F080808010080640F083F
:1019A0000808010090640F0808080100A0640F08EF
:1019B00008080100B0640F0808080100C0640F089F
:1019C00008080100D0640F0808080100E0640F084F
:1019D00008080100F0640F080808010000650F08FE
:1019E0000808010010650F080808010020650F08AD
:1019F0000808010030650F080808010040650F085D
:101A00000808010050650F080808010060650F080C
:101A10000808010070650F081010020098EB0B0811
:101A200010100200B8EB0B0810100200D8EB0B08E6
:101A300010100200F8EB0B081010020018EC0B0855
:101A40001010020038EC0B081010020058EC0B08C4
:101A50001010020078EC0B081010020098EC0B0834
:101A600010100200B8EC0B0810100200D8EC0B08A4
:101A700010100200F8EC0B081010020018ED0B0813
:101A80001010020038ED0B081010020058ED0B0882
:101A90001010020078ED0B081010020098ED0B08F2
:101AA00010100200B8ED0B0810100200D8ED0B0862
:101AB00010100200F8ED0B081010020018EE0B08D1
:101AC0001010020038EE0B081010020058EE0B0840
:101AD0001010020078EE0B081010020098EE0B08B0
:101AE00010100200B8EE0B0810100200D8EE0B0820
:101AF00010100200F8EE0B081010020018EF0B088F
:101B00001010020038EF0B081010020058EF0B08FD
:101B10001010020078EF0B081010020098EF0B086D
:101B200010100200B8EF0B0810100200D8EF0B08DD
:101B300010100200F8EF0B081010020018F00B084C
:101B40001010020038F00B081010020058F00B08BB
:101B50001010020078F00B081010020098F00B082B
:101B600010100200B8F00B0810100200D8F00B089B
:101B700010100200F8F00B081010020018F10B080A
:101B80001010020038F10B081010020058F10B0879
:101B90001010020078F10B081010020098F10B08E9
:101BA00010100200B8F10B0810100200D8F10B0859
:101BB00010100200F8F10B081010020018F20B08C8
:101BC0001010020038F20B081010020058F20B0837
:101BD0001010020078F20B081010020098F20B08A7
:101BE00010100200B8F20B0810100200D8F20B0817
:101BF00010100200F8F20B081010020018F30B0886
:101C00001010020038F30B081010020058F30B08F4
:101C10001010020078F30B081010020098F30B0864
:101C200010100200B8F30B0810100200D8F30B08D4
:101C300010100200F8F30B081010020018F40B0843
:101C40001010020038F40B081010020058F40B08B2
:101C50001010020078F40B081010020098F40B0822
:101C600010100200B8F40B0810100200D8F40B0892
:101C700010100200F8F40B081010020018F50B0801
:101C80001010020038F50B081010020058F50B0870
:101C90001010020078F50B081010020098F50B08E0
:101CA00010100200B8F50B0810100200D8F50B0850
:101CB00010100200F8F50B081010020018F60B08BF
:101CC0001010020038F60B081010020058F60B082E
:101CD0001010020078F60B081010020098F60B089E
:101CE00010100200B8F60B0810100200D8F60B080E
:101CF00010100200F8F60B081010020018F70B087D
:101D00001010020038F70B081010020058F70B08EB
:101D10001010020078F70B081010020098F70B085B
:101D200010100200B8F70B0810100200D8F70B08CB
:101D300010100200F8F70B081010020018F80B083A
:101D40001010020038F80B081010020058F80B08A9
:101D50001010020078F80B081010020098F80B0819
:101D600010100200B8F80B0810100200D8F80B0889
:101D700010100200F8F80B081010020018F90B08F8
:101D80001010020038F90B081010020058F90B0867
:101D90001010020078F90B081010020098F90B08D7
:101DA00010100200B8F90B0810100200D8F90B0847
:101DB00010100200F8F90B081010020018FA0B08B6
:101DC0001010020038FA0B081010020058FA0B0825
:101DD0001010020078FA0B081010020098FA0B0895
:101DE00010100200B8FA0B0810100200D8FA0B0805
:101DF00010100200F8FA0B081010020018FB0B0874
:101E00001010020038FB0B081010020058FB0B08E2
:101E10001010020078FB0B081010020098FB0B0852
:101E200010100200B8FB0B0810100200D8FB0B08C2
:101E300010100200F8FB0B081010020018FC0B0831
:101E40001010020038FC0B081010020058FC0B08A0
:101E50001010020078FC0B081010020098FC0B0810
:101E600010100200B8FC0B0810100200D8FC0B0880
:101E700010100200F8FC0B081010020018FD0B08EF
:101E80001010020038FD0B081010020058FD0B085E
:101E90001010020078FD0B081010020098FD0B08CE
:101EA00010100200B8FD0B0810100200D8FD0B083E
:101EB00010100200F8FD0B081010020018FE0B08AD
:101EC0001010020038FE0B081010020058FE0B081C
:101ED0001010020078FE0B081010020098FE0B088C
:101EE00010100200B8FE0B0810100200D8FE0B08FC
:101EF00010100200F8FE0B081010020018FF0B086B
:101F00001010020038FF0B081010020058FF0B08D9
:101F10001010020078FF0B081010020098FF0B0849
:101F200010100200B8FF0B0810100200D8FF0B08B9
:101F300010100200F8FF0B081010020018000C0827
:101F40001010020038000C081010020058000C0895
:101F50001010020078000C081010020098000C0805
:101F600010100200B8000C0810100200D8000C0875
:101F700010100200F8000C081010020018010C08E4
:101F80001010020038010C081010020058010C0853
:101F90001010020078010C081010020098010C08C3
:101FA00010100200B8010C0810100200D8010C0833
:101FB00010100200F8010C081010020018020C08A2
:101FC0001010020038020C081010020058020C0811
:101FD0001010020078020C081010020098020C0881
:101FE00010100200B8020C0810100200D8020C08F1
:101FF00010100200F8020C081010020018030C0860
:102000001010020038030C081010020058030C08CE
:102010001010020078030C081010020098030C083E
:1020200010100200B8030C0810100200D8030C08AE
:1020300010100200F8030C081010020018040C081D
:102040001010020038040C081010020058040C088C
:102050001010020078040C081010020098040C08FC
:1020600010100200B8040C0810100200D8040C086C
:1020700010100200F8040C081010020018050C08DB
:102080001010020038050C081010020058050C084A
:102090001010020078050C081010020098050C08BA
:1020A00010100200B8050C0810100200D8050C082A
:1020B00010100200F8050C081010020018060C0899
:1020C0001010020038060C081010020058060C0808
:1020D0001010020078060C081010020098060C0878
:1020E00010100200B8060C0810100200D8060C08E8
:1020F00010100200F8060C081010020018070C0857
:102100001010020038070C081010020058070C08C5
:102110001010020078070C081010020098070C0835
:1021200010100200B8070C0810100200D8070C08A5
:1021300010100200F8070C081010020018080C0814
:102140001010020038080C081010020058080C0883
:102150001010020078080C081010020098080C08F3
:1021600010100200B8080C0810100200D8080C0863
:1021700010100200F8080C081010020018090C08D2
:102180001010020038090C081010020058090C0841
:102190001010020078090C081010020098090C08B1
:1021A00010100200B8090C0810100200D8090C0821
:1021B00010100200F8090C0810100200180A0C0890
:1021C00010100200380A0C0810100200580A0C08FF
:1021D00010100200780A0C0810100200980A0C086F
:1021E00010100200B80A0C0810100200D80A0C08DF
:1021F00010100200F80A0C0810100200180B0C084E
:1022000010100200380B0C0810100200580B0C08BC
:1022100010100200780B0C0810100200980B0C082C
:1022200010100200B80B0C0810100200D80B0C089C
:1022300010100200F80B0C0810100200180C0C080B
:1022400010100200380C0C0810100200580C0C087A
:1022500010100200780C0C0810100200980C0C08EA
:1022600010100200B80C0C0810100200D80C0C085A
:1022700010100200F80C0C0810100200180D0C08C9
:1022800010100200380D0C0810100200580D0C0838
:1022900010100200780D0C0810100200980D0C08A8
:1022A00010100200B80D0C0810100200D80D0C0818
:1022B00010100200F80D0C0810100200180E0C0887
:1022C00010100200380E0C0810100200580E0C08F6
:1022D00010100200780E0C0810100200980E0C0866
:1022E00010100200B80E0C0810100200D80E0C08D6
:1022F00010100200F80E0C0810100200180F0C0845
:1023000010100200380F0C0810100200580F0C08B3
:1023100010100200780F0C0810100200980F0C0823
:1023200010100200B80F0C0810100200D80F0C0893
:1023300010100200F80F0C081010020018100C0802
:102340001010020038100C081010020058100C0871
:102350001010020078100C081010020098100C08E1
:1023600010100200B8100C0810100200D8100C0851
:1023700010100200F8100C081010020018110C08C0
:102380001010020038110C081010020058110C082F
:102390001010020078110C081010020098110C089F
:1023A00010100200B8110C0810100200D8110C080F
:1023B00010100200F8110C081010020018120C087E
:1023C0001010020038120C081010020058120C08ED
:1023D0001010020078120C081010020098120C085D
:1023E00010100200B8120C0810100200D8120C08CD
:1023F00010100200F8120C081010020018130C083C
:102400001010020038130C081010020058130C08AA
:102410001010020078130C081010020098130C081A
:1024200010100200B8130C0810100200D8130C088A
:1024300010100200F8130C081010020018140C08F9
:102440001010020038140C081010020058140C0868
:102450001010020078140C081010020098140C08D8
:1024600010100200B8140C0810100200D8140C0848
:1024700010100200F8140C081010020018150C08B7
:102480001010020038150C081010020058150C0826
:102490001010020078150C081010020098150C0896
:1024A00010100200B8150C0810100200D8150C0806
:1024B00010100200F8150C081010020018160C0875
:1024C0001010020038160C081010020058160C08E4
:1024D0001010020078160C081010020098160C0854
:1024E00010100200B8160C0810100200D8160C08C4
:1024F00010100200F8160C081010020018170C0833
:102500001010020038170C081010020058170C08A1
:102510001010020078170C081010020098170C0811
:1025200010100200B8170C0810100200D8170C0881
:1025300010100200F8170C081010020018180C08F0
:102540001010020038180C081010020058180C085F
:102550001010020078180C081010020098180C08CF
:1025600010100200B8180C0810100200D8180C083F
:1025700010100200F8180C081010020018190C08AE
:102580001010020038190C081010020058190C081D
:102590001010020078190C081010020098190C088D
:1025A00010100200B8190C0810100200D8190C08FD
:1025B00010100200F8190C0810100200181A0C086C
:1025C00010100200381A0C0810100200581A0C08DB
:1025D00010100200781A0C0810100200981A0C084B
:1025E00010100200B81A0C0810100200D81A0C08BB
:1025F00010100200F81A0C0810100200181B0C082A
:1026000010100200381B0C0810100200581B0C0898
:1026100010100200781B0C0810100200981B0C0808
:1026200010100200B81B0C0810100200D81B0C0878
:1026300010100200F81B0C0810100200181C0C08E7
:1026400010100200381C0C0810100200581C0C0856
:1026500010100200781C0C0810100200981C0C08C6
:1026600010100200B81C0C0810100200D81C0C0836
:1026700010100200F81C0C0810100200181D0C08A5
:1026800010100200381D0C0810100200581D0C0814
:1026900010100200781D0C0810100200981D0C0884
:1026A00010100200B81D0C0810100200D81D0C08F4
:1026B00010100200F81D0C0810100200181E0C0863
:1026C00010100200381E0C0810100200581E0C08D2
:1026D00010100200781E0C0810100200981E0C0842
:1026E00010100200B81E0C0810100200D81E0C08B2
:1026F00010100200F81E0C0810100200181F0C0821
:1027000010100200381F0C0810100200581F0C088F
:1027100010100200781F0C0810100200981F0C08FF
:1027200010100200B81F0C0810100200D81F0C086F
:1027300010100200F81F0C081010020018200C08DE
:102740001010020038200C081010020058200C084D
:102750001010020078200C081010020098200C08BD
:1027600010100200B8200C0810100200D8200C082D
:1027700010100200F8200C081010020018210C089C
:102780001010020038210C081010020058210C080B
:102790001010020078210C081010020098210C087B
:1027A00010100200B8210C0810100200D8210C08EB
:1027B00010100200F8210C081010020018220C085A
:1027C0001010020038220C081010020058220C08C9
:1027D0001010020078220C081010020098220C0839
:1027E00010100200B8220C0810100200D8220C08A9
:1027F00010100200F8220C081010020018230C0818
:102800001010020038230C081010020058230C0886
:102810001010020078230C081010020098230C08F6
:1028200010100200B8230C0810100200D8230C0866
:1028300010100200F8230C081010020018240C08D5
:102840001010020038240C081010020058240C0844
:102850001010020078240C081010020098240C08B4
:1028600010100200B8240C0810100200D8240C0824
:1028700010100200F8240C081010020018250C0893
:102880001010020038250C081010020058250C0802
:102890001010020078250C081010020098250C0872
:1028A00010100200B8250C0810100200D8250C08E2
:1028B00010100200F8250C081010020018260C0851
:1028C0001010020038260C081010020058260C08C0
:1028D0001010020078260C081010020098260C0830
:1028E00010100200B8260C0810100200D8260C08A0
:1028F00010100200F8260C081010020018270C080F
:102900001010020038270C081010020058270C087D
:102910001010020078270C081010020098270C08ED
:1029200010100200B8270C0810100200D8270C085D
:1029300010100200F8270C081010020018280C08CC
:102940001010020038280C081010020058280C083B
:102950001010020078280C081010020098280C08AB
:1029600010100200B8280C0810100200D8280C081B
:1029700010100200F8280C081010020018290C088A
:102980001010020038290C081010020058290C08F9
:102990001010020078290C081010020098290C0869
:1029A00010100200B8290C0810100200D8290C08D9
:1029B00010100200F8290C0810100200182A0C0848
:1029C00010100200382A0C0810100200582A0C08B7
:1029D00010100200782A0C0810100200982A0C0827
:1029E00010100200B82A0C0810100200D82A0C0897
:1029F00010100200F82A0C0810100200182B0C0806
:102A000010100200382B0C0810100200582B0C0874
:102A100010100200782B0C0810100200982B0C08E4
:102A200010100200B82B0C0810100200D82B0C0854
:102A300010100200F82B0C0810100200182C0C08C3
:102A400010100200382C0C0810100200582C0C0832
:102A500010100200782C0C0810100200982C0C08A2
:102A600010100200B82C0C0810100200D82C0C0812
:102A700010100200F82C0C0810100200182D0C0881
:102A800010100200382D0C0810100200582D0C08F0
:102A900010100200782D0C0810100200982D0C0860
:102AA00010100200B82D0C0810100200D82D0C08D0
:102AB00010100200F82D0C0810100200182E0C083F
:102AC00010100200382E0C0810100200582E0C08AE
:102AD00010100200782E0C0810100200982E0C081E
:102AE00010100200B82E0C0810100200D82E0C088E
:102AF00010100200F82E0C0810100200182F0C08FD
:102B000010100200382F0C0810100200582F0C086B
:102B100010100200782F0C0810100200982F0C08DB
:102B200010100200B82F0C0810100200D82F0C084B
:102B300010100200F82F0C081010020018300C08BA
:102B40001010020038300C081010020058300C0829
:102B50001010020078300C081010020098300C0899
:102B600010100200B8300C0810100200D8300C0809
:102B700010100200F8300C081010020018310C0878
:102B80001010020038310C081010020058310C08E7
:102B90001010020078310C081010020098310C0857
:102BA00010100200B8310C0810100200D8310C08C7
:102BB00010100200F8310C081010020018320C0836
:102BC0001010020038320C081010020058320C08A5
:102BD0001010020078320C081010020098320C0815
:102BE00010100200B8320C0810100200D8320C0885
:102BF00010100200F8320C081010020018330C08F4
:102C00001010020038330C081010020058330C0862
:102C10001010020078330C081010020098330C08D2
:102C200010100200B8330C0810100200D8330C0842
:102C300010100200F8330C081010020018340C08B1
:102C40001010020038340C081010020058340C0820
:102C50001010020078340C081010020098340C0890
:102C600010100200B8340C0810100200D8340C0800
:102C700010100200F8340C081010020018350C086F
:102C80001010020038350C081010020058350C08DE
:102C90001010020078350C081010020098350C084E
:102CA00010100200B8350C0810100200D8350C08BE
:102CB00010100200F8350C081010020018360C082D
:102CC0001010020038360C081010020058360C089C
:102CD0001010020078360C081010020098360C080C
:102CE00010100200B8360C0810100200D8360C087C
:102CF00010100200F8360C081010020018370C08EB
:102D00001010020038370C081010020058370C0859
:102D10001010020078370C081010020098370C08C9
:102D200010100200B8370C0810100200D8370C0839
:102D300010100200F8370C081010020018380C08A8
:102D40001010020038380C081010020058380C0817
:102D50001010020078380C081010020098380C0887
:102D600010100200B8380C0810100200D8380C08F7
:102D700010100200F8380C081010020018390C0866
:102D80001010020038390C081010020058390C08D5
:102D90001010020078390C081010020098390C0845
:102DA00010100200B8390C0810100200D8390C08B5
:102DB00010100200F8390C0810100200183A0C0824
:102DC00010100200383A0C0810100200583A0C0893
:102DD00010100200783A0C0810100200983A0C0803
:102DE00010100200B83A0C0810100200D83A0C0873
:102DF00010100200F83A0C0810100200183B0C08E2
:102E000010100200383B0C0810100200583B0C0850
:102E100010100200783B0C0810100200983B0C08C0
:102E200010100200B83B0C0810100200D83B0C0830
:102E300010100200F83B0C0810100200183C0C089F
:102E400010100200383C0C0810100200583C0C080E
:102E500010100200783C0C0810100200983C0C087E
:102E600010100200B83C0C0810100200D83C0C08EE
:102E700010100200F83C0C0810100200183D0C085D
:102E800010100200383D0C0810100200583D0C08CC
:102E900010100200783D0C0810100200983D0C083C
:102EA00010100200B83D0C0810100200D83D0C08AC
:102EB00010100200F83D0C0810100200183E0C081B
:102EC00010100200383E0C0810100200583E0C088A
:102ED00010100200783E0C0810100200983E0C08FA
:102EE00010100200B83E0C0810100200D83E0C086A
:102EF00010100200F83E0C0810100200183F0C08D9
:102F000010100200383F0C0810100200583F0C0847
:102F100010100200783F0C0810100200983F0C08B7
:102F200010100200B83F0C0810100200D83F0C0827
:102F300010100200F83F0C081010020018400C0896
:102F40001010020038400C081010020058400C0805
:102F50001010020078400C081010020098400C0875
:102F600010100200B8400C0810100200D8400C08E5
:102F700010100200F8400C081010020018410C0854
:102F80001010020038410C081010020058410C08C3
:102F90001010020078410C081010020098410C0833
:102FA00010100200B8410C0810100200D8410C08A3
:102FB00010100200F8410C081010020018420C0812
:102FC0001010020038420C081010020058420C0881
:102FD0001010020078420C081010020098420C08F1
:102FE00010100200B8420C0810100200D8420C0861
:102FF00010100200F8420C081010020018430C08D0
:103000001010020038430C081010020058430C083E
:103010001010020078430C081010020098430C08AE
:1030200010100200B8430C0810100200D8430C081E
:1030300010100200F8430C081010020018440C088D
:103040001010020038440C081010020058440C08FC
:103050001010020078440C081010020098440C086C
:1030600010100200B8440C0810100200D8440C08DC
:1030700010100200F8440C081010020018450C084B
:103080001010020038450C081010020058450C08BA
:103090001010020078450C081010020098450C082A
:1030A00010100200B8450C0810100200D8450C089A
:1030B00010100200F8450C081010020018460C0809
:1030C0001010020038460C081010020058460C0878
:1030D0001010020078460C081010020098460C08E8
:1030E00010100200B8460C0810100200D8460C0858
:1030F00010100200F8460C081010020018470C08C7
:103100001010020038470C081010020058470C0835
:103110001010020078470C081010020098470C08A5
:1031200010100200B8470C0810100200D8470C0815
:1031300010100200F8470C081010020018480C0884
:103140001010020038480C081010020058480C08F3
:103150001010020078480C081010020098480C0863
:1031600010100200B8480C0810100200D8480C08D3
:1031700010100200F8480C081010020018490C0842
:103180001010020038490C081010020058490C08B1
:103190001010020078490C081010020098490C0821
:1031A00010100200B8490C0810100200D8490C0891
:1031B00010100200F8490C0810100200184A0C0800
:1031C00010100200384A0C0810100200584A0C086F
:1031D00010100200784A0C0810100200984A0C08DF
:1031E00010100200B84A0C0810100200D84A0C084F
:1031F00010100200F84A0C0810100200184B0C08BE
:1032000010100200384B0C0810100200584B0C082C
:1032100010100200784B0C0810100200984B0C089C
:1032200010100200B84B0C0810100200D84B0C080C
:1032300010100200F84B0C0810100200184C0C087B
:1032400010100200384C0C0810100200584C0C08EA
:1032500010100200784C0C0810100200984C0C085A
:1032600010100200B84C0C0810100200D84C0C08CA
:1032700010100200F84C0C0810100200184D0C0839
:1032800010100200384D0C0810100200584D0C08A8
:1032900010100200784D0C0810100200984D0C0818
:1032A00010100200B84D0C0810100200D84D0C0888
:1032B00010100200F84D0C0810100200184E0C08F7
:1032C00010100200384E0C0810100200584E0C0866
:1032D00010100200784E0C0810100200984E0C08D6
:1032E00010100200B84E0C0810100200D84E0C0846
:1032F00010100200F84E0C0810100200184F0C08B5
:1033000010100200384F0C0810100200584F0C0823
:1033100010100200784F0C0810100200984F0C0893
:1033200010100200B84F0C0810100200D84F0C0803
:1033300010100200F84F0C081010020018500C0872
:103340001010020038500C081010020058500C08E1
:103350001010020078500C081010020098500C0851
:1033600010100200B8500C0810100200D8500C08C1
:1033700010100200F8500C081010020018510C0830
:103380001010020038510C081010020058510C089F
:103390001010020078510C081010020098510C080F
:1033A00010100200B8510C0810100200D8510C087F
:1033B00010100200F8510C081010020018520C08EE
:1033C0001010020038520C081010020058520C085D
:1033D0001010020078520C081010020098520C08CD
:1033E00010100200B8520C0810100200D8520C083D
:1033F00010100200F8520C081010020018530C08AC
:103400001010020038530C081010020058530C081A
:103410001010020078530C081010020098530C088A
:1034200010100200B8530C0810100200D8530C08FA
:1034300010100200F8530C081010020018540C0869
:103440001010020038540C081010020058540C08D8
:103450001010020078540C081010020098540C0848
:1034600010100200B8540C0810100200D8540C08B8
:1034700010100200F8540C081010020018550C0827
:103480001010020038550C081010020058550C0896
:103490001010020078550C081010020098550C0806
:1034A00010100200B8550C0810100200D8550C0876
:1034B00010100200F8550C081010020018560C08E5
:1034C0001010020038560C081010020058560C0854
:1034D0001010020078560C081010020098560C08C4
:1034E00010100200B8560C0810100200D8560C0834
:1034F00010100200F8560C081010020018570C08A3
:103500001010020038570C081010020058570C0811
:103510001010020078570C081010020098570C0881
:1035200010100200B8570C0810100200D8570C08F1
:1035300010100200F8570C081010020018580C0860
:103540001010020038580C081010020058580C08CF
:103550001010020078580C081010020098580C083F
:1035600010100200B8580C0810100200D8580C08AF
:1035700010100200F8580C081010020018590C081E
:103580001010020038590C081010020058590C088D
:103590001010020078590C081010020098590C08FD
:1035A00010100200B8590C0810100200D8590C086D
:1035B00010100200F8590C0810100200185A0C08DC
:1035C00010100200385A0C0810100200585A0C084B
:1035D00010100200785A0C0810100200985A0C08BB
:1035E00010100200B85A0C0810100200D85A0C082B
:1035F00010100200F85A0C0810100200185B0C089A
:1036000010100200385B0C0810100200585B0C0808
:1036100010100200785B0C0810100200985B0C0878
:1036200010100200B85B0C0810100200D85B0C08E8
:1036300010100200F85B0C0810100200185C0C0857
:1036400010100200385C0C0810100200585C0C08C6
:1036500010100200785C0C0810100200985C0C0836
:1036600010100200B85C0C0810100200D85C0C08A6
:1036700010100200F85C0C0810100200185D0C0815
:1036800010100200385D0C0810100200585D0C0884
:1036900010100200785D0C0810100200985D0C08F4
:1036A00010100200B85D0C0810100200D85D0C0864
:1036B00010100200F85D0C0810100200185E0C08D3
:1036C00010100200385E0C0810100200585E0C0842
:1036D00010100200785E0C0810100200985E0C08B2
:1036E00010100200B85E0C0810100200D85E0C0822
:1036F00010100200F85E0C0810100200185F0C0891
:1037000010100200385F0C0810100200585F0C08FF
:1037100010100200785F0C0810100200985F0C086F
:1037200010100200B85F0C0810100200D85F0C08DF
:1037300010100200F85F0C081010020018600C084E
:103740001010020038600C081010020058600C08BD
:103750001010020078600C081010020098600C082D
:1037600010100200B8600C0810100200D8600C089D
:1037700010100200F8600C081010020018610C080C
:103780001010020038610C081010020058610C087B
:103790001010020078610C081010020098610C08EB
:1037A00010100200B8610C0810100200D8610C085B
:1037B00010100200F8610C081010020018620C08CA
:1037C0001010020038620C081010020058620C0839
:1037D0001010020078620C081010020098620C08A9
:1037E00010100200B8620C0810100200D8620C0819
:1037F00010100200F8620C081010020018630C0888
:103800001010020038630C081010020058630C08F6
:103810001010020078630C081010020098630C0866
:1038200010100200B8630C0810100200D8630C08D6
:1038300010100200F8630C081010020018640C0845
:103840001010020038640C081010020058640C08B4
:103850001010020078640C081010020098640C0824
:1038600010100200B8640C0810100200D8640C0894
:1038700010100200F8640C081010020018650C0803
:103880001010020038650C081010020058650C0872
:103890001010020078650C081010020098650C08E2
:1038A00010100200B8650C0810100200D8650C0852
:1038B00010100200F8650C081010020018660C08C1
:1038C0001010020038660C081010020058660C0830
:1038D0001010020078660C081010020098660C08A0
:1038E00010100200B8660C0810100200D8660C0810
:1038F00010100200F8660C081010020018670C087F
:103900001010020038670C081010020058670C08ED
:103910001010020078670C081010020098670C085D
:1039200010100200B8670C0810100200D8670C08CD
:1039300010100200F8670C081010020018680C083C
:103940001010020038680C081010020058680C08AB
:103950001010020078680C081010020098680C081B
:1039600010100200B8680C0810100200D8680C088B
:1039700010100200F8680C081010020018690C08FA
:103980001010020038690C081010020058690C0869
:103990001010020078690C081010020098690C08D9
:1039A00010100200B8690C0810100200D8690C0849
:1039B00010100200F8690C0810100200186A0C08B8
:1039C00010100200386A0C0810100200586A0C0827
:1039D00010100200786A0C0810100200986A0C0897
:1039E00010100200B86A0C0810100200D86A0C0807
:1039F00010100200F86A0C0810100200186B0C0876
:103A000010100200386B0C0810100200586B0C08E4
:103A100010100200786B0C0810100200986B0C0854
:103A200010100200B86B0C0810100200D86B0C08C4
:103A300010100200F86B0C0810100200186C0C0833
:103A400010100200386C0C0810100200586C0C08A2
:103A500010100200786C0C0810100200986C0C0812
:103A600010100200B86C0C0810100200D86C0C0882
:103A700010100200F86C0C0810100200186D0C08F1
:103A800010100200386D0C0810100200586D0C0860
:103A900010100200786D0C0810100200986D0C08D0
:103AA00010100200B86D0C0810100200D86D0C0840
:103AB00010100200F86D0C0810100200186E0C08AF
:103AC00010100200386E0C0810100200586E0C081E
:103AD00010100200786E0C0810100200986E0C088E
:103AE00010100200B86E0C0810100200D86E0C08FE
:103AF00010100200F86E0C0810100200186F0C086D
:103B000010100200386F0C0810100200586F0C08DB
:103B100010100200786F0C0810100200986F0C084B
:103B200010100200B86F0C0810100200D86F0C08BB
:103B300010100200F86F0C081010020018700C082A
:103B40001010020038700C081010020058700C0899
:103B50001010020078700C081010020098700C0809
:103B600010100200B8700C0810100200D8700C0879
:103B700010100200F8700C081010020018710C08E8
:103B80001010020038710C081010020058710C0857
:103B90001010020078710C081010020098710C08C7
:103BA00010100200B8710C0810100200D8710C0837
:103BB00010100200F8710C081010020018720C08A6
:103BC0001010020038720C081010020058720C0815
:103BD0001010020078720C081010020098720C0885
:103BE00010100200B8720C0810100200D8720C08F5
:103BF00010100200F8720C081010020018730C0864
:103C00001010020038730C081010020058730C08D2
:103C10001010020078730C081010020098730C0842
:103C200010100200B8730C0810100200D8730C08B2
:103C300010100200F8730C081010020018740C0821
:103C40001010020038740C081010020058740C0890
:103C50001010020078740C081010020098740C0800
:103C600010100200B8740C0810100200D8740C0870
:103C700010100200F8740C081010020018750C08DF
:103C80001010020038750C081010020058750C084E
:103C90001010020078750C081010020098750C08BE
:103CA00010100200B8750C0810100200D8750C082E
:103CB00010100200F8750C081010020018760C089D
:103CC0001010020038760C081010020058760C080C
:103CD0001010020078760C081010020098760C087C
:103CE00010100200B8760C0810100200D8760C08EC
:103CF00010100200F8760C081010020018770C085B
:103D00001010020038770C081010020058770C08C9
:103D10001010020078770C081010020098770C0839
:103D200010100200B8770C0810100200D8770C08A9
:103D300010100200F8770C081010020018780C0818
:103D40001010020038780C081010020058780C0887
:103D50001010020078780C081010020098780C08F7
:103D600010100200B8780C0810100200D8780C0867
:103D700010100200F8780C081010020018790C08D6
:103D80001010020038790C081010020058790C0845
:103D90001010020078790C081010020098790C08B5
:103DA00010100200B8790C0810100200D8790C0825
:103DB00010100200F8790C0810100200187A0C0894
:103DC00010100200387A0C0810100200587A0C0803
:103DD00010100200787A0C0810100200987A0C0873
:103DE00010100200B87A0C0810100200D87A0C08E3
:103DF00010100200F87A0C0810100200187B0C0852
:103E000010100200387B0C0810100200587B0C08C0
:103E100010100200787B0C0810100200987B0C0830
:103E200010100200B87B0C0810100200D87B0C08A0
:103E300010100200F87B0C0810100200187C0C080F
:103E400010100200387C0C0810100200587C0C087E
:103E500010100200787C0C0810100200987C0C08EE
:103E600010100200B87C0C0810100200D87C0C085E
:103E700010100200F87C0C0810100200187D0C08CD
:103E800010100200387D0C0810100200587D0C083C
:103E900010100200787D0C0810100200987D0C08AC
:103EA00010100200B87D0C0810100200D87D0C081C
:103EB00010100200F87D0C0810100200187E0C088B
:103EC00010100200387E0C0810100200587E0C08FA
:103ED00010100200787E0C0810100200987E0C086A
:103EE00010100200B87E0C0810100200D87E0C08DA
:103EF00010100200F87E0C0810100200187F0C0849
:103F000010100200387F0C0810100200587F0C08B7
:103F100010100200787F0C0810100200987F0C0827
:103F200010100200B87F0C0810100200D87F0C0897
:103F300010100200F87F0C081010020018800C0806
:103F40001010020038800C081010020058800C0875
:103F50001010020078800C081010020098800C08E5
:103F600010100200B8800C0810100200D8800C0855
:103F700010100200F8800C081010020018810C08C4
:103F80001010020038810C081010020058810C0833
:103F90001010020078810C081010020098810C08A3
:103FA00010100200B8810C0810100200D8810C0813
:103FB00010100200F8810C081010020018820C0882
:103FC0001010020038820C081010020058820C08F1
:103FD0001010020078820C081010020098820C0861
:103FE00010100200B8820C0810100200D8820C08D1
:103FF00010100200F8820C081010020018830C0840
:104000001010020038830C081010020058830C08AE
:104010001010020078830C081010020098830C081E
:1040200010100200B8830C0810100200D8830C088E
:1040300010100200F8830C081010020018840C08FD
:104040001010020038840C081010020058840C086C
:104050001010020078840C081010020098840C08DC
:1040600010100200B8840C0810100200D8840C084C
:1040700010100200F8840C081010020018850C08BB
:104080001010020038850C081010020058850C082A
:104090001010020078850C081010020098850C089A
:1040A00010100200B8850C0810100200D8850C080A
:1040B00010100200F8850C081010020018860C0879
:1040C0001010020038860C081010020058860C08E8
:1040D0001010020078860C081010020098860C0858
:1040E00010100200B8860C0810100200D8860C08C8
:1040F00010100200F8860C081010020018870C0837
:104100001010020038870C081010020058870C08A5
:104110001010020078870C081010020098870C0815
:1041200010100200B8870C0810100200D8870C0885
:1041300010100200F8870C081010020018880C08F4
:104140001010020038880C081010020058880C0863
:104150001010020078880C081010020098880C08D3
:1041600010100200B8880C0810100200D8880C0843
:1041700010100200F8880C081010020018890C08B2
:104180001010020038890C081010020058890C0821
:104190001010020078890C081010020098890C0891
:1041A00010100200B8890C0810100200D8890C0801
:1041B00010100200F8890C0810100200188A0C0870
:1041C00010100200388A0C0810100200588A0C08DF
:1041D00010100200788A0C0810100200988A0C084F
:1041E00010100200B88A0C0810100200D88A0C08BF
:1041F00010100200F88A0C0810100200188B0C082E
:1042000010100200388B0C0810100200588B0C089C
:1042100010100200788B0C0810100200988B0C080C
:1042200010100200B88B0C0810100200D88B0C087C
:1042300010100200F88B0C0810100200188C0C08EB
:1042400010100200388C0C0810100200588C0C085A
:1042500010100200788C0C0810100200988C0C08CA
:1042600010100200B88C0C0810100200D88C0C083A
:1042700010100200F88C0C0810100200188D0C08A9
:1042800010100200388D0C0810100200588D0C0818
:1042900010100200788D0C0810100200988D0C0888
:1042A00010100200B88D0C0810100200D88D0C08F8
:1042B00010100200F88D0C0810100200188E0C0867
:1042C00010100200388E0C0810100200588E0C08D6
:1042D00010100200788E0C0810100200988E0C0846
:1042E00010100200B88E0C0810100200D88E0C08B6
:1042F00010100200F88E0C0810100200188F0C0825
:1043000010100200388F0C0810100200588F0C0893
:1043100010100200788F0C0810100200988F0C0803
:1043200010100200B88F0C0810100200D88F0C0873
:1043300010100200F88F0C081010020018900C08E2
:104340001010020038900C081010020058900C0851
:104350001010020078900C081010020098900C08C1
:1043600010100200B8900C0810100200D8900C0831
:1043700010100200F8900C081010020018910C08A0
:104380001010020038910C081010020058910C080F
:104390001010020078910C081010020098910C087F
:1043A00010100200B8910C0810100200D8910C08EF
:1043B00010100200F8910C081010020018920C085E
:1043C0001010020038920C081010020058920C08CD
:1043D0001010020078920C081010020098920C083D
:1043E00010100200B8920C0810100200D8920C08AD
:1043F00010100200F8920C081010020018930C081C
:104400001010020038930C081010020058930C088A
:104410001010020078930C081010020098930C08FA
:1044200010100200B8930C0810100200D8930C086A
:1044300010100200F8930C081010020018940C08D9
:104440001010020038940C081010020058940C0848
:104450001010020078940C081010020098940C08B8
:1044600010100200B8940C0810100200D8940C0828
:1044700010100200F8940C081010020018950C0897
:104480001010020038950C081010020058950C0806
:104490001010020078950C081010020098950C0876
:1044A00010100200B8950C0810100200D8950C08E6
:1044B00010100200F8950C081010020018960C0855
:1044C0001010020038960C081010020058960C08C4
:1044D0001010020078960C081010020098960C0834
:1044E00010100200B8960C0810100200D8960C08A4
:1044F00010100200F8960C081010020018970C0813
:104500001010020038970C081010020058970C0881
:104510001010020078970C081010020098970C08F1
:1045200010100200B8970C0810100200D8970C0861
:1045300010100200F8970C081010020018980C08D0
:104540001010020038980C081010020058980C083F
:104550001010020078980C081010020098980C08AF
:1045600010100200B8980C0810100200D8980C081F
:1045700010100200F8980C081010020018990C088E
:104580001010020038990C081010020058990C08FD
:104590001010020078990C081010020098990C086D
:1045A00010100200B8990C0810100200D8990C08DD
:1045B00010100200F8990C0810100200189A0C084C
:1045C00010100200389A0C0810100200589A0C08BB
:1045D00010100200789A0C0810100200989A0C082B
:1045E00010100200B89A0C0810100200D89A0C089B
:1045F00010100200F89A0C0810100200189B0C080A
:1046000010100200389B0C0810100200589B0C0878
:1046100010100200789B0C0810100200989B0C08E8
:1046200010100200B89B0C0810100200D89B0C0858
:1046300010100200F89B0C0810100200189C0C08C7
:1046400010100200389C0C0810100200589C0C0836
:1046500010100200789C0C0810100200989C0C08A6
:1046600010100200B89C0C0810100200D89C0C0816
:1046700010100200F89C0C0810100200189D0C0885
:1046800010100200389D0C0810100200589D0C08F4
:1046900010100200789D0C0810100200989D0C0864
:1046A00010100200B89D0C0810100200D89D0C08D4
:1046B00010100200F89D0C0810100200189E0C0843
:1046C00010100200389E0C0810100200589E0C08B2
:1046D00010100200789E0C0810100200989E0C0822
:1046E00010100200B89E0C0810100200D89E0C0892
:1046F00010100200F89E0C0810100200189F0C0801
:1047000010100200389F0C0810100200589F0C086F
:1047100010100200789F0C0810100200989F0C08DF
:1047200010100200B89F0C0810100200D89F0C084F
:1047300010100200F89F0C081010020018A00C08BE
:104740001010020038A00C081010020058A00C082D
:104750001010020078A00C081010020098A00C089D
:1047600010100200B8A00C0810100200D8A00C080D
:1047700010100200F8A00C081010020018A10C087C
:104780001010020038A10C081010020058A10C08EB
:104790001010020078A10C081010020098A10C085B
:1047A00010100200B8A10C0810100200D8A10C08CB
:1047B00010100200F8A10C081010020018A20C083A
:1047C0001010020038A20C081010020058A20C08A9
:1047D0001010020078A20C081010020098A20C0819
:1047E00010100200B8A20C0810100200D8A20C0889
:1047F00010100200F8A20C081010020018A30C08F8
:104800001010020038A30C081010020058A30C0866
:104810001010020078A30C081010020098A30C08D6
:1048200010100200B8A30C0810100200D8A30C0846
:1048300010100200F8A30C081010020018A40C08B5
:104840001010020038A40C081010020058A40C0824
:104850001010020078A40C081010020098A40C0894
:1048600010100200B8A40C0810100200D8A40C0804
:1048700010100200F8A40C081010020018A50C0873
:104880001010020038A50C081010020058A50C08E2
:104890001010020078A50C081010020098A50C0852
:1048A00010100200B8A50C0810100200D8A50C08C2
:1048B00010100200F8A50C081010020018A60C0831
:1048C0001010020038A60C081010020058A60C08A0
:1048D0001010020078A60C081010020098A60C0810
:1048E00010100200B8A60C0810100200D8A60C0880
:1048F00010100200F8A60C081010020018A70C08EF
:104900001010020038A70C081010020058A70C085D
:104910001010020078A70C081010020098A70C08CD
:1049200010100200B8A70C0810100200D8A70C083D
:1049300010100200F8A70C081010020018A80C08AC
:104940001010020038A80C081010020058A80C081B
:104950001010020078A80C081010020098A80C088B
:1049600010100200B8A80C0810100200D8A80C08FB
:1049700010100200F8A80C081010020018A90C086A
:104980001010020038A90C081010020058A90C08D9
:104990001010020078A90C081010020098A90C0849
:1049A00010100200B8A90C0810100200D8A90C08B9
:1049B00010100200F8A90C081010020018AA0C0828
:1049C0001010020038AA0C081010020058AA0C0897
:1049D0001010020078AA0C081010020098AA0C0807
:1049E00010100200B8AA0C0810100200D8AA0C0877
:1049F00010100200F8AA0C081010020018AB0C08E6
:104A00001010020038AB0C081010020058AB0C0854
:104A10001010020078AB0C081010020098AB0C08C4
:104A200010100200B8AB0C0810100200D8AB0C0834
:104A300010100200F8AB0C081010020018AC0C08A3
:104A40001010020038AC0C081010020058AC0C0812
:104A50001010020078AC0C081010020098AC0C0882
:104A600010100200B8AC0C0810100200D8AC0C08F2
:104A700010100200F8AC0C081010020018AD0C0861
:104A80001010020038AD0C081010020058AD0C08D0
:104A90001010020078AD0C081010020098AD0C0840
:104AA00010100200B8AD0C0810100200D8AD0C08B0
:104AB00010100200F8AD0C081010020018AE0C081F
:104AC0001010020038AE0C081010020058AE0C088E
:104AD0001010020078AE0C081010020098AE0C08FE
:104AE00010100200B8AE0C0810100200D8AE0C086E
:104AF00010100200F8AE0C081010020018AF0C08DD
:104B00001010020038AF0C081010020058AF0C084B
:104B10001010020078AF0C081010020098AF0C08BB
:104B200010100200B8AF0C0810100200D8AF0C082B
:104B300010100200F8AF0C081010020018B00C089A
:104B40001010020038B00C081010020058B00C0809
:104B50001010020078B00C081010020098B00C0879
:104B600010100200B8B00C0810100200D8B00C08E9
:104B700010100200F8B00C081010020018B10C0858
:104B80001010020038B10C081010020058B10C08C7
:104B90001010020078B10C081010020098B10C0837
:104BA00010100200B8B10C0810100200D8B10C08A7
:104BB00010100200F8B10C081010020018B20C0816
:104BC0001010020038B20C081010020058B20C0885
:104BD0001010020078B20C081010020098B20C08F5
:104BE00010100200B8B20C0810100200D8B20C0865
:104BF00010100200F8B20C081010020018B30C08D4
:104C00001010020038B30C081010020058B30C0842
:104C10001010020078B30C081010020098B30C08B2
:104C200010100200B8B30C0810100200D8B30C0822
:104C300010100200F8B30C081010020018B40C0891
:104C40001010020038B40C081010020058B40C0800
:104C50001010020078B40C081010020098B40C0870
:104C600010100200B8B40C0810100200D8B40C08E0
:104C700010100200F8B40C081010020018B50C084F
:104C80001010020038B50C081010020058B50C08BE
:104C90001010020078B50C081010020098B50C082E
:104CA00010100200B8B50C0810100200D8B50C089E
:104CB00010100200F8B50C081010020018B60C080D
:104CC0001010020038B60C081010020058B60C087C
:104CD0001010020078B60C081010020098B60C08EC
:104CE00010100200B8B60C0810100200D8B60C085C
:104CF00010100200F8B60C081010020018B70C08CB
:104D00001010020038B70C081010020058B70C0839
:104D10001010020078B70C081010020098B70C08A9
:104D200010100200B8B70C0810100200D8B70C0819
:104D300010100200F8B70C081010020018B80C0888
:104D40001010020038B80C081010020058B80C08F7
:104D50001010020078B80C081010020098B80C0867
:104D600010100200B8B80C0810100200D8B80C08D7
:104D700010100200F8B80C081010020018B90C0846
:104D80001010020038B90C081010020058B90C08B5
:104D90001010020078B90C081010020098B90C0825
:104DA00010100200B8B90C0810100200D8B90C0895
:104DB00010100200F8B90C081010020018BA0C0804
:104DC0001010020038BA0C081010020058BA0C0873
:104DD0001010020078BA0C081010020098BA0C08E3
:104DE00010100200B8BA0C0810100200D8BA0C0853
:104DF00010100200F8BA0C081010020018BB0C08C2
:104E00001010020038BB0C081010020058BB0C0830
:104E10001010020078BB0C081010020098BB0C08A0
:104E200010100200B8BB0C0810100200D8BB0C0810
:104E300010100200F8BB0C081010020018BC0C087F
:104E40001010020038BC0C081010020058BC0C08EE
:104E50001010020078BC0C081010020098BC0C085E
:104E600010100200B8BC0C0810100200D8BC0C08CE
:104E700010100200F8BC0C081010020018BD0C083D
:104E80001010020038BD0C081010020058BD0C08AC
:104E90001010020078BD0C081010020098BD0C081C
:104EA00010100200B8BD0C0810100200D8BD0C088C
:104EB00010100200F8BD0C081010020018BE0C08FB
:104EC0001010020038BE0C081010020058BE0C086A
:104ED0001010020078BE0C081010020098BE0C08DA
:104EE00010100200B8BE0C0810100200D8BE0C084A
:104EF00010100200F8BE0C081010020018BF0C08B9
:104F00001010020038BF0C081010020058BF0C0827
:104F10001010020078BF0C081010020098BF0C0897
:104F200010100200B8BF0C0810100200D8BF0C0807
:104F300010100200F8BF0C081010020018C00C0876
:104F40001010020038C00C081010020058C00C08E5
:104F50001010020078C00C081010020098C00C0855
:104F600010100200B8C00C0810100200D8C00C08C5
:104F700010100200F8C00C081010020018C10C0834
:104F80001010020038C10C081010020058C10C08A3
:104F90001010020078C10C081010020098C10C0813
:104FA00010100200B8C10C0810100200D8C10C0883
:104FB00010100200F8C10C081010020018C20C08F2
:104FC0001010020038C20C081010020058C20C0861
:104FD0001010020078C20C081010020098C20C08D1
:104FE00010100200B8C20C0810100200D8C20C0841
:104FF00010100200F8C20C081010020018C30C08B0
:105000001010020038C30C081010020058C30C081E
:105010001010020078C30C081010020098C30C088E
:1050200010100200B8C30C0810100200D8C30C08FE
:1050300010100200F8C30C081010020018C40C086D
:105040001010020038C40C081010020058C40C08DC
:105050001010020078C40C081010020098C40C084C
:1050600010100200B8C40C0810100200D8C40C08BC
:1050700010100200F8C40C081010020018C50C082B
:105080001010020038C50C081010020058C50C089A
:105090001010020078C50C081010020098C50C080A
:1050A00010100200B8C50C0810100200D8C50C087A
:1050B00010100200F8C50C081010020018C60C08E9
:1050C0001010020038C60C081010020058C60C0858
:1050D0001010020078C60C081010020098C60C08C8
:1050E00010100200B8C60C0810100200D8C60C0838
:1050F00010100200F8C60C081010020018C70C08A7
:105100001010020038C70C081010020058C70C0815
:105110001010020078C70C081010020098C70C0885
:1051200010100200B8C70C0810100200D8C70C08F5
:1051300010100200F8C70C081010020018C80C0864
:105140001010020038C80C081010020058C80C08D3
:105150001010020078C80C081010020098C80C0843
:1051600010100200B8C80C0810100200D8C80C08B3
:1051700010100200F8C80C081010020018C90C0822
:105180001010020038C90C081010020058C90C0891
:105190001010020078C90C081010020098C90C0801
:1051A00010100200B8C90C0810100200D8C90C0871
:1051B00010100200F8C90C081010020018CA0C08E0
:1051C0001010020038CA0C081010020058CA0C084F
:1051D0001010020078CA0C081010020098CA0C08BF
:1051E00010100200B8CA0C0810100200D8CA0C082F
:1051F00010100200F8CA0C081010020018CB0C089E
:105200001010020038CB0C081010020058CB0C080C
:105210001010020078CB0C081010020098CB0C087C
:1052200010100200B8CB0C0810100200D8CB0C08EC
:1052300010100200F8CB0C081010020018CC0C085B
:105240001010020038CC0C081010020058CC0C08CA
:105250001010020078CC0C081010020098CC0C083A
:1052600010100200B8CC0C0810100200D8CC0C08AA
:1052700010100200F8CC0C081010020018CD0C0819
:105280001010020038CD0C081010020058CD0C0888
:105290001010020078CD0C081010020098CD0C08F8
:1052A00010100200B8CD0C0810100200D8CD0C0868
:1052B00010100200F8CD0C081010020018CE0C08D7
:1052C0001010020038CE0C081010020058CE0C0846
:1052D0001010020078CE0C081010020098CE0C08B6
:1052E00010100200B8CE0C0810100200D8CE0C0826
:1052F00010100200F8CE0C081010020018CF0C0895
:105300001010020038CF0C081010020058CF0C0803
:105310001010020078CF0C081010020098CF0C0873
:1053200010100200B8CF0C0810100200D8CF0C08E3
:1053300010100200F8CF0C081010020018D00C0852
:105340001010020038D00C081010020058D00C08C1
:105350001010020078D00C081010020098D00C0831
:1053600010100200B8D00C0810100200D8D00C08A1
:1053700010100200F8D00C081010020018D10C0810
:105380001010020038D10C081010020058D10C087F
:105390001010020078D10C081010020098D10C08EF
:1053A00010100200B8D10C0810100200D8D10C085F
:1053B00010100200F8D10C081010020018D20C08CE
:1053C0001010020038D20C081010020058D20C083D
:1053D0001010020078D20C081010020098D20C08AD
:1053E00010100200B8D20C0810100200D8D20C081D
:1053F00010100200F8D20C081010020018D30C088C
:105400001010020038D30C081010020058D30C08FA
:105410001010020078D30C081010020098D30C086A
:1054200010100200B8D30C0810100200D8D30C08DA
:1054300010100200F8D30C081010020018D40C0849
:105440001010020038D40C081010020058D40C08B8
:105450001010020078D40C081010020098D40C0828
:1054600010100200B8D40C0810100200D8D40C0898
:1054700010100200F8D40C081010020018D50C0807
:105480001010020038D50C081010020058D50C0876
:105490001010020078D50C081010020098D50C08E6
:1054A00010100200B8D50C0810100200D8D50C0856
:1054B00010100200F8D50C081010020018D60C08C5
:1054C0001010020038D60C081010020058D60C0834
:1054D0001010020078D60C081010020098D60C08A4
:1054E00010100200B8D60C0810100200D8D60C0814
:1054F00010100200F8D60C081010020018D70C0883
:105500001010020038D70C081010020058D70C08F1
:105510001010020078D70C081010020098D70C0861
:1055200010100200B8D70C0810100200D8D70C08D1
:1055300010100200F8D70C081010020018D80C0840
:105540001010020038D80C081010020058D80C08AF
:105550001010020078D80C081010020098D80C081F
:1055600010100200B8D80C0810100200D8D80C088F
:1055700010100200F8D80C081010020018D90C08FE
:105580001010020038D90C081010020058D90C086D
:105590001010020078D90C081010020098D90C08DD
:1055A00010100200B8D90C0810100200D8D90C084D
:1055B00010100200F8D90C081010020018DA0C08BC
:1055C0001010020038DA0C081010020058DA0C082B
:1055D0001010020078DA0C081010020098DA0C089B
:1055E00010100200B8DA0C0810100200D8DA0C080B
:1055F00010100200F8DA0C081010020018DB0C087A
:105600001010020038DB0C081010020058DB0C08E8
:105610001010020078DB0C081010020098DB0C0858
:1056200010100200B8DB0C0810100200D8DB0C08C8
:1056300010100200F8DB0C081010020018DC0C0837
:105640001010020038DC0C081010020058DC0C08A6
:105650001010020078DC0C081010020098DC0C0816
:1056600010100200B8DC0C0810100200D8DC0C0886
:1056700010100200F8DC0C081010020018DD0C08F5
:105680001010020038DD0C081010020058DD0C0864
:105690001010020078DD0C081010020098DD0C08D4
:1056A00010100200B8DD0C0810100200D8DD0C0844
:1056B00010100200F8DD0C081010020018DE0C08B3
:1056C0001010020038DE0C081010020058DE0C0822
:1056D0001010020078DE0C081010020098DE0C0892
:1056E00010100200B8DE0C0810100200D8DE0C0802
:1056F00010100200F8DE0C081010020018DF0C0871
:105700001010020038DF0C081010020058DF0C08DF
:105710001010020078DF0C081010020098DF0C084F
:1057200010100200B8DF0C0810100200D8DF0C08BF
:1057300010100200F8DF0C081010020018E00C082E
:105740001010020038E00C081010020058E00C089D
:105750001010020078E00C081010020098E00C080D
:1057600010100200B8E00C0810100200D8E00C087D
:1057700010100200F8E00C081010020018E10C08EC
:105780001010020038E10C081010020058E10C085B
:105790001010020078E10C081010020098E10C08CB
:1057A00010100200B8E10C0810100200D8E10C083B
:1057B00010100200F8E10C081010020018E20C08AA
:1057C0001010020038E20C081010020058E20C0819
:1057D0001010020078E20C081010020098E20C0889
:1057E00010100200B8E20C0810100200D8E20C08F9
:1057F00010100200F8E20C081010020018E30C0868
:105800001010020038E30C081010020058E30C08D6
:105810001010020078E30C081010020098E30C0846
:1058200010100200B8E30C0810100200D8E30C08B6
:1058300010100200F8E30C081010020018E40C0825
:105840001010020038E40C081010020058E40C0894
:105850001010020078E40C081010020098E40C0804
:1058600010100200B8E40C0810100200D8E40C0874
:1058700010100200F8E40C081010020018E50C08E3
:105880001010020038E50C081010020058E50C0852
:105890001010020078E50C081010020098E50C08C2
:1058A00010100200B8E50C0810100200D8E50C0832
:1058B00010100200F8E50C081010020018E60C08A1
:1058C0001010020038E60C081010020058E60C0810
:1058D0001010020078E60C081010020098E60C0880
:1058E00010100200B8E60C0810100200D8E60C08F0
:1058F00010100200F8E60C081010020018E70C085F
:105900001010020038E70C081010020058E70C08CD
:105910001010020078E70C081010020098E70C083D
:1059200010100200B8E70C0810100200D8E70C08AD
:1059300010100200F8E70C081010020018E80C081C
:105940001010020038E80C081010020058E80C088B
:105950001010020078E80C081010020098E80C08FB
:1059600010100200B8E80C0810100200D8E80C086B
:1059700010100200F8E80C081010020018E90C08DA
:105980001010020038E90C081010020058E90C0849
:105990001010020078E90C081010020098E90C08B9
:1059A00010100200B8E90C0810100200D8E90C0829
:1059B00010100200F8E90C081010020018EA0C0898
:1059C0001010020038EA0C081010020058EA0C0807
:1059D0001010020078EA0C081010020098EA0C0877
:1059E00010100200B8EA0C0810100200D8EA0C08E7
:1059F00010100200F8EA0C081010020018EB0C0856
:105A00001010020038EB0C081010020058EB0C08C4
:105A10001010020078EB0C081010020098EB0C0834
:105A200010100200B8EB0C0810100200D8EB0C08A4
:105A300010100200F8EB0C081010020018EC0C0813
:105A40001010020038EC0C081010020058EC0C0882
:105A50001010020078EC0C081010020098EC0C08F2
:105A600010100200B8EC0C0810100200D8EC0C0862
:105A700010100200F8EC0C081010020018ED0C08D1
:105A80001010020038ED0C081010020058ED0C0840
:105A90001010020078ED0C081010020098ED0C08B0
:105AA00010100200B8ED0C0810100200D8ED0C0820
:105AB00010100200F8ED0C081010020018EE0C088F
:105AC0001010020038EE0C081010020058EE0C08FE
:105AD0001010020078EE0C081010020098EE0C086E
